{
	"tc_avax.sol": {
		"tc_avax": {
			"abi": [
				{
					"inputs": [],
					"stateMutability": "nonpayable",
					"type": "constructor"
				},
				{
					"anonymous": false,
					"inputs": [
						{
							"indexed": false,
							"internalType": "string",
							"name": "date",
							"type": "string"
						},
						{
							"indexed": false,
							"internalType": "string",
							"name": "delivery_date",
							"type": "string"
						},
						{
							"indexed": false,
							"internalType": "string",
							"name": "product",
							"type": "string"
						},
						{
							"indexed": false,
							"internalType": "string",
							"name": "price",
							"type": "string"
						},
						{
							"indexed": false,
							"internalType": "string",
							"name": "code",
							"type": "string"
						},
						{
							"indexed": false,
							"internalType": "string",
							"name": "cel_number",
							"type": "string"
						},
						{
							"indexed": false,
							"internalType": "int8",
							"name": "status",
							"type": "int8"
						},
						{
							"indexed": false,
							"internalType": "address",
							"name": "wallet",
							"type": "address"
						}
					],
					"name": "newData",
					"type": "event"
				},
				{
					"inputs": [],
					"name": "data",
					"outputs": [
						{
							"internalType": "string",
							"name": "date",
							"type": "string"
						},
						{
							"internalType": "string",
							"name": "delivery_date",
							"type": "string"
						},
						{
							"internalType": "string",
							"name": "product",
							"type": "string"
						},
						{
							"internalType": "string",
							"name": "price",
							"type": "string"
						},
						{
							"internalType": "string",
							"name": "code",
							"type": "string"
						},
						{
							"internalType": "string",
							"name": "cel_number",
							"type": "string"
						},
						{
							"internalType": "int8",
							"name": "status",
							"type": "int8"
						},
						{
							"internalType": "address",
							"name": "wallet",
							"type": "address"
						}
					],
					"stateMutability": "view",
					"type": "function"
				},
				{
					"inputs": [],
					"name": "getBalance",
					"outputs": [
						{
							"internalType": "uint256",
							"name": "",
							"type": "uint256"
						}
					],
					"stateMutability": "view",
					"type": "function"
				},
				{
					"inputs": [],
					"name": "owner",
					"outputs": [
						{
							"internalType": "address payable",
							"name": "",
							"type": "address"
						}
					],
					"stateMutability": "view",
					"type": "function"
				},
				{
					"inputs": [
						{
							"internalType": "string",
							"name": "_date",
							"type": "string"
						},
						{
							"internalType": "string",
							"name": "_delivery_date",
							"type": "string"
						},
						{
							"internalType": "string",
							"name": "_product",
							"type": "string"
						},
						{
							"internalType": "string",
							"name": "_price",
							"type": "string"
						},
						{
							"internalType": "string",
							"name": "_code",
							"type": "string"
						},
						{
							"internalType": "string",
							"name": "_cel_number",
							"type": "string"
						},
						{
							"internalType": "int8",
							"name": "_status",
							"type": "int8"
						}
					],
					"name": "pushData",
					"outputs": [],
					"stateMutability": "payable",
					"type": "function"
				},
				{
					"inputs": [],
					"name": "withdraw",
					"outputs": [],
					"stateMutability": "nonpayable",
					"type": "function"
				}
			],
			"devdoc": {
				"kind": "dev",
				"methods": {},
				"version": 1
			},
			"evm": {
				"assembly": "    /* \"tc_avax.sol\":61:2548  contract tc_avax {... */\n  mstore(0x40, 0x80)\n    /* \"tc_avax.sol\":990:1111  constructor() {... */\n  callvalue\n  dup1\n  iszero\n  tag_1\n  jumpi\n  0x00\n  dup1\n  revert\ntag_1:\n  pop\n    /* \"tc_avax.sol\":1093:1103  msg.sender */\n  caller\n    /* \"tc_avax.sol\":1077:1082  owner */\n  0x00\n  dup1\n    /* \"tc_avax.sol\":1077:1104  owner = payable(msg.sender) */\n  0x0100\n  exp\n  dup2\n  sload\n  dup2\n  0xffffffffffffffffffffffffffffffffffffffff\n  mul\n  not\n  and\n  swap1\n  dup4\n  0xffffffffffffffffffffffffffffffffffffffff\n  and\n  mul\n  or\n  swap1\n  sstore\n  pop\n    /* \"tc_avax.sol\":61:2548  contract tc_avax {... */\n  dataSize(sub_0)\n  dup1\n  dataOffset(sub_0)\n  0x00\n  codecopy\n  0x00\n  return\nstop\n\nsub_0: assembly {\n        /* \"tc_avax.sol\":61:2548  contract tc_avax {... */\n      mstore(0x40, 0x80)\n      jumpi(tag_1, lt(calldatasize, 0x04))\n      shr(0xe0, calldataload(0x00))\n      dup1\n      0x12065fe0\n      eq\n      tag_2\n      jumpi\n      dup1\n      0x3ccfd60b\n      eq\n      tag_3\n      jumpi\n      dup1\n      0x73d4a13a\n      eq\n      tag_4\n      jumpi\n      dup1\n      0x782154df\n      eq\n      tag_5\n      jumpi\n      dup1\n      0x8da5cb5b\n      eq\n      tag_6\n      jumpi\n    tag_1:\n      0x00\n      dup1\n      revert\n        /* \"tc_avax.sol\":2449:2546  function getBalance() public view returns (uint256) {... */\n    tag_2:\n      callvalue\n      dup1\n      iszero\n      tag_7\n      jumpi\n      0x00\n      dup1\n      revert\n    tag_7:\n      pop\n      tag_8\n      tag_9\n      jump\t// in\n    tag_8:\n      mload(0x40)\n      tag_10\n      swap2\n      swap1\n      tag_11\n      jump\t// in\n    tag_10:\n      mload(0x40)\n      dup1\n      swap2\n      sub\n      swap1\n      return\n        /* \"tc_avax.sol\":2051:2397  function withdraw() public onlyOwner {... */\n    tag_3:\n      callvalue\n      dup1\n      iszero\n      tag_12\n      jumpi\n      0x00\n      dup1\n      revert\n    tag_12:\n      pop\n      tag_13\n      tag_14\n      jump\t// in\n    tag_13:\n      stop\n        /* \"tc_avax.sol\":375:391  Data public data */\n    tag_4:\n      callvalue\n      dup1\n      iszero\n      tag_15\n      jumpi\n      0x00\n      dup1\n      revert\n    tag_15:\n      pop\n      tag_16\n      tag_17\n      jump\t// in\n    tag_16:\n      mload(0x40)\n      tag_18\n      swap9\n      swap8\n      swap7\n      swap6\n      swap5\n      swap4\n      swap3\n      swap2\n      swap1\n      tag_19\n      jump\t// in\n    tag_18:\n      mload(0x40)\n      dup1\n      swap2\n      sub\n      swap1\n      return\n        /* \"tc_avax.sol\":1117:1990  function pushData(string memory _date,... */\n    tag_5:\n      tag_20\n      0x04\n      dup1\n      calldatasize\n      sub\n      dup2\n      add\n      swap1\n      tag_21\n      swap2\n      swap1\n      tag_22\n      jump\t// in\n    tag_21:\n      tag_23\n      jump\t// in\n    tag_20:\n      stop\n        /* \"tc_avax.sol\":125:153  address payable public owner */\n    tag_6:\n      callvalue\n      dup1\n      iszero\n      tag_24\n      jumpi\n      0x00\n      dup1\n      revert\n    tag_24:\n      pop\n      tag_25\n      tag_26\n      jump\t// in\n    tag_25:\n      mload(0x40)\n      tag_27\n      swap2\n      swap1\n      tag_28\n      jump\t// in\n    tag_27:\n      mload(0x40)\n      dup1\n      swap2\n      sub\n      swap1\n      return\n        /* \"tc_avax.sol\":2449:2546  function getBalance() public view returns (uint256) {... */\n    tag_9:\n        /* \"tc_avax.sol\":2492:2499  uint256 */\n      0x00\n        /* \"tc_avax.sol\":2518:2539  address(this).balance */\n      selfbalance\n        /* \"tc_avax.sol\":2511:2539  return address(this).balance */\n      swap1\n      pop\n        /* \"tc_avax.sol\":2449:2546  function getBalance() public view returns (uint256) {... */\n      swap1\n      jump\t// out\n        /* \"tc_avax.sol\":2051:2397  function withdraw() public onlyOwner {... */\n    tag_14:\n        /* \"tc_avax.sol\":771:776  owner */\n      0x00\n      dup1\n      sload\n      swap1\n      0x0100\n      exp\n      swap1\n      div\n      0xffffffffffffffffffffffffffffffffffffffff\n      and\n        /* \"tc_avax.sol\":757:776  msg.sender == owner */\n      0xffffffffffffffffffffffffffffffffffffffff\n      and\n        /* \"tc_avax.sol\":757:767  msg.sender */\n      caller\n        /* \"tc_avax.sol\":757:776  msg.sender == owner */\n      0xffffffffffffffffffffffffffffffffffffffff\n      and\n      eq\n        /* \"tc_avax.sol\":749:804  require(msg.sender == owner, \"Only owner can withdraw\") */\n      tag_31\n      jumpi\n      mload(0x40)\n      0x08c379a000000000000000000000000000000000000000000000000000000000\n      dup2\n      mstore\n      0x04\n      add\n      tag_32\n      swap1\n      tag_33\n      jump\t// in\n    tag_32:\n      mload(0x40)\n      dup1\n      swap2\n      sub\n      swap1\n      revert\n    tag_31:\n        /* \"tc_avax.sol\":2150:2162  uint balance */\n      0x00\n        /* \"tc_avax.sol\":2165:2186  address(this).balance */\n      selfbalance\n        /* \"tc_avax.sol\":2150:2186  uint balance = address(this).balance */\n      swap1\n      pop\n        /* \"tc_avax.sol\":2214:2215  0 */\n      0x00\n        /* \"tc_avax.sol\":2204:2211  balance */\n      dup2\n        /* \"tc_avax.sol\":2204:2215  balance > 0 */\n      gt\n        /* \"tc_avax.sol\":2196:2240  require(balance > 0, \"No funds to withdraw\") */\n      tag_35\n      jumpi\n      mload(0x40)\n      0x08c379a000000000000000000000000000000000000000000000000000000000\n      dup2\n      mstore\n      0x04\n      add\n      tag_36\n      swap1\n      tag_37\n      jump\t// in\n    tag_36:\n      mload(0x40)\n      dup1\n      swap2\n      sub\n      swap1\n      revert\n    tag_35:\n        /* \"tc_avax.sol\":2297:2309  bool success */\n      0x00\n        /* \"tc_avax.sol\":2315:2320  owner */\n      dup1\n      0x00\n      swap1\n      sload\n      swap1\n      0x0100\n      exp\n      swap1\n      div\n      0xffffffffffffffffffffffffffffffffffffffff\n      and\n        /* \"tc_avax.sol\":2315:2325  owner.call */\n      0xffffffffffffffffffffffffffffffffffffffff\n      and\n        /* \"tc_avax.sol\":2333:2340  balance */\n      dup3\n        /* \"tc_avax.sol\":2315:2345  owner.call{value: balance}(\"\") */\n      mload(0x40)\n      tag_38\n      swap1\n      tag_39\n      jump\t// in\n    tag_38:\n      0x00\n      mload(0x40)\n      dup1\n      dup4\n      sub\n      dup2\n      dup6\n      dup8\n      gas\n      call\n      swap3\n      pop\n      pop\n      pop\n      returndatasize\n      dup1\n      0x00\n      dup2\n      eq\n      tag_42\n      jumpi\n      mload(0x40)\n      swap2\n      pop\n      and(add(returndatasize, 0x3f), not(0x1f))\n      dup3\n      add\n      0x40\n      mstore\n      returndatasize\n      dup3\n      mstore\n      returndatasize\n      0x00\n      0x20\n      dup5\n      add\n      returndatacopy\n      jump(tag_41)\n    tag_42:\n      0x60\n      swap2\n      pop\n    tag_41:\n      pop\n        /* \"tc_avax.sol\":2296:2345  (bool success, ) = owner.call{value: balance}(\"\") */\n      pop\n      swap1\n      pop\n        /* \"tc_avax.sol\":2363:2370  success */\n      dup1\n        /* \"tc_avax.sol\":2355:2390  require(success, \"Transfer failed\") */\n      tag_43\n      jumpi\n      mload(0x40)\n      0x08c379a000000000000000000000000000000000000000000000000000000000\n      dup2\n      mstore\n      0x04\n      add\n      tag_44\n      swap1\n      tag_45\n      jump\t// in\n    tag_44:\n      mload(0x40)\n      dup1\n      swap2\n      sub\n      swap1\n      revert\n    tag_43:\n        /* \"tc_avax.sol\":2088:2397  {... */\n      pop\n      pop\n        /* \"tc_avax.sol\":2051:2397  function withdraw() public onlyOwner {... */\n      jump\t// out\n        /* \"tc_avax.sol\":375:391  Data public data */\n    tag_17:\n      0x01\n      dup1\n      0x00\n      add\n      dup1\n      sload\n      tag_46\n      swap1\n      tag_47\n      jump\t// in\n    tag_46:\n      dup1\n      0x1f\n      add\n      0x20\n      dup1\n      swap2\n      div\n      mul\n      0x20\n      add\n      mload(0x40)\n      swap1\n      dup2\n      add\n      0x40\n      mstore\n      dup1\n      swap3\n      swap2\n      swap1\n      dup2\n      dup2\n      mstore\n      0x20\n      add\n      dup3\n      dup1\n      sload\n      tag_48\n      swap1\n      tag_47\n      jump\t// in\n    tag_48:\n      dup1\n      iszero\n      tag_49\n      jumpi\n      dup1\n      0x1f\n      lt\n      tag_50\n      jumpi\n      0x0100\n      dup1\n      dup4\n      sload\n      div\n      mul\n      dup4\n      mstore\n      swap2\n      0x20\n      add\n      swap2\n      jump(tag_49)\n    tag_50:\n      dup3\n      add\n      swap2\n      swap1\n      0x00\n      mstore\n      keccak256(0x00, 0x20)\n      swap1\n    tag_51:\n      dup2\n      sload\n      dup2\n      mstore\n      swap1\n      0x01\n      add\n      swap1\n      0x20\n      add\n      dup1\n      dup4\n      gt\n      tag_51\n      jumpi\n      dup3\n      swap1\n      sub\n      0x1f\n      and\n      dup3\n      add\n      swap2\n    tag_49:\n      pop\n      pop\n      pop\n      pop\n      pop\n      swap1\n      dup1\n      0x01\n      add\n      dup1\n      sload\n      tag_52\n      swap1\n      tag_47\n      jump\t// in\n    tag_52:\n      dup1\n      0x1f\n      add\n      0x20\n      dup1\n      swap2\n      div\n      mul\n      0x20\n      add\n      mload(0x40)\n      swap1\n      dup2\n      add\n      0x40\n      mstore\n      dup1\n      swap3\n      swap2\n      swap1\n      dup2\n      dup2\n      mstore\n      0x20\n      add\n      dup3\n      dup1\n      sload\n      tag_53\n      swap1\n      tag_47\n      jump\t// in\n    tag_53:\n      dup1\n      iszero\n      tag_54\n      jumpi\n      dup1\n      0x1f\n      lt\n      tag_55\n      jumpi\n      0x0100\n      dup1\n      dup4\n      sload\n      div\n      mul\n      dup4\n      mstore\n      swap2\n      0x20\n      add\n      swap2\n      jump(tag_54)\n    tag_55:\n      dup3\n      add\n      swap2\n      swap1\n      0x00\n      mstore\n      keccak256(0x00, 0x20)\n      swap1\n    tag_56:\n      dup2\n      sload\n      dup2\n      mstore\n      swap1\n      0x01\n      add\n      swap1\n      0x20\n      add\n      dup1\n      dup4\n      gt\n      tag_56\n      jumpi\n      dup3\n      swap1\n      sub\n      0x1f\n      and\n      dup3\n      add\n      swap2\n    tag_54:\n      pop\n      pop\n      pop\n      pop\n      pop\n      swap1\n      dup1\n      0x02\n      add\n      dup1\n      sload\n      tag_57\n      swap1\n      tag_47\n      jump\t// in\n    tag_57:\n      dup1\n      0x1f\n      add\n      0x20\n      dup1\n      swap2\n      div\n      mul\n      0x20\n      add\n      mload(0x40)\n      swap1\n      dup2\n      add\n      0x40\n      mstore\n      dup1\n      swap3\n      swap2\n      swap1\n      dup2\n      dup2\n      mstore\n      0x20\n      add\n      dup3\n      dup1\n      sload\n      tag_58\n      swap1\n      tag_47\n      jump\t// in\n    tag_58:\n      dup1\n      iszero\n      tag_59\n      jumpi\n      dup1\n      0x1f\n      lt\n      tag_60\n      jumpi\n      0x0100\n      dup1\n      dup4\n      sload\n      div\n      mul\n      dup4\n      mstore\n      swap2\n      0x20\n      add\n      swap2\n      jump(tag_59)\n    tag_60:\n      dup3\n      add\n      swap2\n      swap1\n      0x00\n      mstore\n      keccak256(0x00, 0x20)\n      swap1\n    tag_61:\n      dup2\n      sload\n      dup2\n      mstore\n      swap1\n      0x01\n      add\n      swap1\n      0x20\n      add\n      dup1\n      dup4\n      gt\n      tag_61\n      jumpi\n      dup3\n      swap1\n      sub\n      0x1f\n      and\n      dup3\n      add\n      swap2\n    tag_59:\n      pop\n      pop\n      pop\n      pop\n      pop\n      swap1\n      dup1\n      0x03\n      add\n      dup1\n      sload\n      tag_62\n      swap1\n      tag_47\n      jump\t// in\n    tag_62:\n      dup1\n      0x1f\n      add\n      0x20\n      dup1\n      swap2\n      div\n      mul\n      0x20\n      add\n      mload(0x40)\n      swap1\n      dup2\n      add\n      0x40\n      mstore\n      dup1\n      swap3\n      swap2\n      swap1\n      dup2\n      dup2\n      mstore\n      0x20\n      add\n      dup3\n      dup1\n      sload\n      tag_63\n      swap1\n      tag_47\n      jump\t// in\n    tag_63:\n      dup1\n      iszero\n      tag_64\n      jumpi\n      dup1\n      0x1f\n      lt\n      tag_65\n      jumpi\n      0x0100\n      dup1\n      dup4\n      sload\n      div\n      mul\n      dup4\n      mstore\n      swap2\n      0x20\n      add\n      swap2\n      jump(tag_64)\n    tag_65:\n      dup3\n      add\n      swap2\n      swap1\n      0x00\n      mstore\n      keccak256(0x00, 0x20)\n      swap1\n    tag_66:\n      dup2\n      sload\n      dup2\n      mstore\n      swap1\n      0x01\n      add\n      swap1\n      0x20\n      add\n      dup1\n      dup4\n      gt\n      tag_66\n      jumpi\n      dup3\n      swap1\n      sub\n      0x1f\n      and\n      dup3\n      add\n      swap2\n    tag_64:\n      pop\n      pop\n      pop\n      pop\n      pop\n      swap1\n      dup1\n      0x04\n      add\n      dup1\n      sload\n      tag_67\n      swap1\n      tag_47\n      jump\t// in\n    tag_67:\n      dup1\n      0x1f\n      add\n      0x20\n      dup1\n      swap2\n      div\n      mul\n      0x20\n      add\n      mload(0x40)\n      swap1\n      dup2\n      add\n      0x40\n      mstore\n      dup1\n      swap3\n      swap2\n      swap1\n      dup2\n      dup2\n      mstore\n      0x20\n      add\n      dup3\n      dup1\n      sload\n      tag_68\n      swap1\n      tag_47\n      jump\t// in\n    tag_68:\n      dup1\n      iszero\n      tag_69\n      jumpi\n      dup1\n      0x1f\n      lt\n      tag_70\n      jumpi\n      0x0100\n      dup1\n      dup4\n      sload\n      div\n      mul\n      dup4\n      mstore\n      swap2\n      0x20\n      add\n      swap2\n      jump(tag_69)\n    tag_70:\n      dup3\n      add\n      swap2\n      swap1\n      0x00\n      mstore\n      keccak256(0x00, 0x20)\n      swap1\n    tag_71:\n      dup2\n      sload\n      dup2\n      mstore\n      swap1\n      0x01\n      add\n      swap1\n      0x20\n      add\n      dup1\n      dup4\n      gt\n      tag_71\n      jumpi\n      dup3\n      swap1\n      sub\n      0x1f\n      and\n      dup3\n      add\n      swap2\n    tag_69:\n      pop\n      pop\n      pop\n      pop\n      pop\n      swap1\n      dup1\n      0x05\n      add\n      dup1\n      sload\n      tag_72\n      swap1\n      tag_47\n      jump\t// in\n    tag_72:\n      dup1\n      0x1f\n      add\n      0x20\n      dup1\n      swap2\n      div\n      mul\n      0x20\n      add\n      mload(0x40)\n      swap1\n      dup2\n      add\n      0x40\n      mstore\n      dup1\n      swap3\n      swap2\n      swap1\n      dup2\n      dup2\n      mstore\n      0x20\n      add\n      dup3\n      dup1\n      sload\n      tag_73\n      swap1\n      tag_47\n      jump\t// in\n    tag_73:\n      dup1\n      iszero\n      tag_74\n      jumpi\n      dup1\n      0x1f\n      lt\n      tag_75\n      jumpi\n      0x0100\n      dup1\n      dup4\n      sload\n      div\n      mul\n      dup4\n      mstore\n      swap2\n      0x20\n      add\n      swap2\n      jump(tag_74)\n    tag_75:\n      dup3\n      add\n      swap2\n      swap1\n      0x00\n      mstore\n      keccak256(0x00, 0x20)\n      swap1\n    tag_76:\n      dup2\n      sload\n      dup2\n      mstore\n      swap1\n      0x01\n      add\n      swap1\n      0x20\n      add\n      dup1\n      dup4\n      gt\n      tag_76\n      jumpi\n      dup3\n      swap1\n      sub\n      0x1f\n      and\n      dup3\n      add\n      swap2\n    tag_74:\n      pop\n      pop\n      pop\n      pop\n      pop\n      swap1\n      dup1\n      0x06\n      add\n      0x00\n      swap1\n      sload\n      swap1\n      0x0100\n      exp\n      swap1\n      div\n      0x00\n      signextend\n      swap1\n      dup1\n      0x06\n      add\n      0x01\n      swap1\n      sload\n      swap1\n      0x0100\n      exp\n      swap1\n      div\n      0xffffffffffffffffffffffffffffffffffffffff\n      and\n      swap1\n      pop\n      dup9\n      jump\t// out\n        /* \"tc_avax.sol\":1117:1990  function pushData(string memory _date,... */\n    tag_23:\n        /* \"tc_avax.sol\":1447:1463  1000000000000000 */\n      0x038d7ea4c68000\n        /* \"tc_avax.sol\":935:941  amount */\n      dup1\n        /* \"tc_avax.sol\":922:931  msg.value */\n      callvalue\n        /* \"tc_avax.sol\":922:941  msg.value >= amount */\n      lt\n      iszero\n        /* \"tc_avax.sol\":914:966  require(msg.value >= amount, \"Not enough AVAX sent\") */\n      tag_78\n      jumpi\n      mload(0x40)\n      0x08c379a000000000000000000000000000000000000000000000000000000000\n      dup2\n      mstore\n      0x04\n      add\n      tag_79\n      swap1\n      tag_80\n      jump\t// in\n    tag_79:\n      mload(0x40)\n      dup1\n      swap2\n      sub\n      swap1\n      revert\n    tag_78:\n        /* \"tc_avax.sol\":1512:1738  Data(_date,... */\n      mload(0x40)\n      dup1\n      0x0100\n      add\n      0x40\n      mstore\n      dup1\n        /* \"tc_avax.sol\":1517:1522  _date */\n      dup10\n        /* \"tc_avax.sol\":1512:1738  Data(_date,... */\n      dup2\n      mstore\n      0x20\n      add\n        /* \"tc_avax.sol\":1544:1558  _delivery_date */\n      dup9\n        /* \"tc_avax.sol\":1512:1738  Data(_date,... */\n      dup2\n      mstore\n      0x20\n      add\n        /* \"tc_avax.sol\":1580:1588  _product */\n      dup8\n        /* \"tc_avax.sol\":1512:1738  Data(_date,... */\n      dup2\n      mstore\n      0x20\n      add\n        /* \"tc_avax.sol\":1610:1616  _price */\n      dup7\n        /* \"tc_avax.sol\":1512:1738  Data(_date,... */\n      dup2\n      mstore\n      0x20\n      add\n        /* \"tc_avax.sol\":1638:1643  _code */\n      dup6\n        /* \"tc_avax.sol\":1512:1738  Data(_date,... */\n      dup2\n      mstore\n      0x20\n      add\n        /* \"tc_avax.sol\":1665:1676  _cel_number */\n      dup5\n        /* \"tc_avax.sol\":1512:1738  Data(_date,... */\n      dup2\n      mstore\n      0x20\n      add\n        /* \"tc_avax.sol\":1698:1705  _status */\n      dup4\n        /* \"tc_avax.sol\":1512:1738  Data(_date,... */\n      0x00\n      signextend\n      dup2\n      mstore\n      0x20\n      add\n        /* \"tc_avax.sol\":1727:1737  msg.sender */\n      caller\n        /* \"tc_avax.sol\":1512:1738  Data(_date,... */\n      0xffffffffffffffffffffffffffffffffffffffff\n      and\n      dup2\n      mstore\n      pop\n        /* \"tc_avax.sol\":1505:1509  data */\n      0x01\n        /* \"tc_avax.sol\":1505:1738  data = Data(_date,... */\n      0x00\n      dup3\n      add\n      mload\n      dup2\n      0x00\n      add\n      swap1\n      dup2\n      tag_82\n      swap2\n      swap1\n      tag_83\n      jump\t// in\n    tag_82:\n      pop\n      0x20\n      dup3\n      add\n      mload\n      dup2\n      0x01\n      add\n      swap1\n      dup2\n      tag_84\n      swap2\n      swap1\n      tag_83\n      jump\t// in\n    tag_84:\n      pop\n      0x40\n      dup3\n      add\n      mload\n      dup2\n      0x02\n      add\n      swap1\n      dup2\n      tag_85\n      swap2\n      swap1\n      tag_83\n      jump\t// in\n    tag_85:\n      pop\n      0x60\n      dup3\n      add\n      mload\n      dup2\n      0x03\n      add\n      swap1\n      dup2\n      tag_86\n      swap2\n      swap1\n      tag_83\n      jump\t// in\n    tag_86:\n      pop\n      0x80\n      dup3\n      add\n      mload\n      dup2\n      0x04\n      add\n      swap1\n      dup2\n      tag_87\n      swap2\n      swap1\n      tag_83\n      jump\t// in\n    tag_87:\n      pop\n      0xa0\n      dup3\n      add\n      mload\n      dup2\n      0x05\n      add\n      swap1\n      dup2\n      tag_88\n      swap2\n      swap1\n      tag_83\n      jump\t// in\n    tag_88:\n      pop\n      0xc0\n      dup3\n      add\n      mload\n      dup2\n      0x06\n      add\n      exp(0x0100, 0x00)\n      dup2\n      sload\n      dup2\n      0xff\n      mul\n      not\n      and\n      swap1\n      dup4\n      0x00\n      signextend\n      0xff\n      and\n      mul\n      or\n      swap1\n      sstore\n      pop\n      0xe0\n      dup3\n      add\n      mload\n      dup2\n      0x06\n      add\n      exp(0x0100, 0x01)\n      dup2\n      sload\n      dup2\n      0xffffffffffffffffffffffffffffffffffffffff\n      mul\n      not\n      and\n      swap1\n      dup4\n      0xffffffffffffffffffffffffffffffffffffffff\n      and\n      mul\n      or\n      swap1\n      sstore\n      pop\n      swap1\n      pop\n      pop\n        /* \"tc_avax.sol\":1754:1983  newData(_date,... */\n      0x870247eb151fd35c4907322d059c22cbe7eb7930b7b7116d4a107cbbb5378d12\n        /* \"tc_avax.sol\":1762:1767  _date */\n      dup9\n        /* \"tc_avax.sol\":1789:1803  _delivery_date */\n      dup9\n        /* \"tc_avax.sol\":1825:1833  _product */\n      dup9\n        /* \"tc_avax.sol\":1855:1861  _price */\n      dup9\n        /* \"tc_avax.sol\":1883:1888  _code */\n      dup9\n        /* \"tc_avax.sol\":1910:1921  _cel_number */\n      dup9\n        /* \"tc_avax.sol\":1943:1950  _status */\n      dup9\n        /* \"tc_avax.sol\":1972:1982  msg.sender */\n      caller\n        /* \"tc_avax.sol\":1754:1983  newData(_date,... */\n      mload(0x40)\n      tag_89\n      swap9\n      swap8\n      swap7\n      swap6\n      swap5\n      swap4\n      swap3\n      swap2\n      swap1\n      tag_19\n      jump\t// in\n    tag_89:\n      mload(0x40)\n      dup1\n      swap2\n      sub\n      swap1\n      log1\n        /* \"tc_avax.sol\":1117:1990  function pushData(string memory _date,... */\n      pop\n      pop\n      pop\n      pop\n      pop\n      pop\n      pop\n      pop\n      jump\t// out\n        /* \"tc_avax.sol\":125:153  address payable public owner */\n    tag_26:\n      0x00\n      dup1\n      sload\n      swap1\n      0x0100\n      exp\n      swap1\n      div\n      0xffffffffffffffffffffffffffffffffffffffff\n      and\n      dup2\n      jump\t// out\n        /* \"#utility.yul\":7:84   */\n    tag_90:\n        /* \"#utility.yul\":44:51   */\n      0x00\n        /* \"#utility.yul\":73:78   */\n      dup2\n        /* \"#utility.yul\":62:78   */\n      swap1\n      pop\n        /* \"#utility.yul\":7:84   */\n      swap2\n      swap1\n      pop\n      jump\t// out\n        /* \"#utility.yul\":90:208   */\n    tag_91:\n        /* \"#utility.yul\":177:201   */\n      tag_148\n        /* \"#utility.yul\":195:200   */\n      dup2\n        /* \"#utility.yul\":177:201   */\n      tag_90\n      jump\t// in\n    tag_148:\n        /* \"#utility.yul\":172:175   */\n      dup3\n        /* \"#utility.yul\":165:202   */\n      mstore\n        /* \"#utility.yul\":90:208   */\n      pop\n      pop\n      jump\t// out\n        /* \"#utility.yul\":214:436   */\n    tag_11:\n        /* \"#utility.yul\":307:311   */\n      0x00\n        /* \"#utility.yul\":345:347   */\n      0x20\n        /* \"#utility.yul\":334:343   */\n      dup3\n        /* \"#utility.yul\":330:348   */\n      add\n        /* \"#utility.yul\":322:348   */\n      swap1\n      pop\n        /* \"#utility.yul\":358:429   */\n      tag_150\n        /* \"#utility.yul\":426:427   */\n      0x00\n        /* \"#utility.yul\":415:424   */\n      dup4\n        /* \"#utility.yul\":411:428   */\n      add\n        /* \"#utility.yul\":402:408   */\n      dup5\n        /* \"#utility.yul\":358:429   */\n      tag_91\n      jump\t// in\n    tag_150:\n        /* \"#utility.yul\":214:436   */\n      swap3\n      swap2\n      pop\n      pop\n      jump\t// out\n        /* \"#utility.yul\":442:541   */\n    tag_92:\n        /* \"#utility.yul\":494:500   */\n      0x00\n        /* \"#utility.yul\":528:533   */\n      dup2\n        /* \"#utility.yul\":522:534   */\n      mload\n        /* \"#utility.yul\":512:534   */\n      swap1\n      pop\n        /* \"#utility.yul\":442:541   */\n      swap2\n      swap1\n      pop\n      jump\t// out\n        /* \"#utility.yul\":547:716   */\n    tag_93:\n        /* \"#utility.yul\":631:642   */\n      0x00\n        /* \"#utility.yul\":665:671   */\n      dup3\n        /* \"#utility.yul\":660:663   */\n      dup3\n        /* \"#utility.yul\":653:672   */\n      mstore\n        /* \"#utility.yul\":705:709   */\n      0x20\n        /* \"#utility.yul\":700:703   */\n      dup3\n        /* \"#utility.yul\":696:710   */\n      add\n        /* \"#utility.yul\":681:710   */\n      swap1\n      pop\n        /* \"#utility.yul\":547:716   */\n      swap3\n      swap2\n      pop\n      pop\n      jump\t// out\n        /* \"#utility.yul\":722:861   */\n    tag_94:\n        /* \"#utility.yul\":811:817   */\n      dup3\n        /* \"#utility.yul\":806:809   */\n      dup2\n        /* \"#utility.yul\":801:804   */\n      dup4\n        /* \"#utility.yul\":795:818   */\n      mcopy\n        /* \"#utility.yul\":852:853   */\n      0x00\n        /* \"#utility.yul\":843:849   */\n      dup4\n        /* \"#utility.yul\":838:841   */\n      dup4\n        /* \"#utility.yul\":834:850   */\n      add\n        /* \"#utility.yul\":827:854   */\n      mstore\n        /* \"#utility.yul\":722:861   */\n      pop\n      pop\n      pop\n      jump\t// out\n        /* \"#utility.yul\":867:969   */\n    tag_95:\n        /* \"#utility.yul\":908:914   */\n      0x00\n        /* \"#utility.yul\":959:961   */\n      0x1f\n        /* \"#utility.yul\":955:962   */\n      not\n        /* \"#utility.yul\":950:952   */\n      0x1f\n        /* \"#utility.yul\":943:948   */\n      dup4\n        /* \"#utility.yul\":939:953   */\n      add\n        /* \"#utility.yul\":935:963   */\n      and\n        /* \"#utility.yul\":925:963   */\n      swap1\n      pop\n        /* \"#utility.yul\":867:969   */\n      swap2\n      swap1\n      pop\n      jump\t// out\n        /* \"#utility.yul\":975:1352   */\n    tag_96:\n        /* \"#utility.yul\":1063:1066   */\n      0x00\n        /* \"#utility.yul\":1091:1130   */\n      tag_156\n        /* \"#utility.yul\":1124:1129   */\n      dup3\n        /* \"#utility.yul\":1091:1130   */\n      tag_92\n      jump\t// in\n    tag_156:\n        /* \"#utility.yul\":1146:1217   */\n      tag_157\n        /* \"#utility.yul\":1210:1216   */\n      dup2\n        /* \"#utility.yul\":1205:1208   */\n      dup6\n        /* \"#utility.yul\":1146:1217   */\n      tag_93\n      jump\t// in\n    tag_157:\n        /* \"#utility.yul\":1139:1217   */\n      swap4\n      pop\n        /* \"#utility.yul\":1226:1291   */\n      tag_158\n        /* \"#utility.yul\":1284:1290   */\n      dup2\n        /* \"#utility.yul\":1279:1282   */\n      dup6\n        /* \"#utility.yul\":1272:1276   */\n      0x20\n        /* \"#utility.yul\":1265:1270   */\n      dup7\n        /* \"#utility.yul\":1261:1277   */\n      add\n        /* \"#utility.yul\":1226:1291   */\n      tag_94\n      jump\t// in\n    tag_158:\n        /* \"#utility.yul\":1316:1345   */\n      tag_159\n        /* \"#utility.yul\":1338:1344   */\n      dup2\n        /* \"#utility.yul\":1316:1345   */\n      tag_95\n      jump\t// in\n    tag_159:\n        /* \"#utility.yul\":1311:1314   */\n      dup5\n        /* \"#utility.yul\":1307:1346   */\n      add\n        /* \"#utility.yul\":1300:1346   */\n      swap2\n      pop\n        /* \"#utility.yul\":1067:1352   */\n      pop\n        /* \"#utility.yul\":975:1352   */\n      swap3\n      swap2\n      pop\n      pop\n      jump\t// out\n        /* \"#utility.yul\":1358:1447   */\n    tag_97:\n        /* \"#utility.yul\":1392:1399   */\n      0x00\n        /* \"#utility.yul\":1435:1440   */\n      dup2\n        /* \"#utility.yul\":1432:1433   */\n      0x00\n        /* \"#utility.yul\":1421:1441   */\n      signextend\n        /* \"#utility.yul\":1410:1441   */\n      swap1\n      pop\n        /* \"#utility.yul\":1358:1447   */\n      swap2\n      swap1\n      pop\n      jump\t// out\n        /* \"#utility.yul\":1453:1562   */\n    tag_98:\n        /* \"#utility.yul\":1534:1555   */\n      tag_162\n        /* \"#utility.yul\":1549:1554   */\n      dup2\n        /* \"#utility.yul\":1534:1555   */\n      tag_97\n      jump\t// in\n    tag_162:\n        /* \"#utility.yul\":1529:1532   */\n      dup3\n        /* \"#utility.yul\":1522:1556   */\n      mstore\n        /* \"#utility.yul\":1453:1562   */\n      pop\n      pop\n      jump\t// out\n        /* \"#utility.yul\":1568:1694   */\n    tag_99:\n        /* \"#utility.yul\":1605:1612   */\n      0x00\n        /* \"#utility.yul\":1645:1687   */\n      0xffffffffffffffffffffffffffffffffffffffff\n        /* \"#utility.yul\":1638:1643   */\n      dup3\n        /* \"#utility.yul\":1634:1688   */\n      and\n        /* \"#utility.yul\":1623:1688   */\n      swap1\n      pop\n        /* \"#utility.yul\":1568:1694   */\n      swap2\n      swap1\n      pop\n      jump\t// out\n        /* \"#utility.yul\":1700:1796   */\n    tag_100:\n        /* \"#utility.yul\":1737:1744   */\n      0x00\n        /* \"#utility.yul\":1766:1790   */\n      tag_165\n        /* \"#utility.yul\":1784:1789   */\n      dup3\n        /* \"#utility.yul\":1766:1790   */\n      tag_99\n      jump\t// in\n    tag_165:\n        /* \"#utility.yul\":1755:1790   */\n      swap1\n      pop\n        /* \"#utility.yul\":1700:1796   */\n      swap2\n      swap1\n      pop\n      jump\t// out\n        /* \"#utility.yul\":1802:1920   */\n    tag_101:\n        /* \"#utility.yul\":1889:1913   */\n      tag_167\n        /* \"#utility.yul\":1907:1912   */\n      dup2\n        /* \"#utility.yul\":1889:1913   */\n      tag_100\n      jump\t// in\n    tag_167:\n        /* \"#utility.yul\":1884:1887   */\n      dup3\n        /* \"#utility.yul\":1877:1914   */\n      mstore\n        /* \"#utility.yul\":1802:1920   */\n      pop\n      pop\n      jump\t// out\n        /* \"#utility.yul\":1926:3457   */\n    tag_19:\n        /* \"#utility.yul\":2329:2333   */\n      0x00\n        /* \"#utility.yul\":2367:2370   */\n      0x0100\n        /* \"#utility.yul\":2356:2365   */\n      dup3\n        /* \"#utility.yul\":2352:2371   */\n      add\n        /* \"#utility.yul\":2344:2371   */\n      swap1\n      pop\n        /* \"#utility.yul\":2417:2426   */\n      dup2\n        /* \"#utility.yul\":2411:2415   */\n      dup2\n        /* \"#utility.yul\":2407:2427   */\n      sub\n        /* \"#utility.yul\":2403:2404   */\n      0x00\n        /* \"#utility.yul\":2392:2401   */\n      dup4\n        /* \"#utility.yul\":2388:2405   */\n      add\n        /* \"#utility.yul\":2381:2428   */\n      mstore\n        /* \"#utility.yul\":2445:2523   */\n      tag_169\n        /* \"#utility.yul\":2518:2522   */\n      dup2\n        /* \"#utility.yul\":2509:2515   */\n      dup12\n        /* \"#utility.yul\":2445:2523   */\n      tag_96\n      jump\t// in\n    tag_169:\n        /* \"#utility.yul\":2437:2523   */\n      swap1\n      pop\n        /* \"#utility.yul\":2570:2579   */\n      dup2\n        /* \"#utility.yul\":2564:2568   */\n      dup2\n        /* \"#utility.yul\":2560:2580   */\n      sub\n        /* \"#utility.yul\":2555:2557   */\n      0x20\n        /* \"#utility.yul\":2544:2553   */\n      dup4\n        /* \"#utility.yul\":2540:2558   */\n      add\n        /* \"#utility.yul\":2533:2581   */\n      mstore\n        /* \"#utility.yul\":2598:2676   */\n      tag_170\n        /* \"#utility.yul\":2671:2675   */\n      dup2\n        /* \"#utility.yul\":2662:2668   */\n      dup11\n        /* \"#utility.yul\":2598:2676   */\n      tag_96\n      jump\t// in\n    tag_170:\n        /* \"#utility.yul\":2590:2676   */\n      swap1\n      pop\n        /* \"#utility.yul\":2723:2732   */\n      dup2\n        /* \"#utility.yul\":2717:2721   */\n      dup2\n        /* \"#utility.yul\":2713:2733   */\n      sub\n        /* \"#utility.yul\":2708:2710   */\n      0x40\n        /* \"#utility.yul\":2697:2706   */\n      dup4\n        /* \"#utility.yul\":2693:2711   */\n      add\n        /* \"#utility.yul\":2686:2734   */\n      mstore\n        /* \"#utility.yul\":2751:2829   */\n      tag_171\n        /* \"#utility.yul\":2824:2828   */\n      dup2\n        /* \"#utility.yul\":2815:2821   */\n      dup10\n        /* \"#utility.yul\":2751:2829   */\n      tag_96\n      jump\t// in\n    tag_171:\n        /* \"#utility.yul\":2743:2829   */\n      swap1\n      pop\n        /* \"#utility.yul\":2876:2885   */\n      dup2\n        /* \"#utility.yul\":2870:2874   */\n      dup2\n        /* \"#utility.yul\":2866:2886   */\n      sub\n        /* \"#utility.yul\":2861:2863   */\n      0x60\n        /* \"#utility.yul\":2850:2859   */\n      dup4\n        /* \"#utility.yul\":2846:2864   */\n      add\n        /* \"#utility.yul\":2839:2887   */\n      mstore\n        /* \"#utility.yul\":2904:2982   */\n      tag_172\n        /* \"#utility.yul\":2977:2981   */\n      dup2\n        /* \"#utility.yul\":2968:2974   */\n      dup9\n        /* \"#utility.yul\":2904:2982   */\n      tag_96\n      jump\t// in\n    tag_172:\n        /* \"#utility.yul\":2896:2982   */\n      swap1\n      pop\n        /* \"#utility.yul\":3030:3039   */\n      dup2\n        /* \"#utility.yul\":3024:3028   */\n      dup2\n        /* \"#utility.yul\":3020:3040   */\n      sub\n        /* \"#utility.yul\":3014:3017   */\n      0x80\n        /* \"#utility.yul\":3003:3012   */\n      dup4\n        /* \"#utility.yul\":2999:3018   */\n      add\n        /* \"#utility.yul\":2992:3041   */\n      mstore\n        /* \"#utility.yul\":3058:3136   */\n      tag_173\n        /* \"#utility.yul\":3131:3135   */\n      dup2\n        /* \"#utility.yul\":3122:3128   */\n      dup8\n        /* \"#utility.yul\":3058:3136   */\n      tag_96\n      jump\t// in\n    tag_173:\n        /* \"#utility.yul\":3050:3136   */\n      swap1\n      pop\n        /* \"#utility.yul\":3184:3193   */\n      dup2\n        /* \"#utility.yul\":3178:3182   */\n      dup2\n        /* \"#utility.yul\":3174:3194   */\n      sub\n        /* \"#utility.yul\":3168:3171   */\n      0xa0\n        /* \"#utility.yul\":3157:3166   */\n      dup4\n        /* \"#utility.yul\":3153:3172   */\n      add\n        /* \"#utility.yul\":3146:3195   */\n      mstore\n        /* \"#utility.yul\":3212:3290   */\n      tag_174\n        /* \"#utility.yul\":3285:3289   */\n      dup2\n        /* \"#utility.yul\":3276:3282   */\n      dup7\n        /* \"#utility.yul\":3212:3290   */\n      tag_96\n      jump\t// in\n    tag_174:\n        /* \"#utility.yul\":3204:3290   */\n      swap1\n      pop\n        /* \"#utility.yul\":3300:3367   */\n      tag_175\n        /* \"#utility.yul\":3362:3365   */\n      0xc0\n        /* \"#utility.yul\":3351:3360   */\n      dup4\n        /* \"#utility.yul\":3347:3366   */\n      add\n        /* \"#utility.yul\":3338:3344   */\n      dup6\n        /* \"#utility.yul\":3300:3367   */\n      tag_98\n      jump\t// in\n    tag_175:\n        /* \"#utility.yul\":3377:3450   */\n      tag_176\n        /* \"#utility.yul\":3445:3448   */\n      0xe0\n        /* \"#utility.yul\":3434:3443   */\n      dup4\n        /* \"#utility.yul\":3430:3449   */\n      add\n        /* \"#utility.yul\":3421:3427   */\n      dup5\n        /* \"#utility.yul\":3377:3450   */\n      tag_101\n      jump\t// in\n    tag_176:\n        /* \"#utility.yul\":1926:3457   */\n      swap10\n      swap9\n      pop\n      pop\n      pop\n      pop\n      pop\n      pop\n      pop\n      pop\n      pop\n      jump\t// out\n        /* \"#utility.yul\":3463:3538   */\n    tag_102:\n        /* \"#utility.yul\":3496:3502   */\n      0x00\n        /* \"#utility.yul\":3529:3531   */\n      0x40\n        /* \"#utility.yul\":3523:3532   */\n      mload\n        /* \"#utility.yul\":3513:3532   */\n      swap1\n      pop\n        /* \"#utility.yul\":3463:3538   */\n      swap1\n      jump\t// out\n        /* \"#utility.yul\":3544:3661   */\n    tag_103:\n        /* \"#utility.yul\":3653:3654   */\n      0x00\n        /* \"#utility.yul\":3650:3651   */\n      dup1\n        /* \"#utility.yul\":3643:3655   */\n      revert\n        /* \"#utility.yul\":3667:3784   */\n    tag_104:\n        /* \"#utility.yul\":3776:3777   */\n      0x00\n        /* \"#utility.yul\":3773:3774   */\n      dup1\n        /* \"#utility.yul\":3766:3778   */\n      revert\n        /* \"#utility.yul\":3790:3907   */\n    tag_105:\n        /* \"#utility.yul\":3899:3900   */\n      0x00\n        /* \"#utility.yul\":3896:3897   */\n      dup1\n        /* \"#utility.yul\":3889:3901   */\n      revert\n        /* \"#utility.yul\":3913:4030   */\n    tag_106:\n        /* \"#utility.yul\":4022:4023   */\n      0x00\n        /* \"#utility.yul\":4019:4020   */\n      dup1\n        /* \"#utility.yul\":4012:4024   */\n      revert\n        /* \"#utility.yul\":4036:4216   */\n    tag_107:\n        /* \"#utility.yul\":4084:4161   */\n      0x4e487b7100000000000000000000000000000000000000000000000000000000\n        /* \"#utility.yul\":4081:4082   */\n      0x00\n        /* \"#utility.yul\":4074:4162   */\n      mstore\n        /* \"#utility.yul\":4181:4185   */\n      0x41\n        /* \"#utility.yul\":4178:4179   */\n      0x04\n        /* \"#utility.yul\":4171:4186   */\n      mstore\n        /* \"#utility.yul\":4205:4209   */\n      0x24\n        /* \"#utility.yul\":4202:4203   */\n      0x00\n        /* \"#utility.yul\":4195:4210   */\n      revert\n        /* \"#utility.yul\":4222:4503   */\n    tag_108:\n        /* \"#utility.yul\":4305:4332   */\n      tag_184\n        /* \"#utility.yul\":4327:4331   */\n      dup3\n        /* \"#utility.yul\":4305:4332   */\n      tag_95\n      jump\t// in\n    tag_184:\n        /* \"#utility.yul\":4297:4303   */\n      dup2\n        /* \"#utility.yul\":4293:4333   */\n      add\n        /* \"#utility.yul\":4435:4441   */\n      dup2\n        /* \"#utility.yul\":4423:4433   */\n      dup2\n        /* \"#utility.yul\":4420:4442   */\n      lt\n        /* \"#utility.yul\":4399:4417   */\n      0xffffffffffffffff\n        /* \"#utility.yul\":4387:4397   */\n      dup3\n        /* \"#utility.yul\":4384:4418   */\n      gt\n        /* \"#utility.yul\":4381:4443   */\n      or\n        /* \"#utility.yul\":4378:4466   */\n      iszero\n      tag_185\n      jumpi\n        /* \"#utility.yul\":4446:4464   */\n      tag_186\n      tag_107\n      jump\t// in\n    tag_186:\n        /* \"#utility.yul\":4378:4466   */\n    tag_185:\n        /* \"#utility.yul\":4486:4496   */\n      dup1\n        /* \"#utility.yul\":4482:4484   */\n      0x40\n        /* \"#utility.yul\":4475:4497   */\n      mstore\n        /* \"#utility.yul\":4265:4503   */\n      pop\n        /* \"#utility.yul\":4222:4503   */\n      pop\n      pop\n      jump\t// out\n        /* \"#utility.yul\":4509:4638   */\n    tag_109:\n        /* \"#utility.yul\":4543:4549   */\n      0x00\n        /* \"#utility.yul\":4570:4590   */\n      tag_188\n      tag_102\n      jump\t// in\n    tag_188:\n        /* \"#utility.yul\":4560:4590   */\n      swap1\n      pop\n        /* \"#utility.yul\":4599:4632   */\n      tag_189\n        /* \"#utility.yul\":4627:4631   */\n      dup3\n        /* \"#utility.yul\":4619:4625   */\n      dup3\n        /* \"#utility.yul\":4599:4632   */\n      tag_108\n      jump\t// in\n    tag_189:\n        /* \"#utility.yul\":4509:4638   */\n      swap2\n      swap1\n      pop\n      jump\t// out\n        /* \"#utility.yul\":4644:4952   */\n    tag_110:\n        /* \"#utility.yul\":4706:4710   */\n      0x00\n        /* \"#utility.yul\":4796:4814   */\n      0xffffffffffffffff\n        /* \"#utility.yul\":4788:4794   */\n      dup3\n        /* \"#utility.yul\":4785:4815   */\n      gt\n        /* \"#utility.yul\":4782:4838   */\n      iszero\n      tag_191\n      jumpi\n        /* \"#utility.yul\":4818:4836   */\n      tag_192\n      tag_107\n      jump\t// in\n    tag_192:\n        /* \"#utility.yul\":4782:4838   */\n    tag_191:\n        /* \"#utility.yul\":4856:4885   */\n      tag_193\n        /* \"#utility.yul\":4878:4884   */\n      dup3\n        /* \"#utility.yul\":4856:4885   */\n      tag_95\n      jump\t// in\n    tag_193:\n        /* \"#utility.yul\":4848:4885   */\n      swap1\n      pop\n        /* \"#utility.yul\":4940:4944   */\n      0x20\n        /* \"#utility.yul\":4934:4938   */\n      dup2\n        /* \"#utility.yul\":4930:4945   */\n      add\n        /* \"#utility.yul\":4922:4945   */\n      swap1\n      pop\n        /* \"#utility.yul\":4644:4952   */\n      swap2\n      swap1\n      pop\n      jump\t// out\n        /* \"#utility.yul\":4958:5106   */\n    tag_111:\n        /* \"#utility.yul\":5056:5062   */\n      dup3\n        /* \"#utility.yul\":5051:5054   */\n      dup2\n        /* \"#utility.yul\":5046:5049   */\n      dup4\n        /* \"#utility.yul\":5033:5063   */\n      calldatacopy\n        /* \"#utility.yul\":5097:5098   */\n      0x00\n        /* \"#utility.yul\":5088:5094   */\n      dup4\n        /* \"#utility.yul\":5083:5086   */\n      dup4\n        /* \"#utility.yul\":5079:5095   */\n      add\n        /* \"#utility.yul\":5072:5099   */\n      mstore\n        /* \"#utility.yul\":4958:5106   */\n      pop\n      pop\n      pop\n      jump\t// out\n        /* \"#utility.yul\":5112:5537   */\n    tag_112:\n        /* \"#utility.yul\":5190:5195   */\n      0x00\n        /* \"#utility.yul\":5215:5281   */\n      tag_196\n        /* \"#utility.yul\":5231:5280   */\n      tag_197\n        /* \"#utility.yul\":5273:5279   */\n      dup5\n        /* \"#utility.yul\":5231:5280   */\n      tag_110\n      jump\t// in\n    tag_197:\n        /* \"#utility.yul\":5215:5281   */\n      tag_109\n      jump\t// in\n    tag_196:\n        /* \"#utility.yul\":5206:5281   */\n      swap1\n      pop\n        /* \"#utility.yul\":5304:5310   */\n      dup3\n        /* \"#utility.yul\":5297:5302   */\n      dup2\n        /* \"#utility.yul\":5290:5311   */\n      mstore\n        /* \"#utility.yul\":5342:5346   */\n      0x20\n        /* \"#utility.yul\":5335:5340   */\n      dup2\n        /* \"#utility.yul\":5331:5347   */\n      add\n        /* \"#utility.yul\":5380:5383   */\n      dup5\n        /* \"#utility.yul\":5371:5377   */\n      dup5\n        /* \"#utility.yul\":5366:5369   */\n      dup5\n        /* \"#utility.yul\":5362:5378   */\n      add\n        /* \"#utility.yul\":5359:5384   */\n      gt\n        /* \"#utility.yul\":5356:5468   */\n      iszero\n      tag_198\n      jumpi\n        /* \"#utility.yul\":5387:5466   */\n      tag_199\n      tag_106\n      jump\t// in\n    tag_199:\n        /* \"#utility.yul\":5356:5468   */\n    tag_198:\n        /* \"#utility.yul\":5477:5531   */\n      tag_200\n        /* \"#utility.yul\":5524:5530   */\n      dup5\n        /* \"#utility.yul\":5519:5522   */\n      dup3\n        /* \"#utility.yul\":5514:5517   */\n      dup6\n        /* \"#utility.yul\":5477:5531   */\n      tag_111\n      jump\t// in\n    tag_200:\n        /* \"#utility.yul\":5196:5537   */\n      pop\n        /* \"#utility.yul\":5112:5537   */\n      swap4\n      swap3\n      pop\n      pop\n      pop\n      jump\t// out\n        /* \"#utility.yul\":5557:5897   */\n    tag_113:\n        /* \"#utility.yul\":5613:5618   */\n      0x00\n        /* \"#utility.yul\":5662:5665   */\n      dup3\n        /* \"#utility.yul\":5655:5659   */\n      0x1f\n        /* \"#utility.yul\":5647:5653   */\n      dup4\n        /* \"#utility.yul\":5643:5660   */\n      add\n        /* \"#utility.yul\":5639:5666   */\n      slt\n        /* \"#utility.yul\":5629:5751   */\n      tag_202\n      jumpi\n        /* \"#utility.yul\":5670:5749   */\n      tag_203\n      tag_105\n      jump\t// in\n    tag_203:\n        /* \"#utility.yul\":5629:5751   */\n    tag_202:\n        /* \"#utility.yul\":5787:5793   */\n      dup2\n        /* \"#utility.yul\":5774:5794   */\n      calldataload\n        /* \"#utility.yul\":5812:5891   */\n      tag_204\n        /* \"#utility.yul\":5887:5890   */\n      dup5\n        /* \"#utility.yul\":5879:5885   */\n      dup3\n        /* \"#utility.yul\":5872:5876   */\n      0x20\n        /* \"#utility.yul\":5864:5870   */\n      dup7\n        /* \"#utility.yul\":5860:5877   */\n      add\n        /* \"#utility.yul\":5812:5891   */\n      tag_112\n      jump\t// in\n    tag_204:\n        /* \"#utility.yul\":5803:5891   */\n      swap2\n      pop\n        /* \"#utility.yul\":5619:5897   */\n      pop\n        /* \"#utility.yul\":5557:5897   */\n      swap3\n      swap2\n      pop\n      pop\n      jump\t// out\n        /* \"#utility.yul\":5903:6019   */\n    tag_114:\n        /* \"#utility.yul\":5973:5994   */\n      tag_206\n        /* \"#utility.yul\":5988:5993   */\n      dup2\n        /* \"#utility.yul\":5973:5994   */\n      tag_97\n      jump\t// in\n    tag_206:\n        /* \"#utility.yul\":5966:5971   */\n      dup2\n        /* \"#utility.yul\":5963:5995   */\n      eq\n        /* \"#utility.yul\":5953:6013   */\n      tag_207\n      jumpi\n        /* \"#utility.yul\":6009:6010   */\n      0x00\n        /* \"#utility.yul\":6006:6007   */\n      dup1\n        /* \"#utility.yul\":5999:6011   */\n      revert\n        /* \"#utility.yul\":5953:6013   */\n    tag_207:\n        /* \"#utility.yul\":5903:6019   */\n      pop\n      jump\t// out\n        /* \"#utility.yul\":6025:6158   */\n    tag_115:\n        /* \"#utility.yul\":6068:6073   */\n      0x00\n        /* \"#utility.yul\":6106:6112   */\n      dup2\n        /* \"#utility.yul\":6093:6113   */\n      calldataload\n        /* \"#utility.yul\":6084:6113   */\n      swap1\n      pop\n        /* \"#utility.yul\":6122:6152   */\n      tag_209\n        /* \"#utility.yul\":6146:6151   */\n      dup2\n        /* \"#utility.yul\":6122:6152   */\n      tag_114\n      jump\t// in\n    tag_209:\n        /* \"#utility.yul\":6025:6158   */\n      swap3\n      swap2\n      pop\n      pop\n      jump\t// out\n        /* \"#utility.yul\":6164:8441   */\n    tag_22:\n        /* \"#utility.yul\":6334:6340   */\n      0x00\n        /* \"#utility.yul\":6342:6348   */\n      dup1\n        /* \"#utility.yul\":6350:6356   */\n      0x00\n        /* \"#utility.yul\":6358:6364   */\n      dup1\n        /* \"#utility.yul\":6366:6372   */\n      0x00\n        /* \"#utility.yul\":6374:6380   */\n      dup1\n        /* \"#utility.yul\":6382:6388   */\n      0x00\n        /* \"#utility.yul\":6431:6434   */\n      0xe0\n        /* \"#utility.yul\":6419:6428   */\n      dup9\n        /* \"#utility.yul\":6410:6417   */\n      dup11\n        /* \"#utility.yul\":6406:6429   */\n      sub\n        /* \"#utility.yul\":6402:6435   */\n      slt\n        /* \"#utility.yul\":6399:6519   */\n      iszero\n      tag_211\n      jumpi\n        /* \"#utility.yul\":6438:6517   */\n      tag_212\n      tag_103\n      jump\t// in\n    tag_212:\n        /* \"#utility.yul\":6399:6519   */\n    tag_211:\n        /* \"#utility.yul\":6586:6587   */\n      0x00\n        /* \"#utility.yul\":6575:6584   */\n      dup9\n        /* \"#utility.yul\":6571:6588   */\n      add\n        /* \"#utility.yul\":6558:6589   */\n      calldataload\n        /* \"#utility.yul\":6616:6634   */\n      0xffffffffffffffff\n        /* \"#utility.yul\":6608:6614   */\n      dup2\n        /* \"#utility.yul\":6605:6635   */\n      gt\n        /* \"#utility.yul\":6602:6719   */\n      iszero\n      tag_213\n      jumpi\n        /* \"#utility.yul\":6638:6717   */\n      tag_214\n      tag_104\n      jump\t// in\n    tag_214:\n        /* \"#utility.yul\":6602:6719   */\n    tag_213:\n        /* \"#utility.yul\":6743:6806   */\n      tag_215\n        /* \"#utility.yul\":6798:6805   */\n      dup11\n        /* \"#utility.yul\":6789:6795   */\n      dup3\n        /* \"#utility.yul\":6778:6787   */\n      dup12\n        /* \"#utility.yul\":6774:6796   */\n      add\n        /* \"#utility.yul\":6743:6806   */\n      tag_113\n      jump\t// in\n    tag_215:\n        /* \"#utility.yul\":6733:6806   */\n      swap8\n      pop\n        /* \"#utility.yul\":6529:6816   */\n      pop\n        /* \"#utility.yul\":6883:6885   */\n      0x20\n        /* \"#utility.yul\":6872:6881   */\n      dup9\n        /* \"#utility.yul\":6868:6886   */\n      add\n        /* \"#utility.yul\":6855:6887   */\n      calldataload\n        /* \"#utility.yul\":6914:6932   */\n      0xffffffffffffffff\n        /* \"#utility.yul\":6906:6912   */\n      dup2\n        /* \"#utility.yul\":6903:6933   */\n      gt\n        /* \"#utility.yul\":6900:7017   */\n      iszero\n      tag_216\n      jumpi\n        /* \"#utility.yul\":6936:7015   */\n      tag_217\n      tag_104\n      jump\t// in\n    tag_217:\n        /* \"#utility.yul\":6900:7017   */\n    tag_216:\n        /* \"#utility.yul\":7041:7104   */\n      tag_218\n        /* \"#utility.yul\":7096:7103   */\n      dup11\n        /* \"#utility.yul\":7087:7093   */\n      dup3\n        /* \"#utility.yul\":7076:7085   */\n      dup12\n        /* \"#utility.yul\":7072:7094   */\n      add\n        /* \"#utility.yul\":7041:7104   */\n      tag_113\n      jump\t// in\n    tag_218:\n        /* \"#utility.yul\":7031:7104   */\n      swap7\n      pop\n        /* \"#utility.yul\":6826:7114   */\n      pop\n        /* \"#utility.yul\":7181:7183   */\n      0x40\n        /* \"#utility.yul\":7170:7179   */\n      dup9\n        /* \"#utility.yul\":7166:7184   */\n      add\n        /* \"#utility.yul\":7153:7185   */\n      calldataload\n        /* \"#utility.yul\":7212:7230   */\n      0xffffffffffffffff\n        /* \"#utility.yul\":7204:7210   */\n      dup2\n        /* \"#utility.yul\":7201:7231   */\n      gt\n        /* \"#utility.yul\":7198:7315   */\n      iszero\n      tag_219\n      jumpi\n        /* \"#utility.yul\":7234:7313   */\n      tag_220\n      tag_104\n      jump\t// in\n    tag_220:\n        /* \"#utility.yul\":7198:7315   */\n    tag_219:\n        /* \"#utility.yul\":7339:7402   */\n      tag_221\n        /* \"#utility.yul\":7394:7401   */\n      dup11\n        /* \"#utility.yul\":7385:7391   */\n      dup3\n        /* \"#utility.yul\":7374:7383   */\n      dup12\n        /* \"#utility.yul\":7370:7392   */\n      add\n        /* \"#utility.yul\":7339:7402   */\n      tag_113\n      jump\t// in\n    tag_221:\n        /* \"#utility.yul\":7329:7402   */\n      swap6\n      pop\n        /* \"#utility.yul\":7124:7412   */\n      pop\n        /* \"#utility.yul\":7479:7481   */\n      0x60\n        /* \"#utility.yul\":7468:7477   */\n      dup9\n        /* \"#utility.yul\":7464:7482   */\n      add\n        /* \"#utility.yul\":7451:7483   */\n      calldataload\n        /* \"#utility.yul\":7510:7528   */\n      0xffffffffffffffff\n        /* \"#utility.yul\":7502:7508   */\n      dup2\n        /* \"#utility.yul\":7499:7529   */\n      gt\n        /* \"#utility.yul\":7496:7613   */\n      iszero\n      tag_222\n      jumpi\n        /* \"#utility.yul\":7532:7611   */\n      tag_223\n      tag_104\n      jump\t// in\n    tag_223:\n        /* \"#utility.yul\":7496:7613   */\n    tag_222:\n        /* \"#utility.yul\":7637:7700   */\n      tag_224\n        /* \"#utility.yul\":7692:7699   */\n      dup11\n        /* \"#utility.yul\":7683:7689   */\n      dup3\n        /* \"#utility.yul\":7672:7681   */\n      dup12\n        /* \"#utility.yul\":7668:7690   */\n      add\n        /* \"#utility.yul\":7637:7700   */\n      tag_113\n      jump\t// in\n    tag_224:\n        /* \"#utility.yul\":7627:7700   */\n      swap5\n      pop\n        /* \"#utility.yul\":7422:7710   */\n      pop\n        /* \"#utility.yul\":7777:7780   */\n      0x80\n        /* \"#utility.yul\":7766:7775   */\n      dup9\n        /* \"#utility.yul\":7762:7781   */\n      add\n        /* \"#utility.yul\":7749:7782   */\n      calldataload\n        /* \"#utility.yul\":7809:7827   */\n      0xffffffffffffffff\n        /* \"#utility.yul\":7801:7807   */\n      dup2\n        /* \"#utility.yul\":7798:7828   */\n      gt\n        /* \"#utility.yul\":7795:7912   */\n      iszero\n      tag_225\n      jumpi\n        /* \"#utility.yul\":7831:7910   */\n      tag_226\n      tag_104\n      jump\t// in\n    tag_226:\n        /* \"#utility.yul\":7795:7912   */\n    tag_225:\n        /* \"#utility.yul\":7936:7999   */\n      tag_227\n        /* \"#utility.yul\":7991:7998   */\n      dup11\n        /* \"#utility.yul\":7982:7988   */\n      dup3\n        /* \"#utility.yul\":7971:7980   */\n      dup12\n        /* \"#utility.yul\":7967:7989   */\n      add\n        /* \"#utility.yul\":7936:7999   */\n      tag_113\n      jump\t// in\n    tag_227:\n        /* \"#utility.yul\":7926:7999   */\n      swap4\n      pop\n        /* \"#utility.yul\":7720:8009   */\n      pop\n        /* \"#utility.yul\":8076:8079   */\n      0xa0\n        /* \"#utility.yul\":8065:8074   */\n      dup9\n        /* \"#utility.yul\":8061:8080   */\n      add\n        /* \"#utility.yul\":8048:8081   */\n      calldataload\n        /* \"#utility.yul\":8108:8126   */\n      0xffffffffffffffff\n        /* \"#utility.yul\":8100:8106   */\n      dup2\n        /* \"#utility.yul\":8097:8127   */\n      gt\n        /* \"#utility.yul\":8094:8211   */\n      iszero\n      tag_228\n      jumpi\n        /* \"#utility.yul\":8130:8209   */\n      tag_229\n      tag_104\n      jump\t// in\n    tag_229:\n        /* \"#utility.yul\":8094:8211   */\n    tag_228:\n        /* \"#utility.yul\":8235:8298   */\n      tag_230\n        /* \"#utility.yul\":8290:8297   */\n      dup11\n        /* \"#utility.yul\":8281:8287   */\n      dup3\n        /* \"#utility.yul\":8270:8279   */\n      dup12\n        /* \"#utility.yul\":8266:8288   */\n      add\n        /* \"#utility.yul\":8235:8298   */\n      tag_113\n      jump\t// in\n    tag_230:\n        /* \"#utility.yul\":8225:8298   */\n      swap3\n      pop\n        /* \"#utility.yul\":8019:8308   */\n      pop\n        /* \"#utility.yul\":8347:8350   */\n      0xc0\n        /* \"#utility.yul\":8374:8424   */\n      tag_231\n        /* \"#utility.yul\":8416:8423   */\n      dup11\n        /* \"#utility.yul\":8407:8413   */\n      dup3\n        /* \"#utility.yul\":8396:8405   */\n      dup12\n        /* \"#utility.yul\":8392:8414   */\n      add\n        /* \"#utility.yul\":8374:8424   */\n      tag_115\n      jump\t// in\n    tag_231:\n        /* \"#utility.yul\":8364:8424   */\n      swap2\n      pop\n        /* \"#utility.yul\":8318:8434   */\n      pop\n        /* \"#utility.yul\":6164:8441   */\n      swap3\n      swap6\n      swap9\n      swap2\n      swap5\n      swap8\n      pop\n      swap3\n      swap6\n      pop\n      jump\t// out\n        /* \"#utility.yul\":8447:8551   */\n    tag_116:\n        /* \"#utility.yul\":8492:8499   */\n      0x00\n        /* \"#utility.yul\":8521:8545   */\n      tag_233\n        /* \"#utility.yul\":8539:8544   */\n      dup3\n        /* \"#utility.yul\":8521:8545   */\n      tag_99\n      jump\t// in\n    tag_233:\n        /* \"#utility.yul\":8510:8545   */\n      swap1\n      pop\n        /* \"#utility.yul\":8447:8551   */\n      swap2\n      swap1\n      pop\n      jump\t// out\n        /* \"#utility.yul\":8557:8699   */\n    tag_117:\n        /* \"#utility.yul\":8660:8692   */\n      tag_235\n        /* \"#utility.yul\":8686:8691   */\n      dup2\n        /* \"#utility.yul\":8660:8692   */\n      tag_116\n      jump\t// in\n    tag_235:\n        /* \"#utility.yul\":8655:8658   */\n      dup3\n        /* \"#utility.yul\":8648:8693   */\n      mstore\n        /* \"#utility.yul\":8557:8699   */\n      pop\n      pop\n      jump\t// out\n        /* \"#utility.yul\":8705:8959   */\n    tag_28:\n        /* \"#utility.yul\":8814:8818   */\n      0x00\n        /* \"#utility.yul\":8852:8854   */\n      0x20\n        /* \"#utility.yul\":8841:8850   */\n      dup3\n        /* \"#utility.yul\":8837:8855   */\n      add\n        /* \"#utility.yul\":8829:8855   */\n      swap1\n      pop\n        /* \"#utility.yul\":8865:8952   */\n      tag_237\n        /* \"#utility.yul\":8949:8950   */\n      0x00\n        /* \"#utility.yul\":8938:8947   */\n      dup4\n        /* \"#utility.yul\":8934:8951   */\n      add\n        /* \"#utility.yul\":8925:8931   */\n      dup5\n        /* \"#utility.yul\":8865:8952   */\n      tag_117\n      jump\t// in\n    tag_237:\n        /* \"#utility.yul\":8705:8959   */\n      swap3\n      swap2\n      pop\n      pop\n      jump\t// out\n        /* \"#utility.yul\":8965:9138   */\n    tag_118:\n        /* \"#utility.yul\":9105:9130   */\n      0x4f6e6c79206f776e65722063616e207769746864726177000000000000000000\n        /* \"#utility.yul\":9101:9102   */\n      0x00\n        /* \"#utility.yul\":9093:9099   */\n      dup3\n        /* \"#utility.yul\":9089:9103   */\n      add\n        /* \"#utility.yul\":9082:9131   */\n      mstore\n        /* \"#utility.yul\":8965:9138   */\n      pop\n      jump\t// out\n        /* \"#utility.yul\":9144:9510   */\n    tag_119:\n        /* \"#utility.yul\":9286:9289   */\n      0x00\n        /* \"#utility.yul\":9307:9374   */\n      tag_240\n        /* \"#utility.yul\":9371:9373   */\n      0x17\n        /* \"#utility.yul\":9366:9369   */\n      dup4\n        /* \"#utility.yul\":9307:9374   */\n      tag_93\n      jump\t// in\n    tag_240:\n        /* \"#utility.yul\":9300:9374   */\n      swap2\n      pop\n        /* \"#utility.yul\":9383:9476   */\n      tag_241\n        /* \"#utility.yul\":9472:9475   */\n      dup3\n        /* \"#utility.yul\":9383:9476   */\n      tag_118\n      jump\t// in\n    tag_241:\n        /* \"#utility.yul\":9501:9503   */\n      0x20\n        /* \"#utility.yul\":9496:9499   */\n      dup3\n        /* \"#utility.yul\":9492:9504   */\n      add\n        /* \"#utility.yul\":9485:9504   */\n      swap1\n      pop\n        /* \"#utility.yul\":9144:9510   */\n      swap2\n      swap1\n      pop\n      jump\t// out\n        /* \"#utility.yul\":9516:9935   */\n    tag_33:\n        /* \"#utility.yul\":9682:9686   */\n      0x00\n        /* \"#utility.yul\":9720:9722   */\n      0x20\n        /* \"#utility.yul\":9709:9718   */\n      dup3\n        /* \"#utility.yul\":9705:9723   */\n      add\n        /* \"#utility.yul\":9697:9723   */\n      swap1\n      pop\n        /* \"#utility.yul\":9769:9778   */\n      dup2\n        /* \"#utility.yul\":9763:9767   */\n      dup2\n        /* \"#utility.yul\":9759:9779   */\n      sub\n        /* \"#utility.yul\":9755:9756   */\n      0x00\n        /* \"#utility.yul\":9744:9753   */\n      dup4\n        /* \"#utility.yul\":9740:9757   */\n      add\n        /* \"#utility.yul\":9733:9780   */\n      mstore\n        /* \"#utility.yul\":9797:9928   */\n      tag_243\n        /* \"#utility.yul\":9923:9927   */\n      dup2\n        /* \"#utility.yul\":9797:9928   */\n      tag_119\n      jump\t// in\n    tag_243:\n        /* \"#utility.yul\":9789:9928   */\n      swap1\n      pop\n        /* \"#utility.yul\":9516:9935   */\n      swap2\n      swap1\n      pop\n      jump\t// out\n        /* \"#utility.yul\":9941:10111   */\n    tag_120:\n        /* \"#utility.yul\":10081:10103   */\n      0x4e6f2066756e647320746f207769746864726177000000000000000000000000\n        /* \"#utility.yul\":10077:10078   */\n      0x00\n        /* \"#utility.yul\":10069:10075   */\n      dup3\n        /* \"#utility.yul\":10065:10079   */\n      add\n        /* \"#utility.yul\":10058:10104   */\n      mstore\n        /* \"#utility.yul\":9941:10111   */\n      pop\n      jump\t// out\n        /* \"#utility.yul\":10117:10483   */\n    tag_121:\n        /* \"#utility.yul\":10259:10262   */\n      0x00\n        /* \"#utility.yul\":10280:10347   */\n      tag_246\n        /* \"#utility.yul\":10344:10346   */\n      0x14\n        /* \"#utility.yul\":10339:10342   */\n      dup4\n        /* \"#utility.yul\":10280:10347   */\n      tag_93\n      jump\t// in\n    tag_246:\n        /* \"#utility.yul\":10273:10347   */\n      swap2\n      pop\n        /* \"#utility.yul\":10356:10449   */\n      tag_247\n        /* \"#utility.yul\":10445:10448   */\n      dup3\n        /* \"#utility.yul\":10356:10449   */\n      tag_120\n      jump\t// in\n    tag_247:\n        /* \"#utility.yul\":10474:10476   */\n      0x20\n        /* \"#utility.yul\":10469:10472   */\n      dup3\n        /* \"#utility.yul\":10465:10477   */\n      add\n        /* \"#utility.yul\":10458:10477   */\n      swap1\n      pop\n        /* \"#utility.yul\":10117:10483   */\n      swap2\n      swap1\n      pop\n      jump\t// out\n        /* \"#utility.yul\":10489:10908   */\n    tag_37:\n        /* \"#utility.yul\":10655:10659   */\n      0x00\n        /* \"#utility.yul\":10693:10695   */\n      0x20\n        /* \"#utility.yul\":10682:10691   */\n      dup3\n        /* \"#utility.yul\":10678:10696   */\n      add\n        /* \"#utility.yul\":10670:10696   */\n      swap1\n      pop\n        /* \"#utility.yul\":10742:10751   */\n      dup2\n        /* \"#utility.yul\":10736:10740   */\n      dup2\n        /* \"#utility.yul\":10732:10752   */\n      sub\n        /* \"#utility.yul\":10728:10729   */\n      0x00\n        /* \"#utility.yul\":10717:10726   */\n      dup4\n        /* \"#utility.yul\":10713:10730   */\n      add\n        /* \"#utility.yul\":10706:10753   */\n      mstore\n        /* \"#utility.yul\":10770:10901   */\n      tag_249\n        /* \"#utility.yul\":10896:10900   */\n      dup2\n        /* \"#utility.yul\":10770:10901   */\n      tag_121\n      jump\t// in\n    tag_249:\n        /* \"#utility.yul\":10762:10901   */\n      swap1\n      pop\n        /* \"#utility.yul\":10489:10908   */\n      swap2\n      swap1\n      pop\n      jump\t// out\n        /* \"#utility.yul\":10914:11061   */\n    tag_122:\n        /* \"#utility.yul\":11015:11026   */\n      0x00\n        /* \"#utility.yul\":11052:11055   */\n      dup2\n        /* \"#utility.yul\":11037:11055   */\n      swap1\n      pop\n        /* \"#utility.yul\":10914:11061   */\n      swap3\n      swap2\n      pop\n      pop\n      jump\t// out\n        /* \"#utility.yul\":11067:11181   */\n    tag_123:\n      pop\n      jump\t// out\n        /* \"#utility.yul\":11187:11585   */\n    tag_124:\n        /* \"#utility.yul\":11346:11349   */\n      0x00\n        /* \"#utility.yul\":11367:11450   */\n      tag_253\n        /* \"#utility.yul\":11448:11449   */\n      0x00\n        /* \"#utility.yul\":11443:11446   */\n      dup4\n        /* \"#utility.yul\":11367:11450   */\n      tag_122\n      jump\t// in\n    tag_253:\n        /* \"#utility.yul\":11360:11450   */\n      swap2\n      pop\n        /* \"#utility.yul\":11459:11552   */\n      tag_254\n        /* \"#utility.yul\":11548:11551   */\n      dup3\n        /* \"#utility.yul\":11459:11552   */\n      tag_123\n      jump\t// in\n    tag_254:\n        /* \"#utility.yul\":11577:11578   */\n      0x00\n        /* \"#utility.yul\":11572:11575   */\n      dup3\n        /* \"#utility.yul\":11568:11579   */\n      add\n        /* \"#utility.yul\":11561:11579   */\n      swap1\n      pop\n        /* \"#utility.yul\":11187:11585   */\n      swap2\n      swap1\n      pop\n      jump\t// out\n        /* \"#utility.yul\":11591:11970   */\n    tag_39:\n        /* \"#utility.yul\":11775:11778   */\n      0x00\n        /* \"#utility.yul\":11797:11944   */\n      tag_256\n        /* \"#utility.yul\":11940:11943   */\n      dup3\n        /* \"#utility.yul\":11797:11944   */\n      tag_124\n      jump\t// in\n    tag_256:\n        /* \"#utility.yul\":11790:11944   */\n      swap2\n      pop\n        /* \"#utility.yul\":11961:11964   */\n      dup2\n        /* \"#utility.yul\":11954:11964   */\n      swap1\n      pop\n        /* \"#utility.yul\":11591:11970   */\n      swap2\n      swap1\n      pop\n      jump\t// out\n        /* \"#utility.yul\":11976:12141   */\n    tag_125:\n        /* \"#utility.yul\":12116:12133   */\n      0x5472616e73666572206661696c65640000000000000000000000000000000000\n        /* \"#utility.yul\":12112:12113   */\n      0x00\n        /* \"#utility.yul\":12104:12110   */\n      dup3\n        /* \"#utility.yul\":12100:12114   */\n      add\n        /* \"#utility.yul\":12093:12134   */\n      mstore\n        /* \"#utility.yul\":11976:12141   */\n      pop\n      jump\t// out\n        /* \"#utility.yul\":12147:12513   */\n    tag_126:\n        /* \"#utility.yul\":12289:12292   */\n      0x00\n        /* \"#utility.yul\":12310:12377   */\n      tag_259\n        /* \"#utility.yul\":12374:12376   */\n      0x0f\n        /* \"#utility.yul\":12369:12372   */\n      dup4\n        /* \"#utility.yul\":12310:12377   */\n      tag_93\n      jump\t// in\n    tag_259:\n        /* \"#utility.yul\":12303:12377   */\n      swap2\n      pop\n        /* \"#utility.yul\":12386:12479   */\n      tag_260\n        /* \"#utility.yul\":12475:12478   */\n      dup3\n        /* \"#utility.yul\":12386:12479   */\n      tag_125\n      jump\t// in\n    tag_260:\n        /* \"#utility.yul\":12504:12506   */\n      0x20\n        /* \"#utility.yul\":12499:12502   */\n      dup3\n        /* \"#utility.yul\":12495:12507   */\n      add\n        /* \"#utility.yul\":12488:12507   */\n      swap1\n      pop\n        /* \"#utility.yul\":12147:12513   */\n      swap2\n      swap1\n      pop\n      jump\t// out\n        /* \"#utility.yul\":12519:12938   */\n    tag_45:\n        /* \"#utility.yul\":12685:12689   */\n      0x00\n        /* \"#utility.yul\":12723:12725   */\n      0x20\n        /* \"#utility.yul\":12712:12721   */\n      dup3\n        /* \"#utility.yul\":12708:12726   */\n      add\n        /* \"#utility.yul\":12700:12726   */\n      swap1\n      pop\n        /* \"#utility.yul\":12772:12781   */\n      dup2\n        /* \"#utility.yul\":12766:12770   */\n      dup2\n        /* \"#utility.yul\":12762:12782   */\n      sub\n        /* \"#utility.yul\":12758:12759   */\n      0x00\n        /* \"#utility.yul\":12747:12756   */\n      dup4\n        /* \"#utility.yul\":12743:12760   */\n      add\n        /* \"#utility.yul\":12736:12783   */\n      mstore\n        /* \"#utility.yul\":12800:12931   */\n      tag_262\n        /* \"#utility.yul\":12926:12930   */\n      dup2\n        /* \"#utility.yul\":12800:12931   */\n      tag_126\n      jump\t// in\n    tag_262:\n        /* \"#utility.yul\":12792:12931   */\n      swap1\n      pop\n        /* \"#utility.yul\":12519:12938   */\n      swap2\n      swap1\n      pop\n      jump\t// out\n        /* \"#utility.yul\":12944:13124   */\n    tag_127:\n        /* \"#utility.yul\":12992:13069   */\n      0x4e487b7100000000000000000000000000000000000000000000000000000000\n        /* \"#utility.yul\":12989:12990   */\n      0x00\n        /* \"#utility.yul\":12982:13070   */\n      mstore\n        /* \"#utility.yul\":13089:13093   */\n      0x22\n        /* \"#utility.yul\":13086:13087   */\n      0x04\n        /* \"#utility.yul\":13079:13094   */\n      mstore\n        /* \"#utility.yul\":13113:13117   */\n      0x24\n        /* \"#utility.yul\":13110:13111   */\n      0x00\n        /* \"#utility.yul\":13103:13118   */\n      revert\n        /* \"#utility.yul\":13130:13450   */\n    tag_47:\n        /* \"#utility.yul\":13174:13180   */\n      0x00\n        /* \"#utility.yul\":13211:13212   */\n      0x02\n        /* \"#utility.yul\":13205:13209   */\n      dup3\n        /* \"#utility.yul\":13201:13213   */\n      div\n        /* \"#utility.yul\":13191:13213   */\n      swap1\n      pop\n        /* \"#utility.yul\":13258:13259   */\n      0x01\n        /* \"#utility.yul\":13252:13256   */\n      dup3\n        /* \"#utility.yul\":13248:13260   */\n      and\n        /* \"#utility.yul\":13279:13297   */\n      dup1\n        /* \"#utility.yul\":13269:13350   */\n      tag_265\n      jumpi\n        /* \"#utility.yul\":13335:13339   */\n      0x7f\n        /* \"#utility.yul\":13327:13333   */\n      dup3\n        /* \"#utility.yul\":13323:13340   */\n      and\n        /* \"#utility.yul\":13313:13340   */\n      swap2\n      pop\n        /* \"#utility.yul\":13269:13350   */\n    tag_265:\n        /* \"#utility.yul\":13397:13399   */\n      0x20\n        /* \"#utility.yul\":13389:13395   */\n      dup3\n        /* \"#utility.yul\":13386:13400   */\n      lt\n        /* \"#utility.yul\":13366:13384   */\n      dup2\n        /* \"#utility.yul\":13363:13401   */\n      sub\n        /* \"#utility.yul\":13360:13444   */\n      tag_266\n      jumpi\n        /* \"#utility.yul\":13416:13434   */\n      tag_267\n      tag_127\n      jump\t// in\n    tag_267:\n        /* \"#utility.yul\":13360:13444   */\n    tag_266:\n        /* \"#utility.yul\":13181:13450   */\n      pop\n        /* \"#utility.yul\":13130:13450   */\n      swap2\n      swap1\n      pop\n      jump\t// out\n        /* \"#utility.yul\":13456:13626   */\n    tag_128:\n        /* \"#utility.yul\":13596:13618   */\n      0x4e6f7420656e6f75676820415641582073656e74000000000000000000000000\n        /* \"#utility.yul\":13592:13593   */\n      0x00\n        /* \"#utility.yul\":13584:13590   */\n      dup3\n        /* \"#utility.yul\":13580:13594   */\n      add\n        /* \"#utility.yul\":13573:13619   */\n      mstore\n        /* \"#utility.yul\":13456:13626   */\n      pop\n      jump\t// out\n        /* \"#utility.yul\":13632:13998   */\n    tag_129:\n        /* \"#utility.yul\":13774:13777   */\n      0x00\n        /* \"#utility.yul\":13795:13862   */\n      tag_270\n        /* \"#utility.yul\":13859:13861   */\n      0x14\n        /* \"#utility.yul\":13854:13857   */\n      dup4\n        /* \"#utility.yul\":13795:13862   */\n      tag_93\n      jump\t// in\n    tag_270:\n        /* \"#utility.yul\":13788:13862   */\n      swap2\n      pop\n        /* \"#utility.yul\":13871:13964   */\n      tag_271\n        /* \"#utility.yul\":13960:13963   */\n      dup3\n        /* \"#utility.yul\":13871:13964   */\n      tag_128\n      jump\t// in\n    tag_271:\n        /* \"#utility.yul\":13989:13991   */\n      0x20\n        /* \"#utility.yul\":13984:13987   */\n      dup3\n        /* \"#utility.yul\":13980:13992   */\n      add\n        /* \"#utility.yul\":13973:13992   */\n      swap1\n      pop\n        /* \"#utility.yul\":13632:13998   */\n      swap2\n      swap1\n      pop\n      jump\t// out\n        /* \"#utility.yul\":14004:14423   */\n    tag_80:\n        /* \"#utility.yul\":14170:14174   */\n      0x00\n        /* \"#utility.yul\":14208:14210   */\n      0x20\n        /* \"#utility.yul\":14197:14206   */\n      dup3\n        /* \"#utility.yul\":14193:14211   */\n      add\n        /* \"#utility.yul\":14185:14211   */\n      swap1\n      pop\n        /* \"#utility.yul\":14257:14266   */\n      dup2\n        /* \"#utility.yul\":14251:14255   */\n      dup2\n        /* \"#utility.yul\":14247:14267   */\n      sub\n        /* \"#utility.yul\":14243:14244   */\n      0x00\n        /* \"#utility.yul\":14232:14241   */\n      dup4\n        /* \"#utility.yul\":14228:14245   */\n      add\n        /* \"#utility.yul\":14221:14268   */\n      mstore\n        /* \"#utility.yul\":14285:14416   */\n      tag_273\n        /* \"#utility.yul\":14411:14415   */\n      dup2\n        /* \"#utility.yul\":14285:14416   */\n      tag_129\n      jump\t// in\n    tag_273:\n        /* \"#utility.yul\":14277:14416   */\n      swap1\n      pop\n        /* \"#utility.yul\":14004:14423   */\n      swap2\n      swap1\n      pop\n      jump\t// out\n        /* \"#utility.yul\":14429:14570   */\n    tag_130:\n        /* \"#utility.yul\":14478:14482   */\n      0x00\n        /* \"#utility.yul\":14501:14504   */\n      dup2\n        /* \"#utility.yul\":14493:14504   */\n      swap1\n      pop\n        /* \"#utility.yul\":14524:14527   */\n      dup2\n        /* \"#utility.yul\":14521:14522   */\n      0x00\n        /* \"#utility.yul\":14514:14528   */\n      mstore\n        /* \"#utility.yul\":14558:14562   */\n      0x20\n        /* \"#utility.yul\":14555:14556   */\n      0x00\n        /* \"#utility.yul\":14545:14563   */\n      keccak256\n        /* \"#utility.yul\":14537:14563   */\n      swap1\n      pop\n        /* \"#utility.yul\":14429:14570   */\n      swap2\n      swap1\n      pop\n      jump\t// out\n        /* \"#utility.yul\":14576:14669   */\n    tag_131:\n        /* \"#utility.yul\":14613:14619   */\n      0x00\n        /* \"#utility.yul\":14660:14662   */\n      0x20\n        /* \"#utility.yul\":14655:14657   */\n      0x1f\n        /* \"#utility.yul\":14648:14653   */\n      dup4\n        /* \"#utility.yul\":14644:14658   */\n      add\n        /* \"#utility.yul\":14640:14663   */\n      div\n        /* \"#utility.yul\":14630:14663   */\n      swap1\n      pop\n        /* \"#utility.yul\":14576:14669   */\n      swap2\n      swap1\n      pop\n      jump\t// out\n        /* \"#utility.yul\":14675:14782   */\n    tag_132:\n        /* \"#utility.yul\":14719:14727   */\n      0x00\n        /* \"#utility.yul\":14769:14774   */\n      dup3\n        /* \"#utility.yul\":14763:14767   */\n      dup3\n        /* \"#utility.yul\":14759:14775   */\n      shl\n        /* \"#utility.yul\":14738:14775   */\n      swap1\n      pop\n        /* \"#utility.yul\":14675:14782   */\n      swap3\n      swap2\n      pop\n      pop\n      jump\t// out\n        /* \"#utility.yul\":14788:15181   */\n    tag_133:\n        /* \"#utility.yul\":14857:14863   */\n      0x00\n        /* \"#utility.yul\":14907:14908   */\n      0x08\n        /* \"#utility.yul\":14895:14905   */\n      dup4\n        /* \"#utility.yul\":14891:14909   */\n      mul\n        /* \"#utility.yul\":14930:15027   */\n      tag_278\n        /* \"#utility.yul\":14960:15026   */\n      0xffffffffffffffffffffffffffffffffffffffffffffffffffffffffffffffff\n        /* \"#utility.yul\":14949:14958   */\n      dup3\n        /* \"#utility.yul\":14930:15027   */\n      tag_132\n      jump\t// in\n    tag_278:\n        /* \"#utility.yul\":15048:15087   */\n      tag_279\n        /* \"#utility.yul\":15078:15086   */\n      dup7\n        /* \"#utility.yul\":15067:15076   */\n      dup4\n        /* \"#utility.yul\":15048:15087   */\n      tag_132\n      jump\t// in\n    tag_279:\n        /* \"#utility.yul\":15036:15087   */\n      swap6\n      pop\n        /* \"#utility.yul\":15120:15124   */\n      dup1\n        /* \"#utility.yul\":15116:15125   */\n      not\n        /* \"#utility.yul\":15109:15114   */\n      dup5\n        /* \"#utility.yul\":15105:15126   */\n      and\n        /* \"#utility.yul\":15096:15126   */\n      swap4\n      pop\n        /* \"#utility.yul\":15169:15173   */\n      dup1\n        /* \"#utility.yul\":15159:15167   */\n      dup7\n        /* \"#utility.yul\":15155:15174   */\n      and\n        /* \"#utility.yul\":15148:15153   */\n      dup5\n        /* \"#utility.yul\":15145:15175   */\n      or\n        /* \"#utility.yul\":15135:15175   */\n      swap3\n      pop\n        /* \"#utility.yul\":14864:15181   */\n      pop\n      pop\n        /* \"#utility.yul\":14788:15181   */\n      swap4\n      swap3\n      pop\n      pop\n      pop\n      jump\t// out\n        /* \"#utility.yul\":15187:15247   */\n    tag_134:\n        /* \"#utility.yul\":15215:15218   */\n      0x00\n        /* \"#utility.yul\":15236:15241   */\n      dup2\n        /* \"#utility.yul\":15229:15241   */\n      swap1\n      pop\n        /* \"#utility.yul\":15187:15247   */\n      swap2\n      swap1\n      pop\n      jump\t// out\n        /* \"#utility.yul\":15253:15395   */\n    tag_135:\n        /* \"#utility.yul\":15303:15312   */\n      0x00\n        /* \"#utility.yul\":15336:15389   */\n      tag_282\n        /* \"#utility.yul\":15354:15388   */\n      tag_283\n        /* \"#utility.yul\":15363:15387   */\n      tag_284\n        /* \"#utility.yul\":15381:15386   */\n      dup5\n        /* \"#utility.yul\":15363:15387   */\n      tag_90\n      jump\t// in\n    tag_284:\n        /* \"#utility.yul\":15354:15388   */\n      tag_134\n      jump\t// in\n    tag_283:\n        /* \"#utility.yul\":15336:15389   */\n      tag_90\n      jump\t// in\n    tag_282:\n        /* \"#utility.yul\":15323:15389   */\n      swap1\n      pop\n        /* \"#utility.yul\":15253:15395   */\n      swap2\n      swap1\n      pop\n      jump\t// out\n        /* \"#utility.yul\":15401:15476   */\n    tag_136:\n        /* \"#utility.yul\":15444:15447   */\n      0x00\n        /* \"#utility.yul\":15465:15470   */\n      dup2\n        /* \"#utility.yul\":15458:15470   */\n      swap1\n      pop\n        /* \"#utility.yul\":15401:15476   */\n      swap2\n      swap1\n      pop\n      jump\t// out\n        /* \"#utility.yul\":15482:15751   */\n    tag_137:\n        /* \"#utility.yul\":15592:15631   */\n      tag_287\n        /* \"#utility.yul\":15623:15630   */\n      dup4\n        /* \"#utility.yul\":15592:15631   */\n      tag_135\n      jump\t// in\n    tag_287:\n        /* \"#utility.yul\":15653:15744   */\n      tag_288\n        /* \"#utility.yul\":15702:15743   */\n      tag_289\n        /* \"#utility.yul\":15726:15742   */\n      dup3\n        /* \"#utility.yul\":15702:15743   */\n      tag_136\n      jump\t// in\n    tag_289:\n        /* \"#utility.yul\":15694:15700   */\n      dup5\n        /* \"#utility.yul\":15687:15691   */\n      dup5\n        /* \"#utility.yul\":15681:15692   */\n      sload\n        /* \"#utility.yul\":15653:15744   */\n      tag_133\n      jump\t// in\n    tag_288:\n        /* \"#utility.yul\":15647:15651   */\n      dup3\n        /* \"#utility.yul\":15640:15745   */\n      sstore\n        /* \"#utility.yul\":15558:15751   */\n      pop\n        /* \"#utility.yul\":15482:15751   */\n      pop\n      pop\n      pop\n      jump\t// out\n        /* \"#utility.yul\":15757:15830   */\n    tag_138:\n        /* \"#utility.yul\":15802:15805   */\n      0x00\n        /* \"#utility.yul\":15757:15830   */\n      swap1\n      jump\t// out\n        /* \"#utility.yul\":15836:16025   */\n    tag_139:\n        /* \"#utility.yul\":15913:15945   */\n      tag_292\n      tag_138\n      jump\t// in\n    tag_292:\n        /* \"#utility.yul\":15954:16019   */\n      tag_293\n        /* \"#utility.yul\":16012:16018   */\n      dup2\n        /* \"#utility.yul\":16004:16010   */\n      dup5\n        /* \"#utility.yul\":15998:16002   */\n      dup5\n        /* \"#utility.yul\":15954:16019   */\n      tag_137\n      jump\t// in\n    tag_293:\n        /* \"#utility.yul\":15889:16025   */\n      pop\n        /* \"#utility.yul\":15836:16025   */\n      pop\n      pop\n      jump\t// out\n        /* \"#utility.yul\":16031:16217   */\n    tag_140:\n        /* \"#utility.yul\":16091:16211   */\n    tag_295:\n        /* \"#utility.yul\":16108:16111   */\n      dup2\n        /* \"#utility.yul\":16101:16106   */\n      dup2\n        /* \"#utility.yul\":16098:16112   */\n      lt\n        /* \"#utility.yul\":16091:16211   */\n      iszero\n      tag_297\n      jumpi\n        /* \"#utility.yul\":16162:16201   */\n      tag_298\n        /* \"#utility.yul\":16199:16200   */\n      0x00\n        /* \"#utility.yul\":16192:16197   */\n      dup3\n        /* \"#utility.yul\":16162:16201   */\n      tag_139\n      jump\t// in\n    tag_298:\n        /* \"#utility.yul\":16135:16136   */\n      0x01\n        /* \"#utility.yul\":16128:16133   */\n      dup2\n        /* \"#utility.yul\":16124:16137   */\n      add\n        /* \"#utility.yul\":16115:16137   */\n      swap1\n      pop\n        /* \"#utility.yul\":16091:16211   */\n      jump(tag_295)\n    tag_297:\n        /* \"#utility.yul\":16031:16217   */\n      pop\n      pop\n      jump\t// out\n        /* \"#utility.yul\":16223:16766   */\n    tag_141:\n        /* \"#utility.yul\":16324:16326   */\n      0x1f\n        /* \"#utility.yul\":16319:16322   */\n      dup3\n        /* \"#utility.yul\":16316:16327   */\n      gt\n        /* \"#utility.yul\":16313:16759   */\n      iszero\n      tag_300\n      jumpi\n        /* \"#utility.yul\":16358:16396   */\n      tag_301\n        /* \"#utility.yul\":16390:16395   */\n      dup2\n        /* \"#utility.yul\":16358:16396   */\n      tag_130\n      jump\t// in\n    tag_301:\n        /* \"#utility.yul\":16442:16471   */\n      tag_302\n        /* \"#utility.yul\":16460:16470   */\n      dup5\n        /* \"#utility.yul\":16442:16471   */\n      tag_131\n      jump\t// in\n    tag_302:\n        /* \"#utility.yul\":16432:16440   */\n      dup2\n        /* \"#utility.yul\":16428:16472   */\n      add\n        /* \"#utility.yul\":16625:16627   */\n      0x20\n        /* \"#utility.yul\":16613:16623   */\n      dup6\n        /* \"#utility.yul\":16610:16628   */\n      lt\n        /* \"#utility.yul\":16607:16656   */\n      iszero\n      tag_303\n      jumpi\n        /* \"#utility.yul\":16646:16654   */\n      dup2\n        /* \"#utility.yul\":16631:16654   */\n      swap1\n      pop\n        /* \"#utility.yul\":16607:16656   */\n    tag_303:\n        /* \"#utility.yul\":16669:16749   */\n      tag_304\n        /* \"#utility.yul\":16725:16747   */\n      tag_305\n        /* \"#utility.yul\":16743:16746   */\n      dup6\n        /* \"#utility.yul\":16725:16747   */\n      tag_131\n      jump\t// in\n    tag_305:\n        /* \"#utility.yul\":16715:16723   */\n      dup4\n        /* \"#utility.yul\":16711:16748   */\n      add\n        /* \"#utility.yul\":16698:16709   */\n      dup3\n        /* \"#utility.yul\":16669:16749   */\n      tag_140\n      jump\t// in\n    tag_304:\n        /* \"#utility.yul\":16328:16759   */\n      pop\n      pop\n        /* \"#utility.yul\":16313:16759   */\n    tag_300:\n        /* \"#utility.yul\":16223:16766   */\n      pop\n      pop\n      pop\n      jump\t// out\n        /* \"#utility.yul\":16772:16889   */\n    tag_142:\n        /* \"#utility.yul\":16826:16834   */\n      0x00\n        /* \"#utility.yul\":16876:16881   */\n      dup3\n        /* \"#utility.yul\":16870:16874   */\n      dup3\n        /* \"#utility.yul\":16866:16882   */\n      shr\n        /* \"#utility.yul\":16845:16882   */\n      swap1\n      pop\n        /* \"#utility.yul\":16772:16889   */\n      swap3\n      swap2\n      pop\n      pop\n      jump\t// out\n        /* \"#utility.yul\":16895:17064   */\n    tag_143:\n        /* \"#utility.yul\":16939:16945   */\n      0x00\n        /* \"#utility.yul\":16972:17023   */\n      tag_308\n        /* \"#utility.yul\":17020:17021   */\n      0x00\n        /* \"#utility.yul\":17016:17022   */\n      not\n        /* \"#utility.yul\":17008:17013   */\n      dup5\n        /* \"#utility.yul\":17005:17006   */\n      0x08\n        /* \"#utility.yul\":17001:17014   */\n      mul\n        /* \"#utility.yul\":16972:17023   */\n      tag_142\n      jump\t// in\n    tag_308:\n        /* \"#utility.yul\":16968:17024   */\n      not\n        /* \"#utility.yul\":17053:17057   */\n      dup1\n        /* \"#utility.yul\":17047:17051   */\n      dup4\n        /* \"#utility.yul\":17043:17058   */\n      and\n        /* \"#utility.yul\":17033:17058   */\n      swap2\n      pop\n        /* \"#utility.yul\":16946:17064   */\n      pop\n        /* \"#utility.yul\":16895:17064   */\n      swap3\n      swap2\n      pop\n      pop\n      jump\t// out\n        /* \"#utility.yul\":17069:17364   */\n    tag_144:\n        /* \"#utility.yul\":17145:17149   */\n      0x00\n        /* \"#utility.yul\":17291:17320   */\n      tag_310\n        /* \"#utility.yul\":17316:17319   */\n      dup4\n        /* \"#utility.yul\":17310:17314   */\n      dup4\n        /* \"#utility.yul\":17291:17320   */\n      tag_143\n      jump\t// in\n    tag_310:\n        /* \"#utility.yul\":17283:17320   */\n      swap2\n      pop\n        /* \"#utility.yul\":17353:17356   */\n      dup3\n        /* \"#utility.yul\":17350:17351   */\n      0x02\n        /* \"#utility.yul\":17346:17357   */\n      mul\n        /* \"#utility.yul\":17340:17344   */\n      dup3\n        /* \"#utility.yul\":17337:17358   */\n      or\n        /* \"#utility.yul\":17329:17358   */\n      swap1\n      pop\n        /* \"#utility.yul\":17069:17364   */\n      swap3\n      swap2\n      pop\n      pop\n      jump\t// out\n        /* \"#utility.yul\":17369:18764   */\n    tag_83:\n        /* \"#utility.yul\":17486:17523   */\n      tag_312\n        /* \"#utility.yul\":17519:17522   */\n      dup3\n        /* \"#utility.yul\":17486:17523   */\n      tag_92\n      jump\t// in\n    tag_312:\n        /* \"#utility.yul\":17588:17606   */\n      0xffffffffffffffff\n        /* \"#utility.yul\":17580:17586   */\n      dup2\n        /* \"#utility.yul\":17577:17607   */\n      gt\n        /* \"#utility.yul\":17574:17630   */\n      iszero\n      tag_313\n      jumpi\n        /* \"#utility.yul\":17610:17628   */\n      tag_314\n      tag_107\n      jump\t// in\n    tag_314:\n        /* \"#utility.yul\":17574:17630   */\n    tag_313:\n        /* \"#utility.yul\":17654:17692   */\n      tag_315\n        /* \"#utility.yul\":17686:17690   */\n      dup3\n        /* \"#utility.yul\":17680:17691   */\n      sload\n        /* \"#utility.yul\":17654:17692   */\n      tag_47\n      jump\t// in\n    tag_315:\n        /* \"#utility.yul\":17739:17806   */\n      tag_316\n        /* \"#utility.yul\":17799:17805   */\n      dup3\n        /* \"#utility.yul\":17791:17797   */\n      dup3\n        /* \"#utility.yul\":17785:17789   */\n      dup6\n        /* \"#utility.yul\":17739:17806   */\n      tag_141\n      jump\t// in\n    tag_316:\n        /* \"#utility.yul\":17833:17834   */\n      0x00\n        /* \"#utility.yul\":17857:17861   */\n      0x20\n        /* \"#utility.yul\":17844:17861   */\n      swap1\n      pop\n        /* \"#utility.yul\":17889:17891   */\n      0x1f\n        /* \"#utility.yul\":17881:17887   */\n      dup4\n        /* \"#utility.yul\":17878:17892   */\n      gt\n        /* \"#utility.yul\":17906:17907   */\n      0x01\n        /* \"#utility.yul\":17901:18519   */\n      dup2\n      eq\n      tag_318\n      jumpi\n        /* \"#utility.yul\":18563:18564   */\n      0x00\n        /* \"#utility.yul\":18580:18586   */\n      dup5\n        /* \"#utility.yul\":18577:18654   */\n      iszero\n      tag_319\n      jumpi\n        /* \"#utility.yul\":18629:18638   */\n      dup3\n        /* \"#utility.yul\":18624:18627   */\n      dup8\n        /* \"#utility.yul\":18620:18639   */\n      add\n        /* \"#utility.yul\":18614:18640   */\n      mload\n        /* \"#utility.yul\":18605:18640   */\n      swap1\n      pop\n        /* \"#utility.yul\":18577:18654   */\n    tag_319:\n        /* \"#utility.yul\":18680:18747   */\n      tag_320\n        /* \"#utility.yul\":18740:18746   */\n      dup6\n        /* \"#utility.yul\":18733:18738   */\n      dup3\n        /* \"#utility.yul\":18680:18747   */\n      tag_144\n      jump\t// in\n    tag_320:\n        /* \"#utility.yul\":18674:18678   */\n      dup7\n        /* \"#utility.yul\":18667:18748   */\n      sstore\n        /* \"#utility.yul\":18536:18758   */\n      pop\n        /* \"#utility.yul\":17871:18758   */\n      jump(tag_317)\n        /* \"#utility.yul\":17901:18519   */\n    tag_318:\n        /* \"#utility.yul\":17953:17957   */\n      0x1f\n        /* \"#utility.yul\":17949:17958   */\n      not\n        /* \"#utility.yul\":17941:17947   */\n      dup5\n        /* \"#utility.yul\":17937:17959   */\n      and\n        /* \"#utility.yul\":17987:18024   */\n      tag_321\n        /* \"#utility.yul\":18019:18023   */\n      dup7\n        /* \"#utility.yul\":17987:18024   */\n      tag_130\n      jump\t// in\n    tag_321:\n        /* \"#utility.yul\":18046:18047   */\n      0x00\n        /* \"#utility.yul\":18060:18268   */\n    tag_322:\n        /* \"#utility.yul\":18074:18081   */\n      dup3\n        /* \"#utility.yul\":18071:18072   */\n      dup2\n        /* \"#utility.yul\":18068:18082   */\n      lt\n        /* \"#utility.yul\":18060:18268   */\n      iszero\n      tag_324\n      jumpi\n        /* \"#utility.yul\":18153:18162   */\n      dup5\n        /* \"#utility.yul\":18148:18151   */\n      dup10\n        /* \"#utility.yul\":18144:18163   */\n      add\n        /* \"#utility.yul\":18138:18164   */\n      mload\n        /* \"#utility.yul\":18130:18136   */\n      dup3\n        /* \"#utility.yul\":18123:18165   */\n      sstore\n        /* \"#utility.yul\":18204:18205   */\n      0x01\n        /* \"#utility.yul\":18196:18202   */\n      dup3\n        /* \"#utility.yul\":18192:18206   */\n      add\n        /* \"#utility.yul\":18182:18206   */\n      swap2\n      pop\n        /* \"#utility.yul\":18251:18253   */\n      0x20\n        /* \"#utility.yul\":18240:18249   */\n      dup6\n        /* \"#utility.yul\":18236:18254   */\n      add\n        /* \"#utility.yul\":18223:18254   */\n      swap5\n      pop\n        /* \"#utility.yul\":18097:18101   */\n      0x20\n        /* \"#utility.yul\":18094:18095   */\n      dup2\n        /* \"#utility.yul\":18090:18102   */\n      add\n        /* \"#utility.yul\":18085:18102   */\n      swap1\n      pop\n        /* \"#utility.yul\":18060:18268   */\n      jump(tag_322)\n    tag_324:\n        /* \"#utility.yul\":18296:18302   */\n      dup7\n        /* \"#utility.yul\":18287:18294   */\n      dup4\n        /* \"#utility.yul\":18284:18303   */\n      lt\n        /* \"#utility.yul\":18281:18460   */\n      iszero\n      tag_325\n      jumpi\n        /* \"#utility.yul\":18354:18363   */\n      dup5\n        /* \"#utility.yul\":18349:18352   */\n      dup10\n        /* \"#utility.yul\":18345:18364   */\n      add\n        /* \"#utility.yul\":18339:18365   */\n      mload\n        /* \"#utility.yul\":18397:18445   */\n      tag_326\n        /* \"#utility.yul\":18439:18443   */\n      0x1f\n        /* \"#utility.yul\":18431:18437   */\n      dup10\n        /* \"#utility.yul\":18427:18444   */\n      and\n        /* \"#utility.yul\":18416:18425   */\n      dup3\n        /* \"#utility.yul\":18397:18445   */\n      tag_143\n      jump\t// in\n    tag_326:\n        /* \"#utility.yul\":18389:18395   */\n      dup4\n        /* \"#utility.yul\":18382:18446   */\n      sstore\n        /* \"#utility.yul\":18304:18460   */\n      pop\n        /* \"#utility.yul\":18281:18460   */\n    tag_325:\n        /* \"#utility.yul\":18506:18507   */\n      0x01\n        /* \"#utility.yul\":18502:18503   */\n      0x02\n        /* \"#utility.yul\":18494:18500   */\n      dup9\n        /* \"#utility.yul\":18490:18504   */\n      mul\n        /* \"#utility.yul\":18486:18508   */\n      add\n        /* \"#utility.yul\":18480:18484   */\n      dup9\n        /* \"#utility.yul\":18473:18509   */\n      sstore\n        /* \"#utility.yul\":17908:18519   */\n      pop\n      pop\n      pop\n        /* \"#utility.yul\":17871:18758   */\n    tag_317:\n      pop\n        /* \"#utility.yul\":17461:18764   */\n      pop\n      pop\n      pop\n        /* \"#utility.yul\":17369:18764   */\n      pop\n      pop\n      jump\t// out\n\n    auxdata: 0xa264697066735822122068069a9b600f71ff4684b16064cd8b773feec931e917bcc277eacc7b8a80783764736f6c63430008190033\n}\n",
				"bytecode": {
					"linkReferences": {},
					"object": "6080604052348015600e575f80fd5b50335f806101000a81548173ffffffffffffffffffffffffffffffffffffffff021916908373ffffffffffffffffffffffffffffffffffffffff1602179055506111928061005b5f395ff3fe608060405260043610610049575f3560e01c806312065fe01461004d5780633ccfd60b1461007757806373d4a13a1461008d578063782154df146100be5780638da5cb5b146100da575b5f80fd5b348015610058575f80fd5b50610061610104565b60405161006e9190610845565b60405180910390f35b348015610082575f80fd5b5061008b61010b565b005b348015610098575f80fd5b506100a16102aa565b6040516100b5989796959493929190610927565b60405180910390f35b6100d860048036038101906100d39190610b34565b61062e565b005b3480156100e5575f80fd5b506100ee61080a565b6040516100fb9190610c99565b60405180910390f35b5f47905090565b5f8054906101000a900473ffffffffffffffffffffffffffffffffffffffff1673ffffffffffffffffffffffffffffffffffffffff163373ffffffffffffffffffffffffffffffffffffffff1614610198576040517f08c379a000000000000000000000000000000000000000000000000000000000815260040161018f90610cfc565b60405180910390fd5b5f4790505f81116101de576040517f08c379a00000000000000000000000000000000000000000000000000000000081526004016101d590610d64565b60405180910390fd5b5f805f9054906101000a900473ffffffffffffffffffffffffffffffffffffffff1673ffffffffffffffffffffffffffffffffffffffff168260405161022390610daf565b5f6040518083038185875af1925050503d805f811461025d576040519150601f19603f3d011682016040523d82523d5f602084013e610262565b606091505b50509050806102a6576040517f08c379a000000000000000000000000000000000000000000000000000000000815260040161029d90610e0d565b60405180910390fd5b5050565b6001805f0180546102ba90610e58565b80601f01602080910402602001604051908101604052809291908181526020018280546102e690610e58565b80156103315780601f1061030857610100808354040283529160200191610331565b820191905f5260205f20905b81548152906001019060200180831161031457829003601f168201915b50505050509080600101805461034690610e58565b80601f016020809104026020016040519081016040528092919081815260200182805461037290610e58565b80156103bd5780601f10610394576101008083540402835291602001916103bd565b820191905f5260205f20905b8154815290600101906020018083116103a057829003601f168201915b5050505050908060020180546103d290610e58565b80601f01602080910402602001604051908101604052809291908181526020018280546103fe90610e58565b80156104495780601f1061042057610100808354040283529160200191610449565b820191905f5260205f20905b81548152906001019060200180831161042c57829003601f168201915b50505050509080600301805461045e90610e58565b80601f016020809104026020016040519081016040528092919081815260200182805461048a90610e58565b80156104d55780601f106104ac576101008083540402835291602001916104d5565b820191905f5260205f20905b8154815290600101906020018083116104b857829003601f168201915b5050505050908060040180546104ea90610e58565b80601f016020809104026020016040519081016040528092919081815260200182805461051690610e58565b80156105615780601f1061053857610100808354040283529160200191610561565b820191905f5260205f20905b81548152906001019060200180831161054457829003601f168201915b50505050509080600501805461057690610e58565b80601f01602080910402602001604051908101604052809291908181526020018280546105a290610e58565b80156105ed5780601f106105c4576101008083540402835291602001916105ed565b820191905f5260205f20905b8154815290600101906020018083116105d057829003601f168201915b505050505090806006015f9054906101000a90045f0b908060060160019054906101000a900473ffffffffffffffffffffffffffffffffffffffff16905088565b66038d7ea4c6800080341015610679576040517f08c379a000000000000000000000000000000000000000000000000000000000815260040161067090610ed2565b60405180910390fd5b604051806101000160405280898152602001888152602001878152602001868152602001858152602001848152602001835f0b81526020013373ffffffffffffffffffffffffffffffffffffffff1681525060015f820151815f0190816106e0919061108d565b5060208201518160010190816106f6919061108d565b50604082015181600201908161070c919061108d565b506060820151816003019081610722919061108d565b506080820151816004019081610738919061108d565b5060a082015181600501908161074e919061108d565b5060c0820151816006015f6101000a81548160ff02191690835f0b60ff16021790555060e08201518160060160016101000a81548173ffffffffffffffffffffffffffffffffffffffff021916908373ffffffffffffffffffffffffffffffffffffffff1602179055509050507f870247eb151fd35c4907322d059c22cbe7eb7930b7b7116d4a107cbbb5378d1288888888888888336040516107f8989796959493929190610927565b60405180910390a15050505050505050565b5f8054906101000a900473ffffffffffffffffffffffffffffffffffffffff1681565b5f819050919050565b61083f8161082d565b82525050565b5f6020820190506108585f830184610836565b92915050565b5f81519050919050565b5f82825260208201905092915050565b8281835e5f83830152505050565b5f601f19601f8301169050919050565b5f6108a08261085e565b6108aa8185610868565b93506108ba818560208601610878565b6108c381610886565b840191505092915050565b5f815f0b9050919050565b6108e2816108ce565b82525050565b5f73ffffffffffffffffffffffffffffffffffffffff82169050919050565b5f610911826108e8565b9050919050565b61092181610907565b82525050565b5f610100820190508181035f830152610940818b610896565b90508181036020830152610954818a610896565b905081810360408301526109688189610896565b9050818103606083015261097c8188610896565b905081810360808301526109908187610896565b905081810360a08301526109a48186610896565b90506109b360c08301856108d9565b6109c060e0830184610918565b9998505050505050505050565b5f604051905090565b5f80fd5b5f80fd5b5f80fd5b5f80fd5b7f4e487b71000000000000000000000000000000000000000000000000000000005f52604160045260245ffd5b610a1c82610886565b810181811067ffffffffffffffff82111715610a3b57610a3a6109e6565b5b80604052505050565b5f610a4d6109cd565b9050610a598282610a13565b919050565b5f67ffffffffffffffff821115610a7857610a776109e6565b5b610a8182610886565b9050602081019050919050565b828183375f83830152505050565b5f610aae610aa984610a5e565b610a44565b905082815260208101848484011115610aca57610ac96109e2565b5b610ad5848285610a8e565b509392505050565b5f82601f830112610af157610af06109de565b5b8135610b01848260208601610a9c565b91505092915050565b610b13816108ce565b8114610b1d575f80fd5b50565b5f81359050610b2e81610b0a565b92915050565b5f805f805f805f60e0888a031215610b4f57610b4e6109d6565b5b5f88013567ffffffffffffffff811115610b6c57610b6b6109da565b5b610b788a828b01610add565b975050602088013567ffffffffffffffff811115610b9957610b986109da565b5b610ba58a828b01610add565b965050604088013567ffffffffffffffff811115610bc657610bc56109da565b5b610bd28a828b01610add565b955050606088013567ffffffffffffffff811115610bf357610bf26109da565b5b610bff8a828b01610add565b945050608088013567ffffffffffffffff811115610c2057610c1f6109da565b5b610c2c8a828b01610add565b93505060a088013567ffffffffffffffff811115610c4d57610c4c6109da565b5b610c598a828b01610add565b92505060c0610c6a8a828b01610b20565b91505092959891949750929550565b5f610c83826108e8565b9050919050565b610c9381610c79565b82525050565b5f602082019050610cac5f830184610c8a565b92915050565b7f4f6e6c79206f776e65722063616e2077697468647261770000000000000000005f82015250565b5f610ce6601783610868565b9150610cf182610cb2565b602082019050919050565b5f6020820190508181035f830152610d1381610cda565b9050919050565b7f4e6f2066756e647320746f2077697468647261770000000000000000000000005f82015250565b5f610d4e601483610868565b9150610d5982610d1a565b602082019050919050565b5f6020820190508181035f830152610d7b81610d42565b9050919050565b5f81905092915050565b50565b5f610d9a5f83610d82565b9150610da582610d8c565b5f82019050919050565b5f610db982610d8f565b9150819050919050565b7f5472616e73666572206661696c656400000000000000000000000000000000005f82015250565b5f610df7600f83610868565b9150610e0282610dc3565b602082019050919050565b5f6020820190508181035f830152610e2481610deb565b9050919050565b7f4e487b71000000000000000000000000000000000000000000000000000000005f52602260045260245ffd5b5f6002820490506001821680610e6f57607f821691505b602082108103610e8257610e81610e2b565b5b50919050565b7f4e6f7420656e6f75676820415641582073656e740000000000000000000000005f82015250565b5f610ebc601483610868565b9150610ec782610e88565b602082019050919050565b5f6020820190508181035f830152610ee981610eb0565b9050919050565b5f819050815f5260205f209050919050565b5f6020601f8301049050919050565b5f82821b905092915050565b5f60088302610f4c7fffffffffffffffffffffffffffffffffffffffffffffffffffffffffffffffff82610f11565b610f568683610f11565b95508019841693508086168417925050509392505050565b5f819050919050565b5f610f91610f8c610f878461082d565b610f6e565b61082d565b9050919050565b5f819050919050565b610faa83610f77565b610fbe610fb682610f98565b848454610f1d565b825550505050565b5f90565b610fd2610fc6565b610fdd818484610fa1565b505050565b5b8181101561100057610ff55f82610fca565b600181019050610fe3565b5050565b601f8211156110455761101681610ef0565b61101f84610f02565b8101602085101561102e578190505b61104261103a85610f02565b830182610fe2565b50505b505050565b5f82821c905092915050565b5f6110655f198460080261104a565b1980831691505092915050565b5f61107d8383611056565b9150826002028217905092915050565b6110968261085e565b67ffffffffffffffff8111156110af576110ae6109e6565b5b6110b98254610e58565b6110c4828285611004565b5f60209050601f8311600181146110f5575f84156110e3578287015190505b6110ed8582611072565b865550611154565b601f19841661110386610ef0565b5f5b8281101561112a57848901518255600182019150602085019450602081019050611105565b868310156111475784890151611143601f891682611056565b8355505b6001600288020188555050505b50505050505056fea264697066735822122068069a9b600f71ff4684b16064cd8b773feec931e917bcc277eacc7b8a80783764736f6c63430008190033",
					"opcodes": "PUSH1 0x80 PUSH1 0x40 MSTORE CALLVALUE DUP1 ISZERO PUSH1 0xE JUMPI PUSH0 DUP1 REVERT JUMPDEST POP CALLER PUSH0 DUP1 PUSH2 0x100 EXP DUP2 SLOAD DUP2 PUSH20 0xFFFFFFFFFFFFFFFFFFFFFFFFFFFFFFFFFFFFFFFF MUL NOT AND SWAP1 DUP4 PUSH20 0xFFFFFFFFFFFFFFFFFFFFFFFFFFFFFFFFFFFFFFFF AND MUL OR SWAP1 SSTORE POP PUSH2 0x1192 DUP1 PUSH2 0x5B PUSH0 CODECOPY PUSH0 RETURN INVALID PUSH1 0x80 PUSH1 0x40 MSTORE PUSH1 0x4 CALLDATASIZE LT PUSH2 0x49 JUMPI PUSH0 CALLDATALOAD PUSH1 0xE0 SHR DUP1 PUSH4 0x12065FE0 EQ PUSH2 0x4D JUMPI DUP1 PUSH4 0x3CCFD60B EQ PUSH2 0x77 JUMPI DUP1 PUSH4 0x73D4A13A EQ PUSH2 0x8D JUMPI DUP1 PUSH4 0x782154DF EQ PUSH2 0xBE JUMPI DUP1 PUSH4 0x8DA5CB5B EQ PUSH2 0xDA JUMPI JUMPDEST PUSH0 DUP1 REVERT JUMPDEST CALLVALUE DUP1 ISZERO PUSH2 0x58 JUMPI PUSH0 DUP1 REVERT JUMPDEST POP PUSH2 0x61 PUSH2 0x104 JUMP JUMPDEST PUSH1 0x40 MLOAD PUSH2 0x6E SWAP2 SWAP1 PUSH2 0x845 JUMP JUMPDEST PUSH1 0x40 MLOAD DUP1 SWAP2 SUB SWAP1 RETURN JUMPDEST CALLVALUE DUP1 ISZERO PUSH2 0x82 JUMPI PUSH0 DUP1 REVERT JUMPDEST POP PUSH2 0x8B PUSH2 0x10B JUMP JUMPDEST STOP JUMPDEST CALLVALUE DUP1 ISZERO PUSH2 0x98 JUMPI PUSH0 DUP1 REVERT JUMPDEST POP PUSH2 0xA1 PUSH2 0x2AA JUMP JUMPDEST PUSH1 0x40 MLOAD PUSH2 0xB5 SWAP9 SWAP8 SWAP7 SWAP6 SWAP5 SWAP4 SWAP3 SWAP2 SWAP1 PUSH2 0x927 JUMP JUMPDEST PUSH1 0x40 MLOAD DUP1 SWAP2 SUB SWAP1 RETURN JUMPDEST PUSH2 0xD8 PUSH1 0x4 DUP1 CALLDATASIZE SUB DUP2 ADD SWAP1 PUSH2 0xD3 SWAP2 SWAP1 PUSH2 0xB34 JUMP JUMPDEST PUSH2 0x62E JUMP JUMPDEST STOP JUMPDEST CALLVALUE DUP1 ISZERO PUSH2 0xE5 JUMPI PUSH0 DUP1 REVERT JUMPDEST POP PUSH2 0xEE PUSH2 0x80A JUMP JUMPDEST PUSH1 0x40 MLOAD PUSH2 0xFB SWAP2 SWAP1 PUSH2 0xC99 JUMP JUMPDEST PUSH1 0x40 MLOAD DUP1 SWAP2 SUB SWAP1 RETURN JUMPDEST PUSH0 SELFBALANCE SWAP1 POP SWAP1 JUMP JUMPDEST PUSH0 DUP1 SLOAD SWAP1 PUSH2 0x100 EXP SWAP1 DIV PUSH20 0xFFFFFFFFFFFFFFFFFFFFFFFFFFFFFFFFFFFFFFFF AND PUSH20 0xFFFFFFFFFFFFFFFFFFFFFFFFFFFFFFFFFFFFFFFF AND CALLER PUSH20 0xFFFFFFFFFFFFFFFFFFFFFFFFFFFFFFFFFFFFFFFF AND EQ PUSH2 0x198 JUMPI PUSH1 0x40 MLOAD PUSH32 0x8C379A000000000000000000000000000000000000000000000000000000000 DUP2 MSTORE PUSH1 0x4 ADD PUSH2 0x18F SWAP1 PUSH2 0xCFC JUMP JUMPDEST PUSH1 0x40 MLOAD DUP1 SWAP2 SUB SWAP1 REVERT JUMPDEST PUSH0 SELFBALANCE SWAP1 POP PUSH0 DUP2 GT PUSH2 0x1DE JUMPI PUSH1 0x40 MLOAD PUSH32 0x8C379A000000000000000000000000000000000000000000000000000000000 DUP2 MSTORE PUSH1 0x4 ADD PUSH2 0x1D5 SWAP1 PUSH2 0xD64 JUMP JUMPDEST PUSH1 0x40 MLOAD DUP1 SWAP2 SUB SWAP1 REVERT JUMPDEST PUSH0 DUP1 PUSH0 SWAP1 SLOAD SWAP1 PUSH2 0x100 EXP SWAP1 DIV PUSH20 0xFFFFFFFFFFFFFFFFFFFFFFFFFFFFFFFFFFFFFFFF AND PUSH20 0xFFFFFFFFFFFFFFFFFFFFFFFFFFFFFFFFFFFFFFFF AND DUP3 PUSH1 0x40 MLOAD PUSH2 0x223 SWAP1 PUSH2 0xDAF JUMP JUMPDEST PUSH0 PUSH1 0x40 MLOAD DUP1 DUP4 SUB DUP2 DUP6 DUP8 GAS CALL SWAP3 POP POP POP RETURNDATASIZE DUP1 PUSH0 DUP2 EQ PUSH2 0x25D JUMPI PUSH1 0x40 MLOAD SWAP2 POP PUSH1 0x1F NOT PUSH1 0x3F RETURNDATASIZE ADD AND DUP3 ADD PUSH1 0x40 MSTORE RETURNDATASIZE DUP3 MSTORE RETURNDATASIZE PUSH0 PUSH1 0x20 DUP5 ADD RETURNDATACOPY PUSH2 0x262 JUMP JUMPDEST PUSH1 0x60 SWAP2 POP JUMPDEST POP POP SWAP1 POP DUP1 PUSH2 0x2A6 JUMPI PUSH1 0x40 MLOAD PUSH32 0x8C379A000000000000000000000000000000000000000000000000000000000 DUP2 MSTORE PUSH1 0x4 ADD PUSH2 0x29D SWAP1 PUSH2 0xE0D JUMP JUMPDEST PUSH1 0x40 MLOAD DUP1 SWAP2 SUB SWAP1 REVERT JUMPDEST POP POP JUMP JUMPDEST PUSH1 0x1 DUP1 PUSH0 ADD DUP1 SLOAD PUSH2 0x2BA SWAP1 PUSH2 0xE58 JUMP JUMPDEST DUP1 PUSH1 0x1F ADD PUSH1 0x20 DUP1 SWAP2 DIV MUL PUSH1 0x20 ADD PUSH1 0x40 MLOAD SWAP1 DUP2 ADD PUSH1 0x40 MSTORE DUP1 SWAP3 SWAP2 SWAP1 DUP2 DUP2 MSTORE PUSH1 0x20 ADD DUP3 DUP1 SLOAD PUSH2 0x2E6 SWAP1 PUSH2 0xE58 JUMP JUMPDEST DUP1 ISZERO PUSH2 0x331 JUMPI DUP1 PUSH1 0x1F LT PUSH2 0x308 JUMPI PUSH2 0x100 DUP1 DUP4 SLOAD DIV MUL DUP4 MSTORE SWAP2 PUSH1 0x20 ADD SWAP2 PUSH2 0x331 JUMP JUMPDEST DUP3 ADD SWAP2 SWAP1 PUSH0 MSTORE PUSH1 0x20 PUSH0 KECCAK256 SWAP1 JUMPDEST DUP2 SLOAD DUP2 MSTORE SWAP1 PUSH1 0x1 ADD SWAP1 PUSH1 0x20 ADD DUP1 DUP4 GT PUSH2 0x314 JUMPI DUP3 SWAP1 SUB PUSH1 0x1F AND DUP3 ADD SWAP2 JUMPDEST POP POP POP POP POP SWAP1 DUP1 PUSH1 0x1 ADD DUP1 SLOAD PUSH2 0x346 SWAP1 PUSH2 0xE58 JUMP JUMPDEST DUP1 PUSH1 0x1F ADD PUSH1 0x20 DUP1 SWAP2 DIV MUL PUSH1 0x20 ADD PUSH1 0x40 MLOAD SWAP1 DUP2 ADD PUSH1 0x40 MSTORE DUP1 SWAP3 SWAP2 SWAP1 DUP2 DUP2 MSTORE PUSH1 0x20 ADD DUP3 DUP1 SLOAD PUSH2 0x372 SWAP1 PUSH2 0xE58 JUMP JUMPDEST DUP1 ISZERO PUSH2 0x3BD JUMPI DUP1 PUSH1 0x1F LT PUSH2 0x394 JUMPI PUSH2 0x100 DUP1 DUP4 SLOAD DIV MUL DUP4 MSTORE SWAP2 PUSH1 0x20 ADD SWAP2 PUSH2 0x3BD JUMP JUMPDEST DUP3 ADD SWAP2 SWAP1 PUSH0 MSTORE PUSH1 0x20 PUSH0 KECCAK256 SWAP1 JUMPDEST DUP2 SLOAD DUP2 MSTORE SWAP1 PUSH1 0x1 ADD SWAP1 PUSH1 0x20 ADD DUP1 DUP4 GT PUSH2 0x3A0 JUMPI DUP3 SWAP1 SUB PUSH1 0x1F AND DUP3 ADD SWAP2 JUMPDEST POP POP POP POP POP SWAP1 DUP1 PUSH1 0x2 ADD DUP1 SLOAD PUSH2 0x3D2 SWAP1 PUSH2 0xE58 JUMP JUMPDEST DUP1 PUSH1 0x1F ADD PUSH1 0x20 DUP1 SWAP2 DIV MUL PUSH1 0x20 ADD PUSH1 0x40 MLOAD SWAP1 DUP2 ADD PUSH1 0x40 MSTORE DUP1 SWAP3 SWAP2 SWAP1 DUP2 DUP2 MSTORE PUSH1 0x20 ADD DUP3 DUP1 SLOAD PUSH2 0x3FE SWAP1 PUSH2 0xE58 JUMP JUMPDEST DUP1 ISZERO PUSH2 0x449 JUMPI DUP1 PUSH1 0x1F LT PUSH2 0x420 JUMPI PUSH2 0x100 DUP1 DUP4 SLOAD DIV MUL DUP4 MSTORE SWAP2 PUSH1 0x20 ADD SWAP2 PUSH2 0x449 JUMP JUMPDEST DUP3 ADD SWAP2 SWAP1 PUSH0 MSTORE PUSH1 0x20 PUSH0 KECCAK256 SWAP1 JUMPDEST DUP2 SLOAD DUP2 MSTORE SWAP1 PUSH1 0x1 ADD SWAP1 PUSH1 0x20 ADD DUP1 DUP4 GT PUSH2 0x42C JUMPI DUP3 SWAP1 SUB PUSH1 0x1F AND DUP3 ADD SWAP2 JUMPDEST POP POP POP POP POP SWAP1 DUP1 PUSH1 0x3 ADD DUP1 SLOAD PUSH2 0x45E SWAP1 PUSH2 0xE58 JUMP JUMPDEST DUP1 PUSH1 0x1F ADD PUSH1 0x20 DUP1 SWAP2 DIV MUL PUSH1 0x20 ADD PUSH1 0x40 MLOAD SWAP1 DUP2 ADD PUSH1 0x40 MSTORE DUP1 SWAP3 SWAP2 SWAP1 DUP2 DUP2 MSTORE PUSH1 0x20 ADD DUP3 DUP1 SLOAD PUSH2 0x48A SWAP1 PUSH2 0xE58 JUMP JUMPDEST DUP1 ISZERO PUSH2 0x4D5 JUMPI DUP1 PUSH1 0x1F LT PUSH2 0x4AC JUMPI PUSH2 0x100 DUP1 DUP4 SLOAD DIV MUL DUP4 MSTORE SWAP2 PUSH1 0x20 ADD SWAP2 PUSH2 0x4D5 JUMP JUMPDEST DUP3 ADD SWAP2 SWAP1 PUSH0 MSTORE PUSH1 0x20 PUSH0 KECCAK256 SWAP1 JUMPDEST DUP2 SLOAD DUP2 MSTORE SWAP1 PUSH1 0x1 ADD SWAP1 PUSH1 0x20 ADD DUP1 DUP4 GT PUSH2 0x4B8 JUMPI DUP3 SWAP1 SUB PUSH1 0x1F AND DUP3 ADD SWAP2 JUMPDEST POP POP POP POP POP SWAP1 DUP1 PUSH1 0x4 ADD DUP1 SLOAD PUSH2 0x4EA SWAP1 PUSH2 0xE58 JUMP JUMPDEST DUP1 PUSH1 0x1F ADD PUSH1 0x20 DUP1 SWAP2 DIV MUL PUSH1 0x20 ADD PUSH1 0x40 MLOAD SWAP1 DUP2 ADD PUSH1 0x40 MSTORE DUP1 SWAP3 SWAP2 SWAP1 DUP2 DUP2 MSTORE PUSH1 0x20 ADD DUP3 DUP1 SLOAD PUSH2 0x516 SWAP1 PUSH2 0xE58 JUMP JUMPDEST DUP1 ISZERO PUSH2 0x561 JUMPI DUP1 PUSH1 0x1F LT PUSH2 0x538 JUMPI PUSH2 0x100 DUP1 DUP4 SLOAD DIV MUL DUP4 MSTORE SWAP2 PUSH1 0x20 ADD SWAP2 PUSH2 0x561 JUMP JUMPDEST DUP3 ADD SWAP2 SWAP1 PUSH0 MSTORE PUSH1 0x20 PUSH0 KECCAK256 SWAP1 JUMPDEST DUP2 SLOAD DUP2 MSTORE SWAP1 PUSH1 0x1 ADD SWAP1 PUSH1 0x20 ADD DUP1 DUP4 GT PUSH2 0x544 JUMPI DUP3 SWAP1 SUB PUSH1 0x1F AND DUP3 ADD SWAP2 JUMPDEST POP POP POP POP POP SWAP1 DUP1 PUSH1 0x5 ADD DUP1 SLOAD PUSH2 0x576 SWAP1 PUSH2 0xE58 JUMP JUMPDEST DUP1 PUSH1 0x1F ADD PUSH1 0x20 DUP1 SWAP2 DIV MUL PUSH1 0x20 ADD PUSH1 0x40 MLOAD SWAP1 DUP2 ADD PUSH1 0x40 MSTORE DUP1 SWAP3 SWAP2 SWAP1 DUP2 DUP2 MSTORE PUSH1 0x20 ADD DUP3 DUP1 SLOAD PUSH2 0x5A2 SWAP1 PUSH2 0xE58 JUMP JUMPDEST DUP1 ISZERO PUSH2 0x5ED JUMPI DUP1 PUSH1 0x1F LT PUSH2 0x5C4 JUMPI PUSH2 0x100 DUP1 DUP4 SLOAD DIV MUL DUP4 MSTORE SWAP2 PUSH1 0x20 ADD SWAP2 PUSH2 0x5ED JUMP JUMPDEST DUP3 ADD SWAP2 SWAP1 PUSH0 MSTORE PUSH1 0x20 PUSH0 KECCAK256 SWAP1 JUMPDEST DUP2 SLOAD DUP2 MSTORE SWAP1 PUSH1 0x1 ADD SWAP1 PUSH1 0x20 ADD DUP1 DUP4 GT PUSH2 0x5D0 JUMPI DUP3 SWAP1 SUB PUSH1 0x1F AND DUP3 ADD SWAP2 JUMPDEST POP POP POP POP POP SWAP1 DUP1 PUSH1 0x6 ADD PUSH0 SWAP1 SLOAD SWAP1 PUSH2 0x100 EXP SWAP1 DIV PUSH0 SIGNEXTEND SWAP1 DUP1 PUSH1 0x6 ADD PUSH1 0x1 SWAP1 SLOAD SWAP1 PUSH2 0x100 EXP SWAP1 DIV PUSH20 0xFFFFFFFFFFFFFFFFFFFFFFFFFFFFFFFFFFFFFFFF AND SWAP1 POP DUP9 JUMP JUMPDEST PUSH7 0x38D7EA4C68000 DUP1 CALLVALUE LT ISZERO PUSH2 0x679 JUMPI PUSH1 0x40 MLOAD PUSH32 0x8C379A000000000000000000000000000000000000000000000000000000000 DUP2 MSTORE PUSH1 0x4 ADD PUSH2 0x670 SWAP1 PUSH2 0xED2 JUMP JUMPDEST PUSH1 0x40 MLOAD DUP1 SWAP2 SUB SWAP1 REVERT JUMPDEST PUSH1 0x40 MLOAD DUP1 PUSH2 0x100 ADD PUSH1 0x40 MSTORE DUP1 DUP10 DUP2 MSTORE PUSH1 0x20 ADD DUP9 DUP2 MSTORE PUSH1 0x20 ADD DUP8 DUP2 MSTORE PUSH1 0x20 ADD DUP7 DUP2 MSTORE PUSH1 0x20 ADD DUP6 DUP2 MSTORE PUSH1 0x20 ADD DUP5 DUP2 MSTORE PUSH1 0x20 ADD DUP4 PUSH0 SIGNEXTEND DUP2 MSTORE PUSH1 0x20 ADD CALLER PUSH20 0xFFFFFFFFFFFFFFFFFFFFFFFFFFFFFFFFFFFFFFFF AND DUP2 MSTORE POP PUSH1 0x1 PUSH0 DUP3 ADD MLOAD DUP2 PUSH0 ADD SWAP1 DUP2 PUSH2 0x6E0 SWAP2 SWAP1 PUSH2 0x108D JUMP JUMPDEST POP PUSH1 0x20 DUP3 ADD MLOAD DUP2 PUSH1 0x1 ADD SWAP1 DUP2 PUSH2 0x6F6 SWAP2 SWAP1 PUSH2 0x108D JUMP JUMPDEST POP PUSH1 0x40 DUP3 ADD MLOAD DUP2 PUSH1 0x2 ADD SWAP1 DUP2 PUSH2 0x70C SWAP2 SWAP1 PUSH2 0x108D JUMP JUMPDEST POP PUSH1 0x60 DUP3 ADD MLOAD DUP2 PUSH1 0x3 ADD SWAP1 DUP2 PUSH2 0x722 SWAP2 SWAP1 PUSH2 0x108D JUMP JUMPDEST POP PUSH1 0x80 DUP3 ADD MLOAD DUP2 PUSH1 0x4 ADD SWAP1 DUP2 PUSH2 0x738 SWAP2 SWAP1 PUSH2 0x108D JUMP JUMPDEST POP PUSH1 0xA0 DUP3 ADD MLOAD DUP2 PUSH1 0x5 ADD SWAP1 DUP2 PUSH2 0x74E SWAP2 SWAP1 PUSH2 0x108D JUMP JUMPDEST POP PUSH1 0xC0 DUP3 ADD MLOAD DUP2 PUSH1 0x6 ADD PUSH0 PUSH2 0x100 EXP DUP2 SLOAD DUP2 PUSH1 0xFF MUL NOT AND SWAP1 DUP4 PUSH0 SIGNEXTEND PUSH1 0xFF AND MUL OR SWAP1 SSTORE POP PUSH1 0xE0 DUP3 ADD MLOAD DUP2 PUSH1 0x6 ADD PUSH1 0x1 PUSH2 0x100 EXP DUP2 SLOAD DUP2 PUSH20 0xFFFFFFFFFFFFFFFFFFFFFFFFFFFFFFFFFFFFFFFF MUL NOT AND SWAP1 DUP4 PUSH20 0xFFFFFFFFFFFFFFFFFFFFFFFFFFFFFFFFFFFFFFFF AND MUL OR SWAP1 SSTORE POP SWAP1 POP POP PUSH32 0x870247EB151FD35C4907322D059C22CBE7EB7930B7B7116D4A107CBBB5378D12 DUP9 DUP9 DUP9 DUP9 DUP9 DUP9 DUP9 CALLER PUSH1 0x40 MLOAD PUSH2 0x7F8 SWAP9 SWAP8 SWAP7 SWAP6 SWAP5 SWAP4 SWAP3 SWAP2 SWAP1 PUSH2 0x927 JUMP JUMPDEST PUSH1 0x40 MLOAD DUP1 SWAP2 SUB SWAP1 LOG1 POP POP POP POP POP POP POP POP JUMP JUMPDEST PUSH0 DUP1 SLOAD SWAP1 PUSH2 0x100 EXP SWAP1 DIV PUSH20 0xFFFFFFFFFFFFFFFFFFFFFFFFFFFFFFFFFFFFFFFF AND DUP2 JUMP JUMPDEST PUSH0 DUP2 SWAP1 POP SWAP2 SWAP1 POP JUMP JUMPDEST PUSH2 0x83F DUP2 PUSH2 0x82D JUMP JUMPDEST DUP3 MSTORE POP POP JUMP JUMPDEST PUSH0 PUSH1 0x20 DUP3 ADD SWAP1 POP PUSH2 0x858 PUSH0 DUP4 ADD DUP5 PUSH2 0x836 JUMP JUMPDEST SWAP3 SWAP2 POP POP JUMP JUMPDEST PUSH0 DUP2 MLOAD SWAP1 POP SWAP2 SWAP1 POP JUMP JUMPDEST PUSH0 DUP3 DUP3 MSTORE PUSH1 0x20 DUP3 ADD SWAP1 POP SWAP3 SWAP2 POP POP JUMP JUMPDEST DUP3 DUP2 DUP4 MCOPY PUSH0 DUP4 DUP4 ADD MSTORE POP POP POP JUMP JUMPDEST PUSH0 PUSH1 0x1F NOT PUSH1 0x1F DUP4 ADD AND SWAP1 POP SWAP2 SWAP1 POP JUMP JUMPDEST PUSH0 PUSH2 0x8A0 DUP3 PUSH2 0x85E JUMP JUMPDEST PUSH2 0x8AA DUP2 DUP6 PUSH2 0x868 JUMP JUMPDEST SWAP4 POP PUSH2 0x8BA DUP2 DUP6 PUSH1 0x20 DUP7 ADD PUSH2 0x878 JUMP JUMPDEST PUSH2 0x8C3 DUP2 PUSH2 0x886 JUMP JUMPDEST DUP5 ADD SWAP2 POP POP SWAP3 SWAP2 POP POP JUMP JUMPDEST PUSH0 DUP2 PUSH0 SIGNEXTEND SWAP1 POP SWAP2 SWAP1 POP JUMP JUMPDEST PUSH2 0x8E2 DUP2 PUSH2 0x8CE JUMP JUMPDEST DUP3 MSTORE POP POP JUMP JUMPDEST PUSH0 PUSH20 0xFFFFFFFFFFFFFFFFFFFFFFFFFFFFFFFFFFFFFFFF DUP3 AND SWAP1 POP SWAP2 SWAP1 POP JUMP JUMPDEST PUSH0 PUSH2 0x911 DUP3 PUSH2 0x8E8 JUMP JUMPDEST SWAP1 POP SWAP2 SWAP1 POP JUMP JUMPDEST PUSH2 0x921 DUP2 PUSH2 0x907 JUMP JUMPDEST DUP3 MSTORE POP POP JUMP JUMPDEST PUSH0 PUSH2 0x100 DUP3 ADD SWAP1 POP DUP2 DUP2 SUB PUSH0 DUP4 ADD MSTORE PUSH2 0x940 DUP2 DUP12 PUSH2 0x896 JUMP JUMPDEST SWAP1 POP DUP2 DUP2 SUB PUSH1 0x20 DUP4 ADD MSTORE PUSH2 0x954 DUP2 DUP11 PUSH2 0x896 JUMP JUMPDEST SWAP1 POP DUP2 DUP2 SUB PUSH1 0x40 DUP4 ADD MSTORE PUSH2 0x968 DUP2 DUP10 PUSH2 0x896 JUMP JUMPDEST SWAP1 POP DUP2 DUP2 SUB PUSH1 0x60 DUP4 ADD MSTORE PUSH2 0x97C DUP2 DUP9 PUSH2 0x896 JUMP JUMPDEST SWAP1 POP DUP2 DUP2 SUB PUSH1 0x80 DUP4 ADD MSTORE PUSH2 0x990 DUP2 DUP8 PUSH2 0x896 JUMP JUMPDEST SWAP1 POP DUP2 DUP2 SUB PUSH1 0xA0 DUP4 ADD MSTORE PUSH2 0x9A4 DUP2 DUP7 PUSH2 0x896 JUMP JUMPDEST SWAP1 POP PUSH2 0x9B3 PUSH1 0xC0 DUP4 ADD DUP6 PUSH2 0x8D9 JUMP JUMPDEST PUSH2 0x9C0 PUSH1 0xE0 DUP4 ADD DUP5 PUSH2 0x918 JUMP JUMPDEST SWAP10 SWAP9 POP POP POP POP POP POP POP POP POP JUMP JUMPDEST PUSH0 PUSH1 0x40 MLOAD SWAP1 POP SWAP1 JUMP JUMPDEST PUSH0 DUP1 REVERT JUMPDEST PUSH0 DUP1 REVERT JUMPDEST PUSH0 DUP1 REVERT JUMPDEST PUSH0 DUP1 REVERT JUMPDEST PUSH32 0x4E487B7100000000000000000000000000000000000000000000000000000000 PUSH0 MSTORE PUSH1 0x41 PUSH1 0x4 MSTORE PUSH1 0x24 PUSH0 REVERT JUMPDEST PUSH2 0xA1C DUP3 PUSH2 0x886 JUMP JUMPDEST DUP2 ADD DUP2 DUP2 LT PUSH8 0xFFFFFFFFFFFFFFFF DUP3 GT OR ISZERO PUSH2 0xA3B JUMPI PUSH2 0xA3A PUSH2 0x9E6 JUMP JUMPDEST JUMPDEST DUP1 PUSH1 0x40 MSTORE POP POP POP JUMP JUMPDEST PUSH0 PUSH2 0xA4D PUSH2 0x9CD JUMP JUMPDEST SWAP1 POP PUSH2 0xA59 DUP3 DUP3 PUSH2 0xA13 JUMP JUMPDEST SWAP2 SWAP1 POP JUMP JUMPDEST PUSH0 PUSH8 0xFFFFFFFFFFFFFFFF DUP3 GT ISZERO PUSH2 0xA78 JUMPI PUSH2 0xA77 PUSH2 0x9E6 JUMP JUMPDEST JUMPDEST PUSH2 0xA81 DUP3 PUSH2 0x886 JUMP JUMPDEST SWAP1 POP PUSH1 0x20 DUP2 ADD SWAP1 POP SWAP2 SWAP1 POP JUMP JUMPDEST DUP3 DUP2 DUP4 CALLDATACOPY PUSH0 DUP4 DUP4 ADD MSTORE POP POP POP JUMP JUMPDEST PUSH0 PUSH2 0xAAE PUSH2 0xAA9 DUP5 PUSH2 0xA5E JUMP JUMPDEST PUSH2 0xA44 JUMP JUMPDEST SWAP1 POP DUP3 DUP2 MSTORE PUSH1 0x20 DUP2 ADD DUP5 DUP5 DUP5 ADD GT ISZERO PUSH2 0xACA JUMPI PUSH2 0xAC9 PUSH2 0x9E2 JUMP JUMPDEST JUMPDEST PUSH2 0xAD5 DUP5 DUP3 DUP6 PUSH2 0xA8E JUMP JUMPDEST POP SWAP4 SWAP3 POP POP POP JUMP JUMPDEST PUSH0 DUP3 PUSH1 0x1F DUP4 ADD SLT PUSH2 0xAF1 JUMPI PUSH2 0xAF0 PUSH2 0x9DE JUMP JUMPDEST JUMPDEST DUP2 CALLDATALOAD PUSH2 0xB01 DUP5 DUP3 PUSH1 0x20 DUP7 ADD PUSH2 0xA9C JUMP JUMPDEST SWAP2 POP POP SWAP3 SWAP2 POP POP JUMP JUMPDEST PUSH2 0xB13 DUP2 PUSH2 0x8CE JUMP JUMPDEST DUP2 EQ PUSH2 0xB1D JUMPI PUSH0 DUP1 REVERT JUMPDEST POP JUMP JUMPDEST PUSH0 DUP2 CALLDATALOAD SWAP1 POP PUSH2 0xB2E DUP2 PUSH2 0xB0A JUMP JUMPDEST SWAP3 SWAP2 POP POP JUMP JUMPDEST PUSH0 DUP1 PUSH0 DUP1 PUSH0 DUP1 PUSH0 PUSH1 0xE0 DUP9 DUP11 SUB SLT ISZERO PUSH2 0xB4F JUMPI PUSH2 0xB4E PUSH2 0x9D6 JUMP JUMPDEST JUMPDEST PUSH0 DUP9 ADD CALLDATALOAD PUSH8 0xFFFFFFFFFFFFFFFF DUP2 GT ISZERO PUSH2 0xB6C JUMPI PUSH2 0xB6B PUSH2 0x9DA JUMP JUMPDEST JUMPDEST PUSH2 0xB78 DUP11 DUP3 DUP12 ADD PUSH2 0xADD JUMP JUMPDEST SWAP8 POP POP PUSH1 0x20 DUP9 ADD CALLDATALOAD PUSH8 0xFFFFFFFFFFFFFFFF DUP2 GT ISZERO PUSH2 0xB99 JUMPI PUSH2 0xB98 PUSH2 0x9DA JUMP JUMPDEST JUMPDEST PUSH2 0xBA5 DUP11 DUP3 DUP12 ADD PUSH2 0xADD JUMP JUMPDEST SWAP7 POP POP PUSH1 0x40 DUP9 ADD CALLDATALOAD PUSH8 0xFFFFFFFFFFFFFFFF DUP2 GT ISZERO PUSH2 0xBC6 JUMPI PUSH2 0xBC5 PUSH2 0x9DA JUMP JUMPDEST JUMPDEST PUSH2 0xBD2 DUP11 DUP3 DUP12 ADD PUSH2 0xADD JUMP JUMPDEST SWAP6 POP POP PUSH1 0x60 DUP9 ADD CALLDATALOAD PUSH8 0xFFFFFFFFFFFFFFFF DUP2 GT ISZERO PUSH2 0xBF3 JUMPI PUSH2 0xBF2 PUSH2 0x9DA JUMP JUMPDEST JUMPDEST PUSH2 0xBFF DUP11 DUP3 DUP12 ADD PUSH2 0xADD JUMP JUMPDEST SWAP5 POP POP PUSH1 0x80 DUP9 ADD CALLDATALOAD PUSH8 0xFFFFFFFFFFFFFFFF DUP2 GT ISZERO PUSH2 0xC20 JUMPI PUSH2 0xC1F PUSH2 0x9DA JUMP JUMPDEST JUMPDEST PUSH2 0xC2C DUP11 DUP3 DUP12 ADD PUSH2 0xADD JUMP JUMPDEST SWAP4 POP POP PUSH1 0xA0 DUP9 ADD CALLDATALOAD PUSH8 0xFFFFFFFFFFFFFFFF DUP2 GT ISZERO PUSH2 0xC4D JUMPI PUSH2 0xC4C PUSH2 0x9DA JUMP JUMPDEST JUMPDEST PUSH2 0xC59 DUP11 DUP3 DUP12 ADD PUSH2 0xADD JUMP JUMPDEST SWAP3 POP POP PUSH1 0xC0 PUSH2 0xC6A DUP11 DUP3 DUP12 ADD PUSH2 0xB20 JUMP JUMPDEST SWAP2 POP POP SWAP3 SWAP6 SWAP9 SWAP2 SWAP5 SWAP8 POP SWAP3 SWAP6 POP JUMP JUMPDEST PUSH0 PUSH2 0xC83 DUP3 PUSH2 0x8E8 JUMP JUMPDEST SWAP1 POP SWAP2 SWAP1 POP JUMP JUMPDEST PUSH2 0xC93 DUP2 PUSH2 0xC79 JUMP JUMPDEST DUP3 MSTORE POP POP JUMP JUMPDEST PUSH0 PUSH1 0x20 DUP3 ADD SWAP1 POP PUSH2 0xCAC PUSH0 DUP4 ADD DUP5 PUSH2 0xC8A JUMP JUMPDEST SWAP3 SWAP2 POP POP JUMP JUMPDEST PUSH32 0x4F6E6C79206F776E65722063616E207769746864726177000000000000000000 PUSH0 DUP3 ADD MSTORE POP JUMP JUMPDEST PUSH0 PUSH2 0xCE6 PUSH1 0x17 DUP4 PUSH2 0x868 JUMP JUMPDEST SWAP2 POP PUSH2 0xCF1 DUP3 PUSH2 0xCB2 JUMP JUMPDEST PUSH1 0x20 DUP3 ADD SWAP1 POP SWAP2 SWAP1 POP JUMP JUMPDEST PUSH0 PUSH1 0x20 DUP3 ADD SWAP1 POP DUP2 DUP2 SUB PUSH0 DUP4 ADD MSTORE PUSH2 0xD13 DUP2 PUSH2 0xCDA JUMP JUMPDEST SWAP1 POP SWAP2 SWAP1 POP JUMP JUMPDEST PUSH32 0x4E6F2066756E647320746F207769746864726177000000000000000000000000 PUSH0 DUP3 ADD MSTORE POP JUMP JUMPDEST PUSH0 PUSH2 0xD4E PUSH1 0x14 DUP4 PUSH2 0x868 JUMP JUMPDEST SWAP2 POP PUSH2 0xD59 DUP3 PUSH2 0xD1A JUMP JUMPDEST PUSH1 0x20 DUP3 ADD SWAP1 POP SWAP2 SWAP1 POP JUMP JUMPDEST PUSH0 PUSH1 0x20 DUP3 ADD SWAP1 POP DUP2 DUP2 SUB PUSH0 DUP4 ADD MSTORE PUSH2 0xD7B DUP2 PUSH2 0xD42 JUMP JUMPDEST SWAP1 POP SWAP2 SWAP1 POP JUMP JUMPDEST PUSH0 DUP2 SWAP1 POP SWAP3 SWAP2 POP POP JUMP JUMPDEST POP JUMP JUMPDEST PUSH0 PUSH2 0xD9A PUSH0 DUP4 PUSH2 0xD82 JUMP JUMPDEST SWAP2 POP PUSH2 0xDA5 DUP3 PUSH2 0xD8C JUMP JUMPDEST PUSH0 DUP3 ADD SWAP1 POP SWAP2 SWAP1 POP JUMP JUMPDEST PUSH0 PUSH2 0xDB9 DUP3 PUSH2 0xD8F JUMP JUMPDEST SWAP2 POP DUP2 SWAP1 POP SWAP2 SWAP1 POP JUMP JUMPDEST PUSH32 0x5472616E73666572206661696C65640000000000000000000000000000000000 PUSH0 DUP3 ADD MSTORE POP JUMP JUMPDEST PUSH0 PUSH2 0xDF7 PUSH1 0xF DUP4 PUSH2 0x868 JUMP JUMPDEST SWAP2 POP PUSH2 0xE02 DUP3 PUSH2 0xDC3 JUMP JUMPDEST PUSH1 0x20 DUP3 ADD SWAP1 POP SWAP2 SWAP1 POP JUMP JUMPDEST PUSH0 PUSH1 0x20 DUP3 ADD SWAP1 POP DUP2 DUP2 SUB PUSH0 DUP4 ADD MSTORE PUSH2 0xE24 DUP2 PUSH2 0xDEB JUMP JUMPDEST SWAP1 POP SWAP2 SWAP1 POP JUMP JUMPDEST PUSH32 0x4E487B7100000000000000000000000000000000000000000000000000000000 PUSH0 MSTORE PUSH1 0x22 PUSH1 0x4 MSTORE PUSH1 0x24 PUSH0 REVERT JUMPDEST PUSH0 PUSH1 0x2 DUP3 DIV SWAP1 POP PUSH1 0x1 DUP3 AND DUP1 PUSH2 0xE6F JUMPI PUSH1 0x7F DUP3 AND SWAP2 POP JUMPDEST PUSH1 0x20 DUP3 LT DUP2 SUB PUSH2 0xE82 JUMPI PUSH2 0xE81 PUSH2 0xE2B JUMP JUMPDEST JUMPDEST POP SWAP2 SWAP1 POP JUMP JUMPDEST PUSH32 0x4E6F7420656E6F75676820415641582073656E74000000000000000000000000 PUSH0 DUP3 ADD MSTORE POP JUMP JUMPDEST PUSH0 PUSH2 0xEBC PUSH1 0x14 DUP4 PUSH2 0x868 JUMP JUMPDEST SWAP2 POP PUSH2 0xEC7 DUP3 PUSH2 0xE88 JUMP JUMPDEST PUSH1 0x20 DUP3 ADD SWAP1 POP SWAP2 SWAP1 POP JUMP JUMPDEST PUSH0 PUSH1 0x20 DUP3 ADD SWAP1 POP DUP2 DUP2 SUB PUSH0 DUP4 ADD MSTORE PUSH2 0xEE9 DUP2 PUSH2 0xEB0 JUMP JUMPDEST SWAP1 POP SWAP2 SWAP1 POP JUMP JUMPDEST PUSH0 DUP2 SWAP1 POP DUP2 PUSH0 MSTORE PUSH1 0x20 PUSH0 KECCAK256 SWAP1 POP SWAP2 SWAP1 POP JUMP JUMPDEST PUSH0 PUSH1 0x20 PUSH1 0x1F DUP4 ADD DIV SWAP1 POP SWAP2 SWAP1 POP JUMP JUMPDEST PUSH0 DUP3 DUP3 SHL SWAP1 POP SWAP3 SWAP2 POP POP JUMP JUMPDEST PUSH0 PUSH1 0x8 DUP4 MUL PUSH2 0xF4C PUSH32 0xFFFFFFFFFFFFFFFFFFFFFFFFFFFFFFFFFFFFFFFFFFFFFFFFFFFFFFFFFFFFFFFF DUP3 PUSH2 0xF11 JUMP JUMPDEST PUSH2 0xF56 DUP7 DUP4 PUSH2 0xF11 JUMP JUMPDEST SWAP6 POP DUP1 NOT DUP5 AND SWAP4 POP DUP1 DUP7 AND DUP5 OR SWAP3 POP POP POP SWAP4 SWAP3 POP POP POP JUMP JUMPDEST PUSH0 DUP2 SWAP1 POP SWAP2 SWAP1 POP JUMP JUMPDEST PUSH0 PUSH2 0xF91 PUSH2 0xF8C PUSH2 0xF87 DUP5 PUSH2 0x82D JUMP JUMPDEST PUSH2 0xF6E JUMP JUMPDEST PUSH2 0x82D JUMP JUMPDEST SWAP1 POP SWAP2 SWAP1 POP JUMP JUMPDEST PUSH0 DUP2 SWAP1 POP SWAP2 SWAP1 POP JUMP JUMPDEST PUSH2 0xFAA DUP4 PUSH2 0xF77 JUMP JUMPDEST PUSH2 0xFBE PUSH2 0xFB6 DUP3 PUSH2 0xF98 JUMP JUMPDEST DUP5 DUP5 SLOAD PUSH2 0xF1D JUMP JUMPDEST DUP3 SSTORE POP POP POP POP JUMP JUMPDEST PUSH0 SWAP1 JUMP JUMPDEST PUSH2 0xFD2 PUSH2 0xFC6 JUMP JUMPDEST PUSH2 0xFDD DUP2 DUP5 DUP5 PUSH2 0xFA1 JUMP JUMPDEST POP POP POP JUMP JUMPDEST JUMPDEST DUP2 DUP2 LT ISZERO PUSH2 0x1000 JUMPI PUSH2 0xFF5 PUSH0 DUP3 PUSH2 0xFCA JUMP JUMPDEST PUSH1 0x1 DUP2 ADD SWAP1 POP PUSH2 0xFE3 JUMP JUMPDEST POP POP JUMP JUMPDEST PUSH1 0x1F DUP3 GT ISZERO PUSH2 0x1045 JUMPI PUSH2 0x1016 DUP2 PUSH2 0xEF0 JUMP JUMPDEST PUSH2 0x101F DUP5 PUSH2 0xF02 JUMP JUMPDEST DUP2 ADD PUSH1 0x20 DUP6 LT ISZERO PUSH2 0x102E JUMPI DUP2 SWAP1 POP JUMPDEST PUSH2 0x1042 PUSH2 0x103A DUP6 PUSH2 0xF02 JUMP JUMPDEST DUP4 ADD DUP3 PUSH2 0xFE2 JUMP JUMPDEST POP POP JUMPDEST POP POP POP JUMP JUMPDEST PUSH0 DUP3 DUP3 SHR SWAP1 POP SWAP3 SWAP2 POP POP JUMP JUMPDEST PUSH0 PUSH2 0x1065 PUSH0 NOT DUP5 PUSH1 0x8 MUL PUSH2 0x104A JUMP JUMPDEST NOT DUP1 DUP4 AND SWAP2 POP POP SWAP3 SWAP2 POP POP JUMP JUMPDEST PUSH0 PUSH2 0x107D DUP4 DUP4 PUSH2 0x1056 JUMP JUMPDEST SWAP2 POP DUP3 PUSH1 0x2 MUL DUP3 OR SWAP1 POP SWAP3 SWAP2 POP POP JUMP JUMPDEST PUSH2 0x1096 DUP3 PUSH2 0x85E JUMP JUMPDEST PUSH8 0xFFFFFFFFFFFFFFFF DUP2 GT ISZERO PUSH2 0x10AF JUMPI PUSH2 0x10AE PUSH2 0x9E6 JUMP JUMPDEST JUMPDEST PUSH2 0x10B9 DUP3 SLOAD PUSH2 0xE58 JUMP JUMPDEST PUSH2 0x10C4 DUP3 DUP3 DUP6 PUSH2 0x1004 JUMP JUMPDEST PUSH0 PUSH1 0x20 SWAP1 POP PUSH1 0x1F DUP4 GT PUSH1 0x1 DUP2 EQ PUSH2 0x10F5 JUMPI PUSH0 DUP5 ISZERO PUSH2 0x10E3 JUMPI DUP3 DUP8 ADD MLOAD SWAP1 POP JUMPDEST PUSH2 0x10ED DUP6 DUP3 PUSH2 0x1072 JUMP JUMPDEST DUP7 SSTORE POP PUSH2 0x1154 JUMP JUMPDEST PUSH1 0x1F NOT DUP5 AND PUSH2 0x1103 DUP7 PUSH2 0xEF0 JUMP JUMPDEST PUSH0 JUMPDEST DUP3 DUP2 LT ISZERO PUSH2 0x112A JUMPI DUP5 DUP10 ADD MLOAD DUP3 SSTORE PUSH1 0x1 DUP3 ADD SWAP2 POP PUSH1 0x20 DUP6 ADD SWAP5 POP PUSH1 0x20 DUP2 ADD SWAP1 POP PUSH2 0x1105 JUMP JUMPDEST DUP7 DUP4 LT ISZERO PUSH2 0x1147 JUMPI DUP5 DUP10 ADD MLOAD PUSH2 0x1143 PUSH1 0x1F DUP10 AND DUP3 PUSH2 0x1056 JUMP JUMPDEST DUP4 SSTORE POP JUMPDEST PUSH1 0x1 PUSH1 0x2 DUP9 MUL ADD DUP9 SSTORE POP POP POP JUMPDEST POP POP POP POP POP POP JUMP INVALID LOG2 PUSH5 0x6970667358 0x22 SLT KECCAK256 PUSH9 0x69A9B600F71FF4684 0xB1 PUSH1 0x64 0xCD DUP12 PUSH24 0x3FEEC931E917BCC277EACC7B8A80783764736F6C63430008 NOT STOP CALLER "
				},
				"gasEstimates": {
					"creation": {
						"codeDepositCost": "899600",
						"executionCost": "25198",
						"totalCost": "924798"
					},
					"external": {
						"data()": "infinite",
						"getBalance()": "312",
						"owner()": "2571",
						"pushData(string,string,string,string,string,string,int8)": "infinite",
						"withdraw()": "infinite"
					}
				},
				"methodIdentifiers": {
					"data()": "73d4a13a",
					"getBalance()": "12065fe0",
					"owner()": "8da5cb5b",
					"pushData(string,string,string,string,string,string,int8)": "782154df",
					"withdraw()": "3ccfd60b"
				}
			},
			"storageLayout": {
				"storage": [
					{
						"astId": 3,
						"contract": "tc_avax.sol:tc_avax",
						"label": "owner",
						"offset": 0,
						"slot": "0",
						"type": "t_address_payable"
					},
					{
						"astId": 23,
						"contract": "tc_avax.sol:tc_avax",
						"label": "data",
						"offset": 0,
						"slot": "1",
						"type": "t_struct(Data)20_storage"
					}
				],
				"types": {
					"t_address": {
						"encoding": "inplace",
						"label": "address",
						"numberOfBytes": "20"
					},
					"t_address_payable": {
						"encoding": "inplace",
						"label": "address payable",
						"numberOfBytes": "20"
					},
					"t_int8": {
						"encoding": "inplace",
						"label": "int8",
						"numberOfBytes": "1"
					},
					"t_string_storage": {
						"encoding": "bytes",
						"label": "string",
						"numberOfBytes": "32"
					},
					"t_struct(Data)20_storage": {
						"encoding": "inplace",
						"label": "struct tc_avax.Data",
						"members": [
							{
								"astId": 5,
								"contract": "tc_avax.sol:tc_avax",
								"label": "date",
								"offset": 0,
								"slot": "0",
								"type": "t_string_storage"
							},
							{
								"astId": 7,
								"contract": "tc_avax.sol:tc_avax",
								"label": "delivery_date",
								"offset": 0,
								"slot": "1",
								"type": "t_string_storage"
							},
							{
								"astId": 9,
								"contract": "tc_avax.sol:tc_avax",
								"label": "product",
								"offset": 0,
								"slot": "2",
								"type": "t_string_storage"
							},
							{
								"astId": 11,
								"contract": "tc_avax.sol:tc_avax",
								"label": "price",
								"offset": 0,
								"slot": "3",
								"type": "t_string_storage"
							},
							{
								"astId": 13,
								"contract": "tc_avax.sol:tc_avax",
								"label": "code",
								"offset": 0,
								"slot": "4",
								"type": "t_string_storage"
							},
							{
								"astId": 15,
								"contract": "tc_avax.sol:tc_avax",
								"label": "cel_number",
								"offset": 0,
								"slot": "5",
								"type": "t_string_storage"
							},
							{
								"astId": 17,
								"contract": "tc_avax.sol:tc_avax",
								"label": "status",
								"offset": 0,
								"slot": "6",
								"type": "t_int8"
							},
							{
								"astId": 19,
								"contract": "tc_avax.sol:tc_avax",
								"label": "wallet",
								"offset": 1,
								"slot": "6",
								"type": "t_address"
							}
						],
						"numberOfBytes": "224"
					}
				}
			},
			"userdoc": {
				"kind": "user",
				"methods": {},
				"version": 1
			}
		}
	}
}