{
	"data": {
		"bytecode": {
			"linkReferences": {},
			"object": "608060405234801561000f575f80fd5b50335f806101000a81548173ffffffffffffffffffffffffffffffffffffffff021916908373ffffffffffffffffffffffffffffffffffffffff1602179055506111ac8061005c5f395ff3fe608060405260043610610049575f3560e01c806312065fe01461004d5780633ccfd60b1461007757806373d4a13a1461008d578063782154df146100be5780638da5cb5b146100da575b5f80fd5b348015610058575f80fd5b50610061610104565b60405161006e9190610845565b60405180910390f35b348015610082575f80fd5b5061008b61010b565b005b348015610098575f80fd5b506100a16102aa565b6040516100b5989796959493929190610941565b60405180910390f35b6100d860048036038101906100d39190610b4e565b61062e565b005b3480156100e5575f80fd5b506100ee61080a565b6040516100fb9190610cb3565b60405180910390f35b5f47905090565b5f8054906101000a900473ffffffffffffffffffffffffffffffffffffffff1673ffffffffffffffffffffffffffffffffffffffff163373ffffffffffffffffffffffffffffffffffffffff1614610198576040517f08c379a000000000000000000000000000000000000000000000000000000000815260040161018f90610d16565b60405180910390fd5b5f4790505f81116101de576040517f08c379a00000000000000000000000000000000000000000000000000000000081526004016101d590610d7e565b60405180910390fd5b5f805f9054906101000a900473ffffffffffffffffffffffffffffffffffffffff1673ffffffffffffffffffffffffffffffffffffffff168260405161022390610dc9565b5f6040518083038185875af1925050503d805f811461025d576040519150601f19603f3d011682016040523d82523d5f602084013e610262565b606091505b50509050806102a6576040517f08c379a000000000000000000000000000000000000000000000000000000000815260040161029d90610e27565b60405180910390fd5b5050565b6001805f0180546102ba90610e72565b80601f01602080910402602001604051908101604052809291908181526020018280546102e690610e72565b80156103315780601f1061030857610100808354040283529160200191610331565b820191905f5260205f20905b81548152906001019060200180831161031457829003601f168201915b50505050509080600101805461034690610e72565b80601f016020809104026020016040519081016040528092919081815260200182805461037290610e72565b80156103bd5780601f10610394576101008083540402835291602001916103bd565b820191905f5260205f20905b8154815290600101906020018083116103a057829003601f168201915b5050505050908060020180546103d290610e72565b80601f01602080910402602001604051908101604052809291908181526020018280546103fe90610e72565b80156104495780601f1061042057610100808354040283529160200191610449565b820191905f5260205f20905b81548152906001019060200180831161042c57829003601f168201915b50505050509080600301805461045e90610e72565b80601f016020809104026020016040519081016040528092919081815260200182805461048a90610e72565b80156104d55780601f106104ac576101008083540402835291602001916104d5565b820191905f5260205f20905b8154815290600101906020018083116104b857829003601f168201915b5050505050908060040180546104ea90610e72565b80601f016020809104026020016040519081016040528092919081815260200182805461051690610e72565b80156105615780601f1061053857610100808354040283529160200191610561565b820191905f5260205f20905b81548152906001019060200180831161054457829003601f168201915b50505050509080600501805461057690610e72565b80601f01602080910402602001604051908101604052809291908181526020018280546105a290610e72565b80156105ed5780601f106105c4576101008083540402835291602001916105ed565b820191905f5260205f20905b8154815290600101906020018083116105d057829003601f168201915b505050505090806006015f9054906101000a90045f0b908060060160019054906101000a900473ffffffffffffffffffffffffffffffffffffffff16905088565b66038d7ea4c6800080341015610679576040517f08c379a000000000000000000000000000000000000000000000000000000000815260040161067090610eec565b60405180910390fd5b604051806101000160405280898152602001888152602001878152602001868152602001858152602001848152602001835f0b81526020013373ffffffffffffffffffffffffffffffffffffffff1681525060015f820151815f0190816106e091906110a7565b5060208201518160010190816106f691906110a7565b50604082015181600201908161070c91906110a7565b50606082015181600301908161072291906110a7565b50608082015181600401908161073891906110a7565b5060a082015181600501908161074e91906110a7565b5060c0820151816006015f6101000a81548160ff02191690835f0b60ff16021790555060e08201518160060160016101000a81548173ffffffffffffffffffffffffffffffffffffffff021916908373ffffffffffffffffffffffffffffffffffffffff1602179055509050507f870247eb151fd35c4907322d059c22cbe7eb7930b7b7116d4a107cbbb5378d1288888888888888336040516107f8989796959493929190610941565b60405180910390a15050505050505050565b5f8054906101000a900473ffffffffffffffffffffffffffffffffffffffff1681565b5f819050919050565b61083f8161082d565b82525050565b5f6020820190506108585f830184610836565b92915050565b5f81519050919050565b5f82825260208201905092915050565b5f5b8381101561089557808201518184015260208101905061087a565b5f8484015250505050565b5f601f19601f8301169050919050565b5f6108ba8261085e565b6108c48185610868565b93506108d4818560208601610878565b6108dd816108a0565b840191505092915050565b5f815f0b9050919050565b6108fc816108e8565b82525050565b5f73ffffffffffffffffffffffffffffffffffffffff82169050919050565b5f61092b82610902565b9050919050565b61093b81610921565b82525050565b5f610100820190508181035f83015261095a818b6108b0565b9050818103602083015261096e818a6108b0565b9050818103604083015261098281896108b0565b9050818103606083015261099681886108b0565b905081810360808301526109aa81876108b0565b905081810360a08301526109be81866108b0565b90506109cd60c08301856108f3565b6109da60e0830184610932565b9998505050505050505050565b5f604051905090565b5f80fd5b5f80fd5b5f80fd5b5f80fd5b7f4e487b71000000000000000000000000000000000000000000000000000000005f52604160045260245ffd5b610a36826108a0565b810181811067ffffffffffffffff82111715610a5557610a54610a00565b5b80604052505050565b5f610a676109e7565b9050610a738282610a2d565b919050565b5f67ffffffffffffffff821115610a9257610a91610a00565b5b610a9b826108a0565b9050602081019050919050565b828183375f83830152505050565b5f610ac8610ac384610a78565b610a5e565b905082815260208101848484011115610ae457610ae36109fc565b5b610aef848285610aa8565b509392505050565b5f82601f830112610b0b57610b0a6109f8565b5b8135610b1b848260208601610ab6565b91505092915050565b610b2d816108e8565b8114610b37575f80fd5b50565b5f81359050610b4881610b24565b92915050565b5f805f805f805f60e0888a031215610b6957610b686109f0565b5b5f88013567ffffffffffffffff811115610b8657610b856109f4565b5b610b928a828b01610af7565b975050602088013567ffffffffffffffff811115610bb357610bb26109f4565b5b610bbf8a828b01610af7565b965050604088013567ffffffffffffffff811115610be057610bdf6109f4565b5b610bec8a828b01610af7565b955050606088013567ffffffffffffffff811115610c0d57610c0c6109f4565b5b610c198a828b01610af7565b945050608088013567ffffffffffffffff811115610c3a57610c396109f4565b5b610c468a828b01610af7565b93505060a088013567ffffffffffffffff811115610c6757610c666109f4565b5b610c738a828b01610af7565b92505060c0610c848a828b01610b3a565b91505092959891949750929550565b5f610c9d82610902565b9050919050565b610cad81610c93565b82525050565b5f602082019050610cc65f830184610ca4565b92915050565b7f4f6e6c79206f776e65722063616e2077697468647261770000000000000000005f82015250565b5f610d00601783610868565b9150610d0b82610ccc565b602082019050919050565b5f6020820190508181035f830152610d2d81610cf4565b9050919050565b7f4e6f2066756e647320746f2077697468647261770000000000000000000000005f82015250565b5f610d68601483610868565b9150610d7382610d34565b602082019050919050565b5f6020820190508181035f830152610d9581610d5c565b9050919050565b5f81905092915050565b50565b5f610db45f83610d9c565b9150610dbf82610da6565b5f82019050919050565b5f610dd382610da9565b9150819050919050565b7f5472616e73666572206661696c656400000000000000000000000000000000005f82015250565b5f610e11600f83610868565b9150610e1c82610ddd565b602082019050919050565b5f6020820190508181035f830152610e3e81610e05565b9050919050565b7f4e487b71000000000000000000000000000000000000000000000000000000005f52602260045260245ffd5b5f6002820490506001821680610e8957607f821691505b602082108103610e9c57610e9b610e45565b5b50919050565b7f4e6f7420656e6f75676820415641582073656e740000000000000000000000005f82015250565b5f610ed6601483610868565b9150610ee182610ea2565b602082019050919050565b5f6020820190508181035f830152610f0381610eca565b9050919050565b5f819050815f5260205f209050919050565b5f6020601f8301049050919050565b5f82821b905092915050565b5f60088302610f667fffffffffffffffffffffffffffffffffffffffffffffffffffffffffffffffff82610f2b565b610f708683610f2b565b95508019841693508086168417925050509392505050565b5f819050919050565b5f610fab610fa6610fa18461082d565b610f88565b61082d565b9050919050565b5f819050919050565b610fc483610f91565b610fd8610fd082610fb2565b848454610f37565b825550505050565b5f90565b610fec610fe0565b610ff7818484610fbb565b505050565b5b8181101561101a5761100f5f82610fe4565b600181019050610ffd565b5050565b601f82111561105f5761103081610f0a565b61103984610f1c565b81016020851015611048578190505b61105c61105485610f1c565b830182610ffc565b50505b505050565b5f82821c905092915050565b5f61107f5f1984600802611064565b1980831691505092915050565b5f6110978383611070565b9150826002028217905092915050565b6110b08261085e565b67ffffffffffffffff8111156110c9576110c8610a00565b5b6110d38254610e72565b6110de82828561101e565b5f60209050601f83116001811461110f575f84156110fd578287015190505b611107858261108c565b86555061116e565b601f19841661111d86610f0a565b5f5b828110156111445784890151825560018201915060208501945060208101905061111f565b86831015611161578489015161115d601f891682611070565b8355505b6001600288020188555050505b50505050505056fea26469706673582212208cd8914f3466701824a6e3798009c7dc81dd2f332fef5aeda591cfc6eaf9bc9164736f6c63430008180033",
			"opcodes": "PUSH1 0x80 PUSH1 0x40 MSTORE CALLVALUE DUP1 ISZERO PUSH2 0xF JUMPI PUSH0 DUP1 REVERT JUMPDEST POP CALLER PUSH0 DUP1 PUSH2 0x100 EXP DUP2 SLOAD DUP2 PUSH20 0xFFFFFFFFFFFFFFFFFFFFFFFFFFFFFFFFFFFFFFFF MUL NOT AND SWAP1 DUP4 PUSH20 0xFFFFFFFFFFFFFFFFFFFFFFFFFFFFFFFFFFFFFFFF AND MUL OR SWAP1 SSTORE POP PUSH2 0x11AC DUP1 PUSH2 0x5C PUSH0 CODECOPY PUSH0 RETURN INVALID PUSH1 0x80 PUSH1 0x40 MSTORE PUSH1 0x4 CALLDATASIZE LT PUSH2 0x49 JUMPI PUSH0 CALLDATALOAD PUSH1 0xE0 SHR DUP1 PUSH4 0x12065FE0 EQ PUSH2 0x4D JUMPI DUP1 PUSH4 0x3CCFD60B EQ PUSH2 0x77 JUMPI DUP1 PUSH4 0x73D4A13A EQ PUSH2 0x8D JUMPI DUP1 PUSH4 0x782154DF EQ PUSH2 0xBE JUMPI DUP1 PUSH4 0x8DA5CB5B EQ PUSH2 0xDA JUMPI JUMPDEST PUSH0 DUP1 REVERT JUMPDEST CALLVALUE DUP1 ISZERO PUSH2 0x58 JUMPI PUSH0 DUP1 REVERT JUMPDEST POP PUSH2 0x61 PUSH2 0x104 JUMP JUMPDEST PUSH1 0x40 MLOAD PUSH2 0x6E SWAP2 SWAP1 PUSH2 0x845 JUMP JUMPDEST PUSH1 0x40 MLOAD DUP1 SWAP2 SUB SWAP1 RETURN JUMPDEST CALLVALUE DUP1 ISZERO PUSH2 0x82 JUMPI PUSH0 DUP1 REVERT JUMPDEST POP PUSH2 0x8B PUSH2 0x10B JUMP JUMPDEST STOP JUMPDEST CALLVALUE DUP1 ISZERO PUSH2 0x98 JUMPI PUSH0 DUP1 REVERT JUMPDEST POP PUSH2 0xA1 PUSH2 0x2AA JUMP JUMPDEST PUSH1 0x40 MLOAD PUSH2 0xB5 SWAP9 SWAP8 SWAP7 SWAP6 SWAP5 SWAP4 SWAP3 SWAP2 SWAP1 PUSH2 0x941 JUMP JUMPDEST PUSH1 0x40 MLOAD DUP1 SWAP2 SUB SWAP1 RETURN JUMPDEST PUSH2 0xD8 PUSH1 0x4 DUP1 CALLDATASIZE SUB DUP2 ADD SWAP1 PUSH2 0xD3 SWAP2 SWAP1 PUSH2 0xB4E JUMP JUMPDEST PUSH2 0x62E JUMP JUMPDEST STOP JUMPDEST CALLVALUE DUP1 ISZERO PUSH2 0xE5 JUMPI PUSH0 DUP1 REVERT JUMPDEST POP PUSH2 0xEE PUSH2 0x80A JUMP JUMPDEST PUSH1 0x40 MLOAD PUSH2 0xFB SWAP2 SWAP1 PUSH2 0xCB3 JUMP JUMPDEST PUSH1 0x40 MLOAD DUP1 SWAP2 SUB SWAP1 RETURN JUMPDEST PUSH0 SELFBALANCE SWAP1 POP SWAP1 JUMP JUMPDEST PUSH0 DUP1 SLOAD SWAP1 PUSH2 0x100 EXP SWAP1 DIV PUSH20 0xFFFFFFFFFFFFFFFFFFFFFFFFFFFFFFFFFFFFFFFF AND PUSH20 0xFFFFFFFFFFFFFFFFFFFFFFFFFFFFFFFFFFFFFFFF AND CALLER PUSH20 0xFFFFFFFFFFFFFFFFFFFFFFFFFFFFFFFFFFFFFFFF AND EQ PUSH2 0x198 JUMPI PUSH1 0x40 MLOAD PUSH32 0x8C379A000000000000000000000000000000000000000000000000000000000 DUP2 MSTORE PUSH1 0x4 ADD PUSH2 0x18F SWAP1 PUSH2 0xD16 JUMP JUMPDEST PUSH1 0x40 MLOAD DUP1 SWAP2 SUB SWAP1 REVERT JUMPDEST PUSH0 SELFBALANCE SWAP1 POP PUSH0 DUP2 GT PUSH2 0x1DE JUMPI PUSH1 0x40 MLOAD PUSH32 0x8C379A000000000000000000000000000000000000000000000000000000000 DUP2 MSTORE PUSH1 0x4 ADD PUSH2 0x1D5 SWAP1 PUSH2 0xD7E JUMP JUMPDEST PUSH1 0x40 MLOAD DUP1 SWAP2 SUB SWAP1 REVERT JUMPDEST PUSH0 DUP1 PUSH0 SWAP1 SLOAD SWAP1 PUSH2 0x100 EXP SWAP1 DIV PUSH20 0xFFFFFFFFFFFFFFFFFFFFFFFFFFFFFFFFFFFFFFFF AND PUSH20 0xFFFFFFFFFFFFFFFFFFFFFFFFFFFFFFFFFFFFFFFF AND DUP3 PUSH1 0x40 MLOAD PUSH2 0x223 SWAP1 PUSH2 0xDC9 JUMP JUMPDEST PUSH0 PUSH1 0x40 MLOAD DUP1 DUP4 SUB DUP2 DUP6 DUP8 GAS CALL SWAP3 POP POP POP RETURNDATASIZE DUP1 PUSH0 DUP2 EQ PUSH2 0x25D JUMPI PUSH1 0x40 MLOAD SWAP2 POP PUSH1 0x1F NOT PUSH1 0x3F RETURNDATASIZE ADD AND DUP3 ADD PUSH1 0x40 MSTORE RETURNDATASIZE DUP3 MSTORE RETURNDATASIZE PUSH0 PUSH1 0x20 DUP5 ADD RETURNDATACOPY PUSH2 0x262 JUMP JUMPDEST PUSH1 0x60 SWAP2 POP JUMPDEST POP POP SWAP1 POP DUP1 PUSH2 0x2A6 JUMPI PUSH1 0x40 MLOAD PUSH32 0x8C379A000000000000000000000000000000000000000000000000000000000 DUP2 MSTORE PUSH1 0x4 ADD PUSH2 0x29D SWAP1 PUSH2 0xE27 JUMP JUMPDEST PUSH1 0x40 MLOAD DUP1 SWAP2 SUB SWAP1 REVERT JUMPDEST POP POP JUMP JUMPDEST PUSH1 0x1 DUP1 PUSH0 ADD DUP1 SLOAD PUSH2 0x2BA SWAP1 PUSH2 0xE72 JUMP JUMPDEST DUP1 PUSH1 0x1F ADD PUSH1 0x20 DUP1 SWAP2 DIV MUL PUSH1 0x20 ADD PUSH1 0x40 MLOAD SWAP1 DUP2 ADD PUSH1 0x40 MSTORE DUP1 SWAP3 SWAP2 SWAP1 DUP2 DUP2 MSTORE PUSH1 0x20 ADD DUP3 DUP1 SLOAD PUSH2 0x2E6 SWAP1 PUSH2 0xE72 JUMP JUMPDEST DUP1 ISZERO PUSH2 0x331 JUMPI DUP1 PUSH1 0x1F LT PUSH2 0x308 JUMPI PUSH2 0x100 DUP1 DUP4 SLOAD DIV MUL DUP4 MSTORE SWAP2 PUSH1 0x20 ADD SWAP2 PUSH2 0x331 JUMP JUMPDEST DUP3 ADD SWAP2 SWAP1 PUSH0 MSTORE PUSH1 0x20 PUSH0 KECCAK256 SWAP1 JUMPDEST DUP2 SLOAD DUP2 MSTORE SWAP1 PUSH1 0x1 ADD SWAP1 PUSH1 0x20 ADD DUP1 DUP4 GT PUSH2 0x314 JUMPI DUP3 SWAP1 SUB PUSH1 0x1F AND DUP3 ADD SWAP2 JUMPDEST POP POP POP POP POP SWAP1 DUP1 PUSH1 0x1 ADD DUP1 SLOAD PUSH2 0x346 SWAP1 PUSH2 0xE72 JUMP JUMPDEST DUP1 PUSH1 0x1F ADD PUSH1 0x20 DUP1 SWAP2 DIV MUL PUSH1 0x20 ADD PUSH1 0x40 MLOAD SWAP1 DUP2 ADD PUSH1 0x40 MSTORE DUP1 SWAP3 SWAP2 SWAP1 DUP2 DUP2 MSTORE PUSH1 0x20 ADD DUP3 DUP1 SLOAD PUSH2 0x372 SWAP1 PUSH2 0xE72 JUMP JUMPDEST DUP1 ISZERO PUSH2 0x3BD JUMPI DUP1 PUSH1 0x1F LT PUSH2 0x394 JUMPI PUSH2 0x100 DUP1 DUP4 SLOAD DIV MUL DUP4 MSTORE SWAP2 PUSH1 0x20 ADD SWAP2 PUSH2 0x3BD JUMP JUMPDEST DUP3 ADD SWAP2 SWAP1 PUSH0 MSTORE PUSH1 0x20 PUSH0 KECCAK256 SWAP1 JUMPDEST DUP2 SLOAD DUP2 MSTORE SWAP1 PUSH1 0x1 ADD SWAP1 PUSH1 0x20 ADD DUP1 DUP4 GT PUSH2 0x3A0 JUMPI DUP3 SWAP1 SUB PUSH1 0x1F AND DUP3 ADD SWAP2 JUMPDEST POP POP POP POP POP SWAP1 DUP1 PUSH1 0x2 ADD DUP1 SLOAD PUSH2 0x3D2 SWAP1 PUSH2 0xE72 JUMP JUMPDEST DUP1 PUSH1 0x1F ADD PUSH1 0x20 DUP1 SWAP2 DIV MUL PUSH1 0x20 ADD PUSH1 0x40 MLOAD SWAP1 DUP2 ADD PUSH1 0x40 MSTORE DUP1 SWAP3 SWAP2 SWAP1 DUP2 DUP2 MSTORE PUSH1 0x20 ADD DUP3 DUP1 SLOAD PUSH2 0x3FE SWAP1 PUSH2 0xE72 JUMP JUMPDEST DUP1 ISZERO PUSH2 0x449 JUMPI DUP1 PUSH1 0x1F LT PUSH2 0x420 JUMPI PUSH2 0x100 DUP1 DUP4 SLOAD DIV MUL DUP4 MSTORE SWAP2 PUSH1 0x20 ADD SWAP2 PUSH2 0x449 JUMP JUMPDEST DUP3 ADD SWAP2 SWAP1 PUSH0 MSTORE PUSH1 0x20 PUSH0 KECCAK256 SWAP1 JUMPDEST DUP2 SLOAD DUP2 MSTORE SWAP1 PUSH1 0x1 ADD SWAP1 PUSH1 0x20 ADD DUP1 DUP4 GT PUSH2 0x42C JUMPI DUP3 SWAP1 SUB PUSH1 0x1F AND DUP3 ADD SWAP2 JUMPDEST POP POP POP POP POP SWAP1 DUP1 PUSH1 0x3 ADD DUP1 SLOAD PUSH2 0x45E SWAP1 PUSH2 0xE72 JUMP JUMPDEST DUP1 PUSH1 0x1F ADD PUSH1 0x20 DUP1 SWAP2 DIV MUL PUSH1 0x20 ADD PUSH1 0x40 MLOAD SWAP1 DUP2 ADD PUSH1 0x40 MSTORE DUP1 SWAP3 SWAP2 SWAP1 DUP2 DUP2 MSTORE PUSH1 0x20 ADD DUP3 DUP1 SLOAD PUSH2 0x48A SWAP1 PUSH2 0xE72 JUMP JUMPDEST DUP1 ISZERO PUSH2 0x4D5 JUMPI DUP1 PUSH1 0x1F LT PUSH2 0x4AC JUMPI PUSH2 0x100 DUP1 DUP4 SLOAD DIV MUL DUP4 MSTORE SWAP2 PUSH1 0x20 ADD SWAP2 PUSH2 0x4D5 JUMP JUMPDEST DUP3 ADD SWAP2 SWAP1 PUSH0 MSTORE PUSH1 0x20 PUSH0 KECCAK256 SWAP1 JUMPDEST DUP2 SLOAD DUP2 MSTORE SWAP1 PUSH1 0x1 ADD SWAP1 PUSH1 0x20 ADD DUP1 DUP4 GT PUSH2 0x4B8 JUMPI DUP3 SWAP1 SUB PUSH1 0x1F AND DUP3 ADD SWAP2 JUMPDEST POP POP POP POP POP SWAP1 DUP1 PUSH1 0x4 ADD DUP1 SLOAD PUSH2 0x4EA SWAP1 PUSH2 0xE72 JUMP JUMPDEST DUP1 PUSH1 0x1F ADD PUSH1 0x20 DUP1 SWAP2 DIV MUL PUSH1 0x20 ADD PUSH1 0x40 MLOAD SWAP1 DUP2 ADD PUSH1 0x40 MSTORE DUP1 SWAP3 SWAP2 SWAP1 DUP2 DUP2 MSTORE PUSH1 0x20 ADD DUP3 DUP1 SLOAD PUSH2 0x516 SWAP1 PUSH2 0xE72 JUMP JUMPDEST DUP1 ISZERO PUSH2 0x561 JUMPI DUP1 PUSH1 0x1F LT PUSH2 0x538 JUMPI PUSH2 0x100 DUP1 DUP4 SLOAD DIV MUL DUP4 MSTORE SWAP2 PUSH1 0x20 ADD SWAP2 PUSH2 0x561 JUMP JUMPDEST DUP3 ADD SWAP2 SWAP1 PUSH0 MSTORE PUSH1 0x20 PUSH0 KECCAK256 SWAP1 JUMPDEST DUP2 SLOAD DUP2 MSTORE SWAP1 PUSH1 0x1 ADD SWAP1 PUSH1 0x20 ADD DUP1 DUP4 GT PUSH2 0x544 JUMPI DUP3 SWAP1 SUB PUSH1 0x1F AND DUP3 ADD SWAP2 JUMPDEST POP POP POP POP POP SWAP1 DUP1 PUSH1 0x5 ADD DUP1 SLOAD PUSH2 0x576 SWAP1 PUSH2 0xE72 JUMP JUMPDEST DUP1 PUSH1 0x1F ADD PUSH1 0x20 DUP1 SWAP2 DIV MUL PUSH1 0x20 ADD PUSH1 0x40 MLOAD SWAP1 DUP2 ADD PUSH1 0x40 MSTORE DUP1 SWAP3 SWAP2 SWAP1 DUP2 DUP2 MSTORE PUSH1 0x20 ADD DUP3 DUP1 SLOAD PUSH2 0x5A2 SWAP1 PUSH2 0xE72 JUMP JUMPDEST DUP1 ISZERO PUSH2 0x5ED JUMPI DUP1 PUSH1 0x1F LT PUSH2 0x5C4 JUMPI PUSH2 0x100 DUP1 DUP4 SLOAD DIV MUL DUP4 MSTORE SWAP2 PUSH1 0x20 ADD SWAP2 PUSH2 0x5ED JUMP JUMPDEST DUP3 ADD SWAP2 SWAP1 PUSH0 MSTORE PUSH1 0x20 PUSH0 KECCAK256 SWAP1 JUMPDEST DUP2 SLOAD DUP2 MSTORE SWAP1 PUSH1 0x1 ADD SWAP1 PUSH1 0x20 ADD DUP1 DUP4 GT PUSH2 0x5D0 JUMPI DUP3 SWAP1 SUB PUSH1 0x1F AND DUP3 ADD SWAP2 JUMPDEST POP POP POP POP POP SWAP1 DUP1 PUSH1 0x6 ADD PUSH0 SWAP1 SLOAD SWAP1 PUSH2 0x100 EXP SWAP1 DIV PUSH0 SIGNEXTEND SWAP1 DUP1 PUSH1 0x6 ADD PUSH1 0x1 SWAP1 SLOAD SWAP1 PUSH2 0x100 EXP SWAP1 DIV PUSH20 0xFFFFFFFFFFFFFFFFFFFFFFFFFFFFFFFFFFFFFFFF AND SWAP1 POP DUP9 JUMP JUMPDEST PUSH7 0x38D7EA4C68000 DUP1 CALLVALUE LT ISZERO PUSH2 0x679 JUMPI PUSH1 0x40 MLOAD PUSH32 0x8C379A000000000000000000000000000000000000000000000000000000000 DUP2 MSTORE PUSH1 0x4 ADD PUSH2 0x670 SWAP1 PUSH2 0xEEC JUMP JUMPDEST PUSH1 0x40 MLOAD DUP1 SWAP2 SUB SWAP1 REVERT JUMPDEST PUSH1 0x40 MLOAD DUP1 PUSH2 0x100 ADD PUSH1 0x40 MSTORE DUP1 DUP10 DUP2 MSTORE PUSH1 0x20 ADD DUP9 DUP2 MSTORE PUSH1 0x20 ADD DUP8 DUP2 MSTORE PUSH1 0x20 ADD DUP7 DUP2 MSTORE PUSH1 0x20 ADD DUP6 DUP2 MSTORE PUSH1 0x20 ADD DUP5 DUP2 MSTORE PUSH1 0x20 ADD DUP4 PUSH0 SIGNEXTEND DUP2 MSTORE PUSH1 0x20 ADD CALLER PUSH20 0xFFFFFFFFFFFFFFFFFFFFFFFFFFFFFFFFFFFFFFFF AND DUP2 MSTORE POP PUSH1 0x1 PUSH0 DUP3 ADD MLOAD DUP2 PUSH0 ADD SWAP1 DUP2 PUSH2 0x6E0 SWAP2 SWAP1 PUSH2 0x10A7 JUMP JUMPDEST POP PUSH1 0x20 DUP3 ADD MLOAD DUP2 PUSH1 0x1 ADD SWAP1 DUP2 PUSH2 0x6F6 SWAP2 SWAP1 PUSH2 0x10A7 JUMP JUMPDEST POP PUSH1 0x40 DUP3 ADD MLOAD DUP2 PUSH1 0x2 ADD SWAP1 DUP2 PUSH2 0x70C SWAP2 SWAP1 PUSH2 0x10A7 JUMP JUMPDEST POP PUSH1 0x60 DUP3 ADD MLOAD DUP2 PUSH1 0x3 ADD SWAP1 DUP2 PUSH2 0x722 SWAP2 SWAP1 PUSH2 0x10A7 JUMP JUMPDEST POP PUSH1 0x80 DUP3 ADD MLOAD DUP2 PUSH1 0x4 ADD SWAP1 DUP2 PUSH2 0x738 SWAP2 SWAP1 PUSH2 0x10A7 JUMP JUMPDEST POP PUSH1 0xA0 DUP3 ADD MLOAD DUP2 PUSH1 0x5 ADD SWAP1 DUP2 PUSH2 0x74E SWAP2 SWAP1 PUSH2 0x10A7 JUMP JUMPDEST POP PUSH1 0xC0 DUP3 ADD MLOAD DUP2 PUSH1 0x6 ADD PUSH0 PUSH2 0x100 EXP DUP2 SLOAD DUP2 PUSH1 0xFF MUL NOT AND SWAP1 DUP4 PUSH0 SIGNEXTEND PUSH1 0xFF AND MUL OR SWAP1 SSTORE POP PUSH1 0xE0 DUP3 ADD MLOAD DUP2 PUSH1 0x6 ADD PUSH1 0x1 PUSH2 0x100 EXP DUP2 SLOAD DUP2 PUSH20 0xFFFFFFFFFFFFFFFFFFFFFFFFFFFFFFFFFFFFFFFF MUL NOT AND SWAP1 DUP4 PUSH20 0xFFFFFFFFFFFFFFFFFFFFFFFFFFFFFFFFFFFFFFFF AND MUL OR SWAP1 SSTORE POP SWAP1 POP POP PUSH32 0x870247EB151FD35C4907322D059C22CBE7EB7930B7B7116D4A107CBBB5378D12 DUP9 DUP9 DUP9 DUP9 DUP9 DUP9 DUP9 CALLER PUSH1 0x40 MLOAD PUSH2 0x7F8 SWAP9 SWAP8 SWAP7 SWAP6 SWAP5 SWAP4 SWAP3 SWAP2 SWAP1 PUSH2 0x941 JUMP JUMPDEST PUSH1 0x40 MLOAD DUP1 SWAP2 SUB SWAP1 LOG1 POP POP POP POP POP POP POP POP JUMP JUMPDEST PUSH0 DUP1 SLOAD SWAP1 PUSH2 0x100 EXP SWAP1 DIV PUSH20 0xFFFFFFFFFFFFFFFFFFFFFFFFFFFFFFFFFFFFFFFF AND DUP2 JUMP JUMPDEST PUSH0 DUP2 SWAP1 POP SWAP2 SWAP1 POP JUMP JUMPDEST PUSH2 0x83F DUP2 PUSH2 0x82D JUMP JUMPDEST DUP3 MSTORE POP POP JUMP JUMPDEST PUSH0 PUSH1 0x20 DUP3 ADD SWAP1 POP PUSH2 0x858 PUSH0 DUP4 ADD DUP5 PUSH2 0x836 JUMP JUMPDEST SWAP3 SWAP2 POP POP JUMP JUMPDEST PUSH0 DUP2 MLOAD SWAP1 POP SWAP2 SWAP1 POP JUMP JUMPDEST PUSH0 DUP3 DUP3 MSTORE PUSH1 0x20 DUP3 ADD SWAP1 POP SWAP3 SWAP2 POP POP JUMP JUMPDEST PUSH0 JUMPDEST DUP4 DUP2 LT ISZERO PUSH2 0x895 JUMPI DUP1 DUP3 ADD MLOAD DUP2 DUP5 ADD MSTORE PUSH1 0x20 DUP2 ADD SWAP1 POP PUSH2 0x87A JUMP JUMPDEST PUSH0 DUP5 DUP5 ADD MSTORE POP POP POP POP JUMP JUMPDEST PUSH0 PUSH1 0x1F NOT PUSH1 0x1F DUP4 ADD AND SWAP1 POP SWAP2 SWAP1 POP JUMP JUMPDEST PUSH0 PUSH2 0x8BA DUP3 PUSH2 0x85E JUMP JUMPDEST PUSH2 0x8C4 DUP2 DUP6 PUSH2 0x868 JUMP JUMPDEST SWAP4 POP PUSH2 0x8D4 DUP2 DUP6 PUSH1 0x20 DUP7 ADD PUSH2 0x878 JUMP JUMPDEST PUSH2 0x8DD DUP2 PUSH2 0x8A0 JUMP JUMPDEST DUP5 ADD SWAP2 POP POP SWAP3 SWAP2 POP POP JUMP JUMPDEST PUSH0 DUP2 PUSH0 SIGNEXTEND SWAP1 POP SWAP2 SWAP1 POP JUMP JUMPDEST PUSH2 0x8FC DUP2 PUSH2 0x8E8 JUMP JUMPDEST DUP3 MSTORE POP POP JUMP JUMPDEST PUSH0 PUSH20 0xFFFFFFFFFFFFFFFFFFFFFFFFFFFFFFFFFFFFFFFF DUP3 AND SWAP1 POP SWAP2 SWAP1 POP JUMP JUMPDEST PUSH0 PUSH2 0x92B DUP3 PUSH2 0x902 JUMP JUMPDEST SWAP1 POP SWAP2 SWAP1 POP JUMP JUMPDEST PUSH2 0x93B DUP2 PUSH2 0x921 JUMP JUMPDEST DUP3 MSTORE POP POP JUMP JUMPDEST PUSH0 PUSH2 0x100 DUP3 ADD SWAP1 POP DUP2 DUP2 SUB PUSH0 DUP4 ADD MSTORE PUSH2 0x95A DUP2 DUP12 PUSH2 0x8B0 JUMP JUMPDEST SWAP1 POP DUP2 DUP2 SUB PUSH1 0x20 DUP4 ADD MSTORE PUSH2 0x96E DUP2 DUP11 PUSH2 0x8B0 JUMP JUMPDEST SWAP1 POP DUP2 DUP2 SUB PUSH1 0x40 DUP4 ADD MSTORE PUSH2 0x982 DUP2 DUP10 PUSH2 0x8B0 JUMP JUMPDEST SWAP1 POP DUP2 DUP2 SUB PUSH1 0x60 DUP4 ADD MSTORE PUSH2 0x996 DUP2 DUP9 PUSH2 0x8B0 JUMP JUMPDEST SWAP1 POP DUP2 DUP2 SUB PUSH1 0x80 DUP4 ADD MSTORE PUSH2 0x9AA DUP2 DUP8 PUSH2 0x8B0 JUMP JUMPDEST SWAP1 POP DUP2 DUP2 SUB PUSH1 0xA0 DUP4 ADD MSTORE PUSH2 0x9BE DUP2 DUP7 PUSH2 0x8B0 JUMP JUMPDEST SWAP1 POP PUSH2 0x9CD PUSH1 0xC0 DUP4 ADD DUP6 PUSH2 0x8F3 JUMP JUMPDEST PUSH2 0x9DA PUSH1 0xE0 DUP4 ADD DUP5 PUSH2 0x932 JUMP JUMPDEST SWAP10 SWAP9 POP POP POP POP POP POP POP POP POP JUMP JUMPDEST PUSH0 PUSH1 0x40 MLOAD SWAP1 POP SWAP1 JUMP JUMPDEST PUSH0 DUP1 REVERT JUMPDEST PUSH0 DUP1 REVERT JUMPDEST PUSH0 DUP1 REVERT JUMPDEST PUSH0 DUP1 REVERT JUMPDEST PUSH32 0x4E487B7100000000000000000000000000000000000000000000000000000000 PUSH0 MSTORE PUSH1 0x41 PUSH1 0x4 MSTORE PUSH1 0x24 PUSH0 REVERT JUMPDEST PUSH2 0xA36 DUP3 PUSH2 0x8A0 JUMP JUMPDEST DUP2 ADD DUP2 DUP2 LT PUSH8 0xFFFFFFFFFFFFFFFF DUP3 GT OR ISZERO PUSH2 0xA55 JUMPI PUSH2 0xA54 PUSH2 0xA00 JUMP JUMPDEST JUMPDEST DUP1 PUSH1 0x40 MSTORE POP POP POP JUMP JUMPDEST PUSH0 PUSH2 0xA67 PUSH2 0x9E7 JUMP JUMPDEST SWAP1 POP PUSH2 0xA73 DUP3 DUP3 PUSH2 0xA2D JUMP JUMPDEST SWAP2 SWAP1 POP JUMP JUMPDEST PUSH0 PUSH8 0xFFFFFFFFFFFFFFFF DUP3 GT ISZERO PUSH2 0xA92 JUMPI PUSH2 0xA91 PUSH2 0xA00 JUMP JUMPDEST JUMPDEST PUSH2 0xA9B DUP3 PUSH2 0x8A0 JUMP JUMPDEST SWAP1 POP PUSH1 0x20 DUP2 ADD SWAP1 POP SWAP2 SWAP1 POP JUMP JUMPDEST DUP3 DUP2 DUP4 CALLDATACOPY PUSH0 DUP4 DUP4 ADD MSTORE POP POP POP JUMP JUMPDEST PUSH0 PUSH2 0xAC8 PUSH2 0xAC3 DUP5 PUSH2 0xA78 JUMP JUMPDEST PUSH2 0xA5E JUMP JUMPDEST SWAP1 POP DUP3 DUP2 MSTORE PUSH1 0x20 DUP2 ADD DUP5 DUP5 DUP5 ADD GT ISZERO PUSH2 0xAE4 JUMPI PUSH2 0xAE3 PUSH2 0x9FC JUMP JUMPDEST JUMPDEST PUSH2 0xAEF DUP5 DUP3 DUP6 PUSH2 0xAA8 JUMP JUMPDEST POP SWAP4 SWAP3 POP POP POP JUMP JUMPDEST PUSH0 DUP3 PUSH1 0x1F DUP4 ADD SLT PUSH2 0xB0B JUMPI PUSH2 0xB0A PUSH2 0x9F8 JUMP JUMPDEST JUMPDEST DUP2 CALLDATALOAD PUSH2 0xB1B DUP5 DUP3 PUSH1 0x20 DUP7 ADD PUSH2 0xAB6 JUMP JUMPDEST SWAP2 POP POP SWAP3 SWAP2 POP POP JUMP JUMPDEST PUSH2 0xB2D DUP2 PUSH2 0x8E8 JUMP JUMPDEST DUP2 EQ PUSH2 0xB37 JUMPI PUSH0 DUP1 REVERT JUMPDEST POP JUMP JUMPDEST PUSH0 DUP2 CALLDATALOAD SWAP1 POP PUSH2 0xB48 DUP2 PUSH2 0xB24 JUMP JUMPDEST SWAP3 SWAP2 POP POP JUMP JUMPDEST PUSH0 DUP1 PUSH0 DUP1 PUSH0 DUP1 PUSH0 PUSH1 0xE0 DUP9 DUP11 SUB SLT ISZERO PUSH2 0xB69 JUMPI PUSH2 0xB68 PUSH2 0x9F0 JUMP JUMPDEST JUMPDEST PUSH0 DUP9 ADD CALLDATALOAD PUSH8 0xFFFFFFFFFFFFFFFF DUP2 GT ISZERO PUSH2 0xB86 JUMPI PUSH2 0xB85 PUSH2 0x9F4 JUMP JUMPDEST JUMPDEST PUSH2 0xB92 DUP11 DUP3 DUP12 ADD PUSH2 0xAF7 JUMP JUMPDEST SWAP8 POP POP PUSH1 0x20 DUP9 ADD CALLDATALOAD PUSH8 0xFFFFFFFFFFFFFFFF DUP2 GT ISZERO PUSH2 0xBB3 JUMPI PUSH2 0xBB2 PUSH2 0x9F4 JUMP JUMPDEST JUMPDEST PUSH2 0xBBF DUP11 DUP3 DUP12 ADD PUSH2 0xAF7 JUMP JUMPDEST SWAP7 POP POP PUSH1 0x40 DUP9 ADD CALLDATALOAD PUSH8 0xFFFFFFFFFFFFFFFF DUP2 GT ISZERO PUSH2 0xBE0 JUMPI PUSH2 0xBDF PUSH2 0x9F4 JUMP JUMPDEST JUMPDEST PUSH2 0xBEC DUP11 DUP3 DUP12 ADD PUSH2 0xAF7 JUMP JUMPDEST SWAP6 POP POP PUSH1 0x60 DUP9 ADD CALLDATALOAD PUSH8 0xFFFFFFFFFFFFFFFF DUP2 GT ISZERO PUSH2 0xC0D JUMPI PUSH2 0xC0C PUSH2 0x9F4 JUMP JUMPDEST JUMPDEST PUSH2 0xC19 DUP11 DUP3 DUP12 ADD PUSH2 0xAF7 JUMP JUMPDEST SWAP5 POP POP PUSH1 0x80 DUP9 ADD CALLDATALOAD PUSH8 0xFFFFFFFFFFFFFFFF DUP2 GT ISZERO PUSH2 0xC3A JUMPI PUSH2 0xC39 PUSH2 0x9F4 JUMP JUMPDEST JUMPDEST PUSH2 0xC46 DUP11 DUP3 DUP12 ADD PUSH2 0xAF7 JUMP JUMPDEST SWAP4 POP POP PUSH1 0xA0 DUP9 ADD CALLDATALOAD PUSH8 0xFFFFFFFFFFFFFFFF DUP2 GT ISZERO PUSH2 0xC67 JUMPI PUSH2 0xC66 PUSH2 0x9F4 JUMP JUMPDEST JUMPDEST PUSH2 0xC73 DUP11 DUP3 DUP12 ADD PUSH2 0xAF7 JUMP JUMPDEST SWAP3 POP POP PUSH1 0xC0 PUSH2 0xC84 DUP11 DUP3 DUP12 ADD PUSH2 0xB3A JUMP JUMPDEST SWAP2 POP POP SWAP3 SWAP6 SWAP9 SWAP2 SWAP5 SWAP8 POP SWAP3 SWAP6 POP JUMP JUMPDEST PUSH0 PUSH2 0xC9D DUP3 PUSH2 0x902 JUMP JUMPDEST SWAP1 POP SWAP2 SWAP1 POP JUMP JUMPDEST PUSH2 0xCAD DUP2 PUSH2 0xC93 JUMP JUMPDEST DUP3 MSTORE POP POP JUMP JUMPDEST PUSH0 PUSH1 0x20 DUP3 ADD SWAP1 POP PUSH2 0xCC6 PUSH0 DUP4 ADD DUP5 PUSH2 0xCA4 JUMP JUMPDEST SWAP3 SWAP2 POP POP JUMP JUMPDEST PUSH32 0x4F6E6C79206F776E65722063616E207769746864726177000000000000000000 PUSH0 DUP3 ADD MSTORE POP JUMP JUMPDEST PUSH0 PUSH2 0xD00 PUSH1 0x17 DUP4 PUSH2 0x868 JUMP JUMPDEST SWAP2 POP PUSH2 0xD0B DUP3 PUSH2 0xCCC JUMP JUMPDEST PUSH1 0x20 DUP3 ADD SWAP1 POP SWAP2 SWAP1 POP JUMP JUMPDEST PUSH0 PUSH1 0x20 DUP3 ADD SWAP1 POP DUP2 DUP2 SUB PUSH0 DUP4 ADD MSTORE PUSH2 0xD2D DUP2 PUSH2 0xCF4 JUMP JUMPDEST SWAP1 POP SWAP2 SWAP1 POP JUMP JUMPDEST PUSH32 0x4E6F2066756E647320746F207769746864726177000000000000000000000000 PUSH0 DUP3 ADD MSTORE POP JUMP JUMPDEST PUSH0 PUSH2 0xD68 PUSH1 0x14 DUP4 PUSH2 0x868 JUMP JUMPDEST SWAP2 POP PUSH2 0xD73 DUP3 PUSH2 0xD34 JUMP JUMPDEST PUSH1 0x20 DUP3 ADD SWAP1 POP SWAP2 SWAP1 POP JUMP JUMPDEST PUSH0 PUSH1 0x20 DUP3 ADD SWAP1 POP DUP2 DUP2 SUB PUSH0 DUP4 ADD MSTORE PUSH2 0xD95 DUP2 PUSH2 0xD5C JUMP JUMPDEST SWAP1 POP SWAP2 SWAP1 POP JUMP JUMPDEST PUSH0 DUP2 SWAP1 POP SWAP3 SWAP2 POP POP JUMP JUMPDEST POP JUMP JUMPDEST PUSH0 PUSH2 0xDB4 PUSH0 DUP4 PUSH2 0xD9C JUMP JUMPDEST SWAP2 POP PUSH2 0xDBF DUP3 PUSH2 0xDA6 JUMP JUMPDEST PUSH0 DUP3 ADD SWAP1 POP SWAP2 SWAP1 POP JUMP JUMPDEST PUSH0 PUSH2 0xDD3 DUP3 PUSH2 0xDA9 JUMP JUMPDEST SWAP2 POP DUP2 SWAP1 POP SWAP2 SWAP1 POP JUMP JUMPDEST PUSH32 0x5472616E73666572206661696C65640000000000000000000000000000000000 PUSH0 DUP3 ADD MSTORE POP JUMP JUMPDEST PUSH0 PUSH2 0xE11 PUSH1 0xF DUP4 PUSH2 0x868 JUMP JUMPDEST SWAP2 POP PUSH2 0xE1C DUP3 PUSH2 0xDDD JUMP JUMPDEST PUSH1 0x20 DUP3 ADD SWAP1 POP SWAP2 SWAP1 POP JUMP JUMPDEST PUSH0 PUSH1 0x20 DUP3 ADD SWAP1 POP DUP2 DUP2 SUB PUSH0 DUP4 ADD MSTORE PUSH2 0xE3E DUP2 PUSH2 0xE05 JUMP JUMPDEST SWAP1 POP SWAP2 SWAP1 POP JUMP JUMPDEST PUSH32 0x4E487B7100000000000000000000000000000000000000000000000000000000 PUSH0 MSTORE PUSH1 0x22 PUSH1 0x4 MSTORE PUSH1 0x24 PUSH0 REVERT JUMPDEST PUSH0 PUSH1 0x2 DUP3 DIV SWAP1 POP PUSH1 0x1 DUP3 AND DUP1 PUSH2 0xE89 JUMPI PUSH1 0x7F DUP3 AND SWAP2 POP JUMPDEST PUSH1 0x20 DUP3 LT DUP2 SUB PUSH2 0xE9C JUMPI PUSH2 0xE9B PUSH2 0xE45 JUMP JUMPDEST JUMPDEST POP SWAP2 SWAP1 POP JUMP JUMPDEST PUSH32 0x4E6F7420656E6F75676820415641582073656E74000000000000000000000000 PUSH0 DUP3 ADD MSTORE POP JUMP JUMPDEST PUSH0 PUSH2 0xED6 PUSH1 0x14 DUP4 PUSH2 0x868 JUMP JUMPDEST SWAP2 POP PUSH2 0xEE1 DUP3 PUSH2 0xEA2 JUMP JUMPDEST PUSH1 0x20 DUP3 ADD SWAP1 POP SWAP2 SWAP1 POP JUMP JUMPDEST PUSH0 PUSH1 0x20 DUP3 ADD SWAP1 POP DUP2 DUP2 SUB PUSH0 DUP4 ADD MSTORE PUSH2 0xF03 DUP2 PUSH2 0xECA JUMP JUMPDEST SWAP1 POP SWAP2 SWAP1 POP JUMP JUMPDEST PUSH0 DUP2 SWAP1 POP DUP2 PUSH0 MSTORE PUSH1 0x20 PUSH0 KECCAK256 SWAP1 POP SWAP2 SWAP1 POP JUMP JUMPDEST PUSH0 PUSH1 0x20 PUSH1 0x1F DUP4 ADD DIV SWAP1 POP SWAP2 SWAP1 POP JUMP JUMPDEST PUSH0 DUP3 DUP3 SHL SWAP1 POP SWAP3 SWAP2 POP POP JUMP JUMPDEST PUSH0 PUSH1 0x8 DUP4 MUL PUSH2 0xF66 PUSH32 0xFFFFFFFFFFFFFFFFFFFFFFFFFFFFFFFFFFFFFFFFFFFFFFFFFFFFFFFFFFFFFFFF DUP3 PUSH2 0xF2B JUMP JUMPDEST PUSH2 0xF70 DUP7 DUP4 PUSH2 0xF2B JUMP JUMPDEST SWAP6 POP DUP1 NOT DUP5 AND SWAP4 POP DUP1 DUP7 AND DUP5 OR SWAP3 POP POP POP SWAP4 SWAP3 POP POP POP JUMP JUMPDEST PUSH0 DUP2 SWAP1 POP SWAP2 SWAP1 POP JUMP JUMPDEST PUSH0 PUSH2 0xFAB PUSH2 0xFA6 PUSH2 0xFA1 DUP5 PUSH2 0x82D JUMP JUMPDEST PUSH2 0xF88 JUMP JUMPDEST PUSH2 0x82D JUMP JUMPDEST SWAP1 POP SWAP2 SWAP1 POP JUMP JUMPDEST PUSH0 DUP2 SWAP1 POP SWAP2 SWAP1 POP JUMP JUMPDEST PUSH2 0xFC4 DUP4 PUSH2 0xF91 JUMP JUMPDEST PUSH2 0xFD8 PUSH2 0xFD0 DUP3 PUSH2 0xFB2 JUMP JUMPDEST DUP5 DUP5 SLOAD PUSH2 0xF37 JUMP JUMPDEST DUP3 SSTORE POP POP POP POP JUMP JUMPDEST PUSH0 SWAP1 JUMP JUMPDEST PUSH2 0xFEC PUSH2 0xFE0 JUMP JUMPDEST PUSH2 0xFF7 DUP2 DUP5 DUP5 PUSH2 0xFBB JUMP JUMPDEST POP POP POP JUMP JUMPDEST JUMPDEST DUP2 DUP2 LT ISZERO PUSH2 0x101A JUMPI PUSH2 0x100F PUSH0 DUP3 PUSH2 0xFE4 JUMP JUMPDEST PUSH1 0x1 DUP2 ADD SWAP1 POP PUSH2 0xFFD JUMP JUMPDEST POP POP JUMP JUMPDEST PUSH1 0x1F DUP3 GT ISZERO PUSH2 0x105F JUMPI PUSH2 0x1030 DUP2 PUSH2 0xF0A JUMP JUMPDEST PUSH2 0x1039 DUP5 PUSH2 0xF1C JUMP JUMPDEST DUP2 ADD PUSH1 0x20 DUP6 LT ISZERO PUSH2 0x1048 JUMPI DUP2 SWAP1 POP JUMPDEST PUSH2 0x105C PUSH2 0x1054 DUP6 PUSH2 0xF1C JUMP JUMPDEST DUP4 ADD DUP3 PUSH2 0xFFC JUMP JUMPDEST POP POP JUMPDEST POP POP POP JUMP JUMPDEST PUSH0 DUP3 DUP3 SHR SWAP1 POP SWAP3 SWAP2 POP POP JUMP JUMPDEST PUSH0 PUSH2 0x107F PUSH0 NOT DUP5 PUSH1 0x8 MUL PUSH2 0x1064 JUMP JUMPDEST NOT DUP1 DUP4 AND SWAP2 POP POP SWAP3 SWAP2 POP POP JUMP JUMPDEST PUSH0 PUSH2 0x1097 DUP4 DUP4 PUSH2 0x1070 JUMP JUMPDEST SWAP2 POP DUP3 PUSH1 0x2 MUL DUP3 OR SWAP1 POP SWAP3 SWAP2 POP POP JUMP JUMPDEST PUSH2 0x10B0 DUP3 PUSH2 0x85E JUMP JUMPDEST PUSH8 0xFFFFFFFFFFFFFFFF DUP2 GT ISZERO PUSH2 0x10C9 JUMPI PUSH2 0x10C8 PUSH2 0xA00 JUMP JUMPDEST JUMPDEST PUSH2 0x10D3 DUP3 SLOAD PUSH2 0xE72 JUMP JUMPDEST PUSH2 0x10DE DUP3 DUP3 DUP6 PUSH2 0x101E JUMP JUMPDEST PUSH0 PUSH1 0x20 SWAP1 POP PUSH1 0x1F DUP4 GT PUSH1 0x1 DUP2 EQ PUSH2 0x110F JUMPI PUSH0 DUP5 ISZERO PUSH2 0x10FD JUMPI DUP3 DUP8 ADD MLOAD SWAP1 POP JUMPDEST PUSH2 0x1107 DUP6 DUP3 PUSH2 0x108C JUMP JUMPDEST DUP7 SSTORE POP PUSH2 0x116E JUMP JUMPDEST PUSH1 0x1F NOT DUP5 AND PUSH2 0x111D DUP7 PUSH2 0xF0A JUMP JUMPDEST PUSH0 JUMPDEST DUP3 DUP2 LT ISZERO PUSH2 0x1144 JUMPI DUP5 DUP10 ADD MLOAD DUP3 SSTORE PUSH1 0x1 DUP3 ADD SWAP2 POP PUSH1 0x20 DUP6 ADD SWAP5 POP PUSH1 0x20 DUP2 ADD SWAP1 POP PUSH2 0x111F JUMP JUMPDEST DUP7 DUP4 LT ISZERO PUSH2 0x1161 JUMPI DUP5 DUP10 ADD MLOAD PUSH2 0x115D PUSH1 0x1F DUP10 AND DUP3 PUSH2 0x1070 JUMP JUMPDEST DUP4 SSTORE POP JUMPDEST PUSH1 0x1 PUSH1 0x2 DUP9 MUL ADD DUP9 SSTORE POP POP POP JUMPDEST POP POP POP POP POP POP JUMP INVALID LOG2 PUSH5 0x6970667358 0x22 SLT KECCAK256 DUP13 0xD8 SWAP2 0x4F CALLVALUE PUSH7 0x701824A6E37980 MULMOD 0xC7 0xDC DUP2 0xDD 0x2F CALLER 0x2F 0xEF GAS 0xED 0xA5 SWAP2 0xCF 0xC6 0xEA 0xF9 0xBC SWAP2 PUSH5 0x736F6C6343 STOP ADDMOD XOR STOP CALLER "
		},
		"gasEstimates": {
			"creation": {
				"codeDepositCost": "904800",
				"executionCost": "25205",
				"totalCost": "930005"
			},
			"external": {
				"data()": "infinite",
				"getBalance()": "312",
				"owner()": "2571",
				"pushData(string,string,string,string,string,string,int8)": "infinite",
				"withdraw()": "infinite"
			}
		},
		"methodIdentifiers": {
			"data()": "73d4a13a",
			"getBalance()": "12065fe0",
			"owner()": "8da5cb5b",
			"pushData(string,string,string,string,string,string,int8)": "782154df",
			"withdraw()": "3ccfd60b"
		}
	},
	"abi": [
		{
			"inputs": [],
			"stateMutability": "nonpayable",
			"type": "constructor"
		},
		{
			"anonymous": false,
			"inputs": [
				{
					"indexed": false,
					"internalType": "string",
					"name": "date",
					"type": "string"
				},
				{
					"indexed": false,
					"internalType": "string",
					"name": "delivery_date",
					"type": "string"
				},
				{
					"indexed": false,
					"internalType": "string",
					"name": "product",
					"type": "string"
				},
				{
					"indexed": false,
					"internalType": "string",
					"name": "price",
					"type": "string"
				},
				{
					"indexed": false,
					"internalType": "string",
					"name": "code",
					"type": "string"
				},
				{
					"indexed": false,
					"internalType": "string",
					"name": "cel_number",
					"type": "string"
				},
				{
					"indexed": false,
					"internalType": "int8",
					"name": "status",
					"type": "int8"
				},
				{
					"indexed": false,
					"internalType": "address",
					"name": "wallet",
					"type": "address"
				}
			],
			"name": "newData",
			"type": "event"
		},
		{
			"inputs": [],
			"name": "data",
			"outputs": [
				{
					"internalType": "string",
					"name": "date",
					"type": "string"
				},
				{
					"internalType": "string",
					"name": "delivery_date",
					"type": "string"
				},
				{
					"internalType": "string",
					"name": "product",
					"type": "string"
				},
				{
					"internalType": "string",
					"name": "price",
					"type": "string"
				},
				{
					"internalType": "string",
					"name": "code",
					"type": "string"
				},
				{
					"internalType": "string",
					"name": "cel_number",
					"type": "string"
				},
				{
					"internalType": "int8",
					"name": "status",
					"type": "int8"
				},
				{
					"internalType": "address",
					"name": "wallet",
					"type": "address"
				}
			],
			"stateMutability": "view",
			"type": "function"
		},
		{
			"inputs": [],
			"name": "getBalance",
			"outputs": [
				{
					"internalType": "uint256",
					"name": "",
					"type": "uint256"
				}
			],
			"stateMutability": "view",
			"type": "function"
		},
		{
			"inputs": [],
			"name": "owner",
			"outputs": [
				{
					"internalType": "address payable",
					"name": "",
					"type": "address"
				}
			],
			"stateMutability": "view",
			"type": "function"
		},
		{
			"inputs": [
				{
					"internalType": "string",
					"name": "_date",
					"type": "string"
				},
				{
					"internalType": "string",
					"name": "_delivery_date",
					"type": "string"
				},
				{
					"internalType": "string",
					"name": "_product",
					"type": "string"
				},
				{
					"internalType": "string",
					"name": "_price",
					"type": "string"
				},
				{
					"internalType": "string",
					"name": "_code",
					"type": "string"
				},
				{
					"internalType": "string",
					"name": "_cel_number",
					"type": "string"
				},
				{
					"internalType": "int8",
					"name": "_status",
					"type": "int8"
				}
			],
			"name": "pushData",
			"outputs": [],
			"stateMutability": "payable",
			"type": "function"
		},
		{
			"inputs": [],
			"name": "withdraw",
			"outputs": [],
			"stateMutability": "nonpayable",
			"type": "function"
		}
	]
}